:100000000C9437010C9468010C9468010C946801FD
:100010000C9468010C9468010C9468010C946801BC
:100020000C9468010C9468010C9468010C946801AC
:100030000C9468010C9468010C9468010C9468019C
:100040000C9468010C9468010C9468010C9468018C
:100050000C9468010C9468010C9468010C94D2050E
:100060000C9468010C9446060C941C060C946801D0
:100070000C9468010C9468010C9468010C9468015C
:100080000C947C060C9468010C9468010C94680133
:100090000C9468010C9468010C9468010C9468013C
:1000A0000C9468010C9468010C9468010C9468012C
:1000B0000C9468010C9468010C9468010C9468011C
:1000C0000C9468010C9468010C9468010C9468010C
:1000D0000C9468010C9468010C9468010C946801FC
:1000E0000C9468010C94C6030C94A7070C94B402FA
:1000F0000C94A9040C94C7020C94AC020C94C20298
:100100000C9424040C9487020C94FA040C94BA0204
:100110000C94A6020C94B0020C945C040C94C802DB
:100120000C94BE020C94CC020C9416040C948D0218
:100130000C94F3030C94A2020C9402040C9491020C
:100140000C949C020C9499020C94950200002100DE
:10015000240027002A002D00300033000101000098
:10016000040107010A0100002200250028002B00DD
:100170002E003100340002010000050108010B01CE
:10018000000020002300260029002C002F00320050
:100190000001000003010601090105050505070529
:1001A00008080808020202020A0A080804040404F3
:1001B000010101010101010103030303030303031F
:1001C000040707070C0C0C0C0C0C0C0C02020202AE
:1001D00006060606060606060B0B0B0B0B0B0B0B97
:1001E0000102102020080810204010204080020149
:1001F000020108040201010204081020408080402E
:10020000201008040201800402018040201008042C
:1002100002010804020101020408102040800102CA
:1002200004081020408000000A0B02090C0D0E0883
:1002300007030401000000000000000000000000AF
:1002400000000000000000000000000000000000AE
:10025000000012111000000000000000000000006B
:10026000000000000000000000000000A7071124AB
:100270001FBECFEFD1E2DEBFCDBF00E00CBF12E06A
:10028000A0E0B2E0E6EEFAE100E00BBF02C00790AA
:100290000D92AC33B107D9F723E0ACE3B2E001C073
:1002A0001D92A735B207E1F711E0C7E3D1E000E006
:1002B00006C021970109802FFE010E94690DC633F7
:1002C000D10780E00807A9F70E94BB080C94710DC4
:1002D0000C940000E5E1F3E021E0268FDC018D9134
:1002E0009C9190A3878F15821486138A128E08958D
:1002F00010923B0310923C0310923D0310923E0378
:10030000FC01808191818130910559F030F082307B
:10031000910559F0039769F0089581E080933B03BC
:10032000089581E080933E03089581E080933C032B
:10033000089581E080933D03089580914703909153
:100340004803A0914903B0914A0320914003233010
:1003500009F47DC0ACF42130C9F1223009F457C052
:100360008091470390914803A0914903B0914A03BB
:10037000892B8A2B8B2B19F481E080933F030895FE
:10038000243009F485C0253059F7AC01BD01009730
:1003900021E0A207B10520F04FEF5FEF60E070E0D1
:1003A0005093290140932801841B950BA60BB70B92
:1003B0008093470390934803A0934903B0934A0363
:1003C00080917300826080937300CACFAC01BD013D
:1003D000009721E0A207B10520F04FEF5FEF60E04A
:1003E00070E05093890040938800841B950BA60B06
:1003F000B70B8093470390934803A0934903B093AE
:100400004A0380916F00826080936F00A9CFAC0196
:10041000BD018F3F9105A105B10529F020F04FEFF7
:1004200050E060E070E04093B300841B950BA60B96
:10043000B70B8093470390934803A0934903B0936D
:100440004A038091700082608093700089CFAC0174
:10045000BD01009721E0A207B10520F04FEF5FEF4B
:1004600060E070E05093990040939800841B950BD6
:10047000A60BB70B8093470390934803A0934903BF
:10048000B0934A038091710082608093710068CFBD
:10049000AC01BD01009721E0A207B10520F04FEFAC
:1004A0005FEF60E070E05093A9004093A800841BC8
:1004B000950BA60BB70B8093470390934803A0932B
:1004C0004903B0934A038091720082608093720066
:1004D00047CF8150823108F05AC0E82FF0E08827DA
:1004E000EB58FD4F8F4F0C94690D950299028702CE
:1004F0008D029102C7029C02A202A602AC02B002C7
:10050000B402BA02BE02C702C202C802CC02809183
:1005100080008F77809380000895809180008F7D88
:10052000F9CF80918000877FF5CF84B58F7784BD28
:10053000089584B58F7DFBCF8091B0008F77809335
:10054000B00008958091B0008F7DF9CF8091900028
:100550008F77809390000895809190008F7DF9CFE0
:1005600080919000877FF5CF8091A0008F77809356
:10057000A00008958091A0008F7DF9CF8091A00008
:10058000877FF5CF809120018F7780932001089598
:10059000809120018F7DF9CF80912001877FF5CF59
:1005A000CF93DF93282F30E0F901EA5DFD4F84916E
:1005B000F901E052FE4FD491F901E656FE4FC49185
:1005C000CC23A1F081110E946902EC2FF0E0EE0F24
:1005D000FF1FE058FE4FA591B491EC91ED2381E00F
:1005E00090E009F480E0DF91CF91089580E090E001
:1005F000FACF1F93CF93DF93282F30E0F901EA5D04
:10060000FD4F8491F901E052FE4FD491F901E65675
:10061000FE4FC491CC23A9F0162F81110E946902CC
:10062000EC2FF0E0EE0FFF1FEA59FE4FA591B491B9
:100630008FB7F894EC91111108C0D095DE23DC93AC
:100640008FBFDF91CF911F910895DE2BF8CFCF930D
:10065000DF9390E0FC01E052FE4F249186569E4FBE
:10066000FC0184918823D1F090E0880F991FFC0150
:10067000E45BFE4FA591B491FC01EA59FE4FC59190
:10068000D49161110EC09FB7F8948C91E22FE09540
:100690008E238C932881E223E8839FBFDF91CF9143
:1006A00008958FB7F894EC91E22BEC938FBFF6CFBF
:1006B00090917B00977F90937B008653806480931A
:1006C0007C0080917A00806480937A0080917A0027
:1006D00086FDFCCF809178009091790008953FB716
:1006E000F8948091410290914202A0914302B0910E
:1006F000440226B5A89B05C02F3F19F00196A11D05
:10070000B11D3FBFBA2FA92F982F8827BC01CD015B
:10071000620F711D811D911D42E0660F771F881FBA
:10072000991F4A95D1F708952FB7F89460913D022B
:1007300070913E0280913F02909140022FBF089538
:10074000CF93DF9310923303FC01C081D1810E94CB
:10075000940327E02C9FF0012D9FF00D1124EB5EF8
:10076000FC4F618372838383948381E08583168247
:10077000DF91CF9108950E949403E6E3F3E0608354
:1007800071838283938381E084830895AF92BF92C3
:10079000CF92DF92EF92FF920F931F93CF93DF934D
:1007A0006C017B018B01040F151FEB015E01AE187C
:1007B000BF08C017D10759F06991D601ED91FC919E
:1007C0000190F081E02DC6011995892B79F7C501BB
:1007D000DF91CF911F910F91FF90EF90DF90CF901D
:1007E000BF90AF900895FC01538D448D252F30E0CC
:1007F000842F90E0821B930B541710F0CF9608952E
:1008000001970895FC01918D828D981761F0A28D5A
:10081000AE0FBF2FB11D5D968C91928D9F5F9F7320
:10082000928F90E008958FEF9FEF0895FC01918DD6
:10083000828D981731F0828DE80FF11D858D90E043
:1008400008958FEF9FEF0895FC01918D228D892FE0
:1008500090E0805C9F4F821B91098F7399270895C8
:1008600085E492E00E94240421E0892B09F420E031
:10087000822F0895FC01A48DA80FB92FB11DA35A92
:10088000BF4F2C91848D90E001968F739927848FB0
:10089000A689B7892C93A089B1898C9183708064D3
:1008A0008C93938D848D981306C00288F389E02D74
:1008B00080818F7D80830895EF92FF920F931F9325
:1008C000CF93DF93EC0181E0888F9B8D8C8D981303
:1008D0001AC0E889F989808185FF15C09FB7F8940F
:1008E000EE89FF896083E889F9898081837080645B
:1008F00080839FBF81E090E0DF91CF911F910F91A6
:10090000FF90EF900895F62E0B8D10E00F5F1F4FB4
:100910000F731127E02E8C8D8E110CC00FB607FCC3
:10092000FACFE889F989808185FFF5CFCE010E9451
:100930003A04F1CFEB8DEC0FFD2FF11DE35AFF4F81
:10094000F0829FB7F8940B8FEA89FB8980818062DF
:10095000CFCFCF93DF93EC01888D8823B9F0AA899C
:10096000BB89E889F9898C9185FD03C0808186FD6A
:100970000DC00FB607FCF7CF8C9185FFF2CF8081B9
:1009800085FFEDCFCE010E943A04E9CFDF91CF91F0
:10099000089580E090E0892B29F00E9430048111B5
:1009A0000E94000080E090E0892B49F080E090E018
:1009B000892B29F00E94000081110E94000080E034
:1009C00090E0892B49F080E090E0892B29F00E948B
:1009D000000081110E94000080E090E0892B49F026
:1009E00080E090E0892B29F00E94000081110C9496
:1009F00000000895EF92FF920F931F93CF93DF9320
:100A00008091310390913203009709F097C060E024
:100A100085E00E94F90280913303882309F496C08F
:100A200061E080913403909135030A970CF460E003
:100A30008FE10E94F90261E08091340390913503C7
:100A400009970CF460E080E20E94F90261E0809175
:100A500034039091350308970CF460E081E20E9422
:100A6000F90261E0809134039091350307970CF40B
:100A700060E082E20E94F90261E08091340390918B
:100A8000350306970CF460E083E20E94F90261E00E
:100A9000809134039091350305970CF460E084E273
:100AA0000E94F90261E0809134039091350304972C
:100AB0000CF460E085E20E94F90261E08091340369
:100AC0009091350303970CF460E086E20E94F902EE
:100AD00061E0809134039091350302970CF460E05B
:100AE00087E20E94F90261E080913403909135031E
:100AF000181619060CF060E088E20E94F902E091F5
:100B00003103F0913203EE0FFF1FE85EFD4F61E00D
:100B100080810E94F9028091310390913203019605
:100B200084309105D4F59093320380933103DF91A3
:100B3000CF911F910F91FF90EF900895880F991F0B
:100B4000FC01EA5EFD4F60E0808163CF20913103BC
:100B50003091320304E012E0D0E0C0E047E0429F71
:100B6000C001439F900D11249C012B5E3C4F7901E5
:100B7000F80180810E5F1F4FF7012081022E000CCB
:100B8000330B61E02C173D0709F060E00E94F90289
:100B90002196CA30D10561F7B2CF1092320310927C
:100BA0003103C5CF1F920F920FB60F9211242F93CE
:100BB0003F938F939F93AF93BF9380913D0290910A
:100BC0003E02A0913F02B091400230913C0223E0EE
:100BD000230F2D3758F50196A11DB11D20933C021E
:100BE00080933D0290933E02A0933F02B093400257
:100BF0008091410290914202A0914302B09144023F
:100C00000196A11DB11D8093410290934202A093D1
:100C10004302B0934402BF91AF919F918F913F9156
:100C20002F910F900FBE0F901F90189526E8230F5D
:100C30000296A11DB11DD2CF1F920F920FB60F9237
:100C400011240BB60F922F933F934F935F936F93A3
:100C50007F938F939F93AF93BF93EF93FF9385E41D
:100C600092E00E943A04FF91EF91BF91AF919F9162
:100C70008F917F916F915F914F913F912F910F9045
:100C80000BBE0F900FBE0F901F9018951F920F92E2
:100C90000FB60F9211240BB60F922F938F939F9341
:100CA000EF93FF93E0915502F09156028081E0911D
:100CB0005B02F0915C0282FD1DC0908180915E021A
:100CC0008F5F8F7320915F02821741F0E0915E0287
:100CD000F0E0EB5BFD4F958F80935E02FF91EF910B
:100CE0009F918F912F910F900BBE0F900FBE0F9081
:100CF0001F9018958081F2CF1F920F920FB60F921E
:100D000011240BB60F92CF92DF92EF92FF922F93A6
:100D10003F934F935F936F937F938F939F93AF9383
:100D2000BF93EF93FF93C0904B03D0904C03E090A0
:100D30004D03F0904E0380914003833009F04DC085
:100D4000C114D104E104F10409F4D5C080913F033A
:100D5000882309F45BC0E0915303F091540330976A
:100D600041F08091550390915603009709F44CC0CF
:100D700019958091430390914403A0914503B0914C
:100D800046030097A140B105B4F0F8948091430365
:100D900090914403A0914503B0914603809347038B
:100DA00090934803A0934903B0934A030E949D0186
:100DB00010923F0378941C141D041E041F046CF44D
:100DC00081E0C81AD108E108F108C0924B03D09223
:100DD0004C03E0924D03F0924E03FF91EF91BF91CF
:100DE000AF919F918F917F916F915F914F913F91C3
:100DF0002F91FF90EF90DF90CF900F900BBE0F9050
:100E00000FBE0F901F9018951995B3CFF8942091AD
:100E100040038091470390914803A0914903B0910A
:100E20004A03223009F447C08F3F9F4FA105B10507
:100E300010F40E949D018091470390914803A09176
:100E40004903B0914A03AC01BD01009721E0A2071C
:100E5000B10520F04FEF5FEF60E070E0841B950B71
:100E6000A60BB70B8093470390934803A0934903C5
:100E7000B0934A038091470390914803A09149039E
:100E8000B0914A03892B8A2B8B2B91F580914303D8
:100E900090914403A0914503B0914603809347038A
:100EA00090934803A0934903B0934A0381E0809351
:100EB0003F03789492CF8F3F9105A105B10510F4BF
:100EC0000E949D018091470390914803A09149039E
:100ED000B0914A03AC01BD018F3F9105A105B10559
:100EE00009F008F4BBCF4FEF50E060E070E0B6CF00
:100EF00010923F03DECFF894809140038330D9F005
:100F000054F4813091F08230A1F6809170008D7F91
:100F100080937000CECF8430A1F0853051F680915F
:100F200073008D7F80937300C4CF80916F008D7F9D
:100F300080936F00BECF809171008D7F8093710090
:100F4000B8CF809172008D7F80937200B2CF1092E3
:100F500048021092470288EE93E0A0E0B0E0809350
:100F6000490290934A02A0934B02B0934C028DE247
:100F700092E0909346028093450285EC90E0909336
:100F800052028093510284EC90E09093540280933B
:100F9000530280EC90E0909356028093550281ECCE
:100FA00090E0909358028093570282EC90E09093E7
:100FB0005A028093590286EC90E090935C028093F1
:100FC0005B0210925E0210925F0210926002109219
:100FD000610283E08093400310924F03109250030C
:100FE0001092510310925203109254031092530323
:100FF000109256031092550310923F0381E090E047
:101000009093420380934103109243031092440350
:101010001092450310924603109247031092480322
:101020001092490310924A038FEF9FEFDC018093E7
:101030004B0390934C03A0934D03B0934E03109237
:101040003B0310923C0310923D0310923E0310921A
:10105000360310923703109238031092390310921E
:101060003A03E5E1F3E08BE0808311821282138280
:10107000148215821682379693E0E133F907A1F7BF
:101080001092320310923103109233031092350301
:101090001092340310920F0310920E03109211035A
:1010A00010921003109212031092EC021092EB02B5
:1010B00081E190E09093EE028093ED021092EF02B6
:1010C0001092F1021092F00281E090E09093F3020E
:1010D0008093F20280E190E09093F5028093F40215
:1010E0001092F6021092F8021092F70282E090E05D
:1010F0009093FA028093F90283E190E09093FC02CE
:101100008093FB021092FD021092FF021092FE02E9
:1011100083E090E0909301038093000382E190E0EC
:10112000909303038093020310920403109206032A
:101130001092050384E090E09093080380930703E6
:1011400086E090E090930A038093090310920B03CA
:1011500010920D0310920C031092E4021092E5021B
:101160001092E6021092E7021092E9021092E80251
:101170001092EA020895CF93DF931F921F92CDB78A
:10118000DEB7789484B5826084BD84B5816084BD07
:1011900085B5826085BD85B5816085BD80916E0015
:1011A000816080936E001092810080918100826046
:1011B0008093810080918100816080938100809183
:1011C00080008160809380008091B1008460809372
:1011D000B1008091B00081608093B0008091910057
:1011E0008260809391008091910081608093910052
:1011F000809190008160809390008091A100826036
:101200008093A1008091A10081608093A1008091D2
:10121000A00081608093A000809121018260809372
:101220002101809121018160809321018091200121
:1012300081608093200180917A00846080937A009D
:1012400080917A00826080937A0080917A00816038
:1012500080937A0080917A00806880937A0010925F
:10126000C100E0915502F091560282E08083E09146
:101270005102F09152021082E0915302F091540217
:101280008FEC808310925D02E0915902F0915A0236
:1012900086E08083E0915702F0915802808180615E
:1012A0008083E0915702F0915802808188608083AA
:1012B000E0915702F0915802808180688083E0912C
:1012C0005702F091580280818F7D808361E08BE02E
:1012D0000E94270361E088E00E94270361E089E023
:1012E0000E94270361E08AE00E94270361E087E013
:1012F0000E94270361E08FE10E94270361E080E202
:101300000E94270361E081E20E94270361E082E2FC
:101310000E94270361E083E20E94270361E084E2E8
:101320000E94270361E085E20E94270361E086E2D4
:101330000E94270361E087E20E94270361E088E2C0
:101340000E94270361E082E00E94270361E083E0BE
:101350000E94270361E084E00E94270361E085E0AA
:101360000E94270360E087E30E94270360E086E392
:101370000E9427030BEE12E060E0F80182810E94D8
:101380002703095F1F4FF3E007301F07A9F760E04D
:1013900086E00E94270380914003F894833009F48B
:1013A0000FC20CF0DAC1813009F4ECC1823009F4CB
:1013B000F8C18093400378948091400318160CF094
:1013C0004EC08FEF9FEFDC0180934B0390934C0353
:1013D000A0934D03B0934E038FE79BEBA0E0B0E0EA
:1013E0008093430390934403A0934503B093460333
:1013F0008093470390934803A0934903B0934A0313
:1014000081E090E09093420380934103F8948BEA4B
:101410009AEAA6EAB3E480934F0390935003A09313
:101420005103B09352038AEF94E090935403809356
:101430005303109256031092550310923F0380916C
:101440004003823009F0DAC18091B100887F909129
:101450004103892B8093B1000E949D01789464E63A
:10146000862E912CA12CB12C73E0272E312C86E0F6
:101470000E94D00286E30E94580390931103809348
:10148000100387E30E945803209110033091110349
:1014900032503093110320931003925090930F0316
:1014A00080930E03B90137FF04C066277727621BBC
:1014B000730BAC0197FF04C044275527481B590BF9
:1014C000683C71050CF0C7C1483C51050CF4D0C113
:1014D00031E020E0181619060CF030E0832F922F2F
:1014E00020911303309114032817390739F0909392
:1014F00014038093130321E0209312030BEE12E0F8
:10150000F80182810E94D0029C0191E021153105F1
:1015100009F090E0F80194838581981709F4ABC134
:10152000232B09F0A8C121E02683F8019583095FE8
:101530001F4FF3E00E301F0719F70E9494034090ED
:10154000E4025090E5026090E6027090E7026419B0
:10155000750986099709683E734081059105B8F0C1
:101560000E9494036093E4027093E5028093E60284
:101570009093E7020E94F70C8F71082E000C990BD4
:101580009093E3028093E20231E03093EA0280918B
:10159000330381112AC045E1E42E43E0F42E5BE0E1
:1015A000752E0E949403F7012581222309F466C158
:1015B0002181328143815481621B730B840B950B13
:1015C000693EF3E07F078105910508F057C1A50149
:1015D00094010E94380DF7012083F7E0EF0EF11C13
:1015E00021E3E21623E0F206E1F60E949403409024
:1015F00036035090370360903803709039036419B4
:101600007509860997096A3F71058105910528F4D6
:1016100080913A0361E0811101C060E087E00E949F
:10162000F90260913B038BE00E94F90260913C0358
:1016300088E00E94F90260913D0389E00E94F9026E
:1016400060913E038AE00E94F90280911203882390
:1016500091F010921203809113039091140360E4AF
:101660008530910520F4805E9D4FFC01608185E40A
:1016700092E00E945C042BEEE22E22E0F22E37E094
:10168000732EF7018681882329F180819181789ECC
:10169000F001799EF00D1124EB5EFC4F20812B3080
:1016A0000CF0F0C02581222331F036813111EAC0DF
:1016B00031E036831582019760E08430910520F493
:1016C0008B5D9D4FFC0160812111646085E492E097
:1016D0000E945C04F7E0EF0EF11C0E151F0589F661
:1016E0008091EA02882351F01092EA026091E202AE
:1016F0006F71606C85E492E00E945C0485E492E086
:101700000E942404892B09F400C185E492E00E9420
:101710000204282F082E000C330B96E035952795F0
:101720009A95E1F72370223009F4BEC0233009F402
:10173000E1C0213009F4B5C08370823009F4A9C03A
:10174000833009F4ABC0813009F49EC01A8219823B
:10175000CE0101960E94A003D1CF843009F43FC08E
:10176000853009F026CE109220011092210190912F
:1017700021019860909321019091210191609093B3
:10178000210117CE1092800010928100909181006B
:101790009860909381009091810091609093810076
:1017A00008CE1092B0001092B1009091B0009260FB
:1017B0009093B0009091B10091609093B100F9CDF9
:1017C00010929000109291009091910098609093E7
:1017D000910090919100916090939100EACD1092C8
:1017E000A0001092A1009091A10098609093A10098
:1017F0009091A10091609093A100DBCD813049F4DC
:1018000080918100887F90914103892B8093810092
:1018100023CE833049F480919100887F90914103D9
:10182000892B8093910018CE843049F48091A100D7
:10183000887F90914103892B8093A1000DCE853044
:1018400009F00ACE80912101887F90914103892B74
:101850008093210101CE461757070CF039CE83E063
:1018600090E0121613060CF03BCE82E090E038CEEA
:1018700084E090E035CEF801168257CEF7017082F1
:101880001582ABCE20E017CF21E030E03A832983E8
:101890005FCF82E090E09A8389835ACF3A8229828F
:1018A00057CF0E94BB032ACF87708230D9F04CF407
:1018B000882381F0813089F0CE0101960E94780161
:1018C0001DCF8330A1F08430B9F784E090E09A8393
:1018D0008983F2CF1A821982EFCFE1E0F0E0FA8338
:1018E000E983EACF22E030E03A832983E5CF3A82E8
:1018F0002982E2CF8F70082E000C990B9A8389837E
:10190000CE0101960E946A01F9CE0E946F036B011D
:101910007C018AE0482E512C612C712C0E946F03AF
:101920006C197D098E099F09683E734081059105F8
:10193000A8F391E0491A510861087108E8EECE0E4B
:10194000E3E0DE1EE11CF11C41145104610471044A
:1019500029F70E94C9048BCD8F929F92AF92BF92BC
:10196000CF92DF92EF92FF92CF93DF93EC016881E9
:1019700079818A819B81611571058105910521F429
:1019800064E279ED8BE597E02DE133EF41E050E043
:101990000E94060D49015A019B01AC01A7EAB1E47E
:1019A0000E94250D6B017C01ACEEB4EFA501940102
:1019B0000E94330DDC01CB018C0D9D1DAE1DBF1DA2
:1019C000B7FF03C00197A109B04888839983AA8310
:1019D000BB839F77DF91CF91FF90EF90DF90CF9007
:1019E000BF90AF909F908F9008950C94AC0C80E0C6
:1019F00092E00C94AC0CB0E0A0E0809300029093D5
:101A00000102A0930202B09303020895052E97FBF2
:101A10001EF400940E941D0D57FD07D00E94380D42
:101A200007FC03D04EF40C941D0D50954095309555
:101A300021953F4F4F4F5F4F08959095809570953A
:101A400061957F4F8F4F9F4F08950E945A0DA59F1C
:101A5000900DB49F900DA49F800D911D11240895A9
:101A6000B7FF0C94250D0E94250D821B930B089542
:101A7000A1E21A2EAA1BBB1BFD010DC0AA1FBB1F92
:101A8000EE1FFF1FA217B307E407F50720F0A21B04
:101A9000B30BE40BF50B661F771F881F991F1A9471
:101AA00069F760957095809590959B01AC01BD019B
:101AB000CF010895A29FB001B39FC001A39F700DF5
:101AC000811D1124911DB29F700D811D1124911D46
:101AD0000895EE0FFF1F881F8BBF0790F691E02D32
:061AE0001994F894FFCFF9
:101AE600010000001F002000210022002300240026
:101AF6002500260027002800020003000400050038
:101B0600414243444001020308000000005C04C651
:0C1B160003F303A90424040204160400D5
:00000001FF
