:100000000C9437010C9468010C9468010C946801FD
:100010000C9468010C9468010C9468010C946801BC
:100020000C9468010C9468010C9468010C946801AC
:100030000C9468010C9468010C9468010C9468019C
:100040000C9468010C9468010C9468010C9468018C
:100050000C9468010C9468010C9468010C94990547
:100060000C9468010C940D060C94E3050C94680143
:100070000C9468010C9468010C9468010C9468015C
:100080000C9443060C9468010C9468010C9468016C
:100090000C9468010C9468010C9468010C9468013C
:1000A0000C9468010C9468010C9468010C9468012C
:1000B0000C9468010C9468010C9468010C9468011C
:1000C0000C9468010C9468010C9468010C9468010C
:1000D0000C9468010C9468010C9468010C946801FC
:1000E0000C9468010C94D4040C94D7020C94EB0289
:1000F0000C946E070C94B4020C94B0020C94B802E9
:100100000C94BF020C944A040C9419040C94E5025C
:100110000C94EC030C94BC020C94D3020C94C50216
:100120000C943C040C94CF020C94C9020C94AA02C7
:100130000C9428040C94DD020C94EF020C94EA0257
:100140000C94E1020C9482040C942505000021001B
:10015000240027002A002D00300033000101000098
:10016000040107010A0100002200250028002B00DD
:100170002E003100340002010000050108010B01CE
:10018000000020002300260029002C002F00320050
:100190000001000003010601090105050505070529
:1001A00008080808020202020A0A080804040404F3
:1001B000010101010101010103030303030303031F
:1001C000040707070C0C0C0C0C0C0C0C02020202AE
:1001D00006060606060606060B0B0B0B0B0B0B0B97
:1001E0000102102020080810204010204080020149
:1001F000020108040201010204081020408080402E
:10020000201008040201800402018040201008042C
:1002100002010804020101020408102040800102CA
:1002200004081020408000000A0B02090C0D0E0883
:1002300007030401000000000000000000000000AF
:1002400000000000000000000000000000000000AE
:10025000000012111000000000000000000000006B
:100260000000000000000000000000006E071124E4
:100270001FBECFEFD1E2DEBFCDBF00E00CBF12E06A
:10028000A0E0B2E0EAEAF7E100E00BBF02C00790AD
:100290000D92A633B107D9F723E0A6E3B2E001C07F
:1002A0001D92A832B207E1F711E0C7E3D1E000E008
:1002B00006C021970109802FFE010E94CB0BC63397
:1002C000D10780E00807A9F70E94EC070C94D30B34
:1002D0000C940000FC01208131814FB7F89480918B
:1002E000450290914602A0914702B09148024FBF4B
:1002F00046E0429FF001439FF00D1124E351FD4F72
:1003000081839283A383B48381E0858308951092CF
:100310000C0310920D0310920E0310920F03FC01B8
:10032000808191818130910559F030F082309105C2
:1003300059F0039769F0089581E080930C030895C4
:1003400081E080930F03089581E080930D03089569
:1003500081E080930E0308952FB7F89480914502B1
:1003600090914602A0914702B09148022FBFE7E06A
:10037000F3E080839183A283B38381E08483089533
:100380008091180390911903A0911A03B0911B0357
:1003900020911103233009F47DC0ACF42130C9F160
:1003A000223009F457C08091180390911903A0914D
:1003B0001A03B0911B03892B8A2B8B2B19F481E034
:1003C000809310030895243009F485C0253059F72F
:1003D000AC01BD01009721E0A207B10520F04FEF6D
:1003E0005FEF60E070E05093290140932801841B87
:1003F000950BA60BB70B8093180390931903A0934A
:100400001A03B0931B038091730082608093730082
:10041000CACFAC01BD01009721E0A207B10520F0D1
:100420004FEF5FEF60E070E05093890040938800E9
:10043000841B950BA60BB70B80931803909319039D
:10044000A0931A03B0931B0380916F008260809386
:100450006F00A9CFAC01BD018F3F9105A105B1058A
:1004600029F020F04FEF50E060E070E04093B300DF
:10047000841B950BA60BB70B80931803909319035D
:10048000A0931A03B0931B03809170008260809345
:10049000700089CFAC01BD01009721E0A207B10532
:1004A00020F04FEF5FEF60E070E0509399004093D1
:1004B0009800841B950BA60BB70B809318039093A1
:1004C0001903A0931A03B0931B03809171008260FB
:1004D0008093710068CFAC01BD01009721E0A207B5
:1004E000B10520F04FEF5FEF60E070E05093A9009E
:1004F0004093A800841B950BA60BB70B80931803A1
:1005000090931903A0931A03B0931B038091720078
:1005100082608093720047CF8150823108F05AC0C8
:10052000E82FF0E08827E856FD4F8F4F0C94CB0B57
:10053000B802BC02AA02B002B402EA02BF02C502BB
:10054000C902CF02D302D702DD02E102EA02E502CC
:10055000EB02EF02809180008F77809380000895F6
:10056000809180008F7DF9CF80918000877FF5CFCB
:1005700084B58F7784BD089584B58F7DFBCF80913E
:10058000B0008F778093B00008958091B0008F7D88
:10059000F9CF809190008F7780939000089580919B
:1005A00090008F7DF9CF80919000877FF5CF80916B
:1005B000A0008F778093A00008958091A0008F7D88
:1005C000F9CF8091A000877FF5CF809120018F77B0
:1005D000809320010895809120018F7DF9CF809133
:1005E0002001877FF5CFCF93DF93282F30E0F901EB
:1005F000EA5DFD4F8491F901E052FE4FD491F9017B
:10060000E656FE4FC491CC23A1F081110E948C02CA
:10061000EC2FF0E0EE0FFF1FE058FE4FA591B491D4
:10062000EC91ED2381E090E009F480E0DF91CF913F
:10063000089580E090E0FACF1F93CF93DF93282FA7
:1006400030E0F901EA5DFD4F8491F901E052FE4F7F
:10065000D491F901E656FE4FC491CC23A9F0162F90
:1006600081110E948C02EC2FF0E0EE0FFF1FEA597F
:10067000FE4FA591B4918FB7F894EC91111108C079
:10068000D095DE23DC938FBFDF91CF911F9108952A
:10069000DE2BF8CFCF93DF9390E0FC01E052FE4FCA
:1006A000249186569E4FFC0184918823D1F090E0DE
:1006B000880F991FFC01E45BFE4FA591B491FC01EA
:1006C000EA59FE4FC591D49161110EC09FB7F894BD
:1006D0008C91E22FE0958E238C932881E223E8838E
:1006E0009FBFDF91CF9108958FB7F894EC91E22BE3
:1006F000EC938FBFF6CF90917B00977F90937B0018
:100700008653806480937C0080917A00806480931B
:100710007A0080917A0086FDFCCF809178009091DC
:10072000790008953FB7F894809141029091420278
:10073000A0914302B091440226B5A89B05C02F3F6B
:1007400019F00196A11DB11D3FBFBA2FA92F982FF7
:100750008827BC01CD01620F711D811D911D42E0F2
:10076000660F771F881F991F4A95D1F708958F92BA
:100770009F92AF92BF92CF92DF92EF92FF920E9430
:1007800092034B015C018AE0C82ED12CE12CF12CA4
:100790000E949203681979098A099B09683E73408F
:1007A00081059105A8F321E0C21AD108E108F108FA
:1007B00088EE880E83E0981EA11CB11CC114D104E0
:1007C000E104F10429F7FF90EF90DF90CF90BF9004
:1007D000AF909F908F900895AF92BF92CF92DF928B
:1007E000EF92FF920F931F93CF93DF936C017B01E6
:1007F0008B01040F151FEB015E01AE18BF08C01777
:10080000D10759F06991D601ED91FC910190F081E9
:10081000E02DC6011995892B79F7C501DF91CF919C
:100820001F910F91FF90EF90DF90CF90BF90AF900E
:100830000895FC01538D448D252F30E0842F90E0E6
:10084000821B930B541710F0CF96089501970895CB
:10085000FC01918D828D981761F0A28DAE0FBF2F94
:10086000B11D5D968C91928D9F5F9F73928F90E0EA
:1008700008958FEF9FEF0895FC01918D828D981759
:1008800031F0828DE80FF11D858D90E008958FEF96
:100890009FEF0895FC01918D228D892F90E0805C5F
:1008A0009F4F821B91098F739927089589E492E0E5
:1008B0000E944A0421E0892B09F420E0822F089548
:1008C000FC01A48DA80FB92FB11DA35ABF4F2C91C5
:1008D000848D90E001968F739927848FA689B789BC
:1008E0002C93A089B1898C91837080648C93938DB3
:1008F000848D981306C00288F389E02D80818F7D56
:1009000080830895EF92FF920F931F93CF93DF930D
:10091000EC0181E0888F9B8D8C8D98131AC0E8893B
:10092000F989808185FF15C09FB7F894EE89FF890A
:100930006083E889F98980818370806480839FBFA8
:1009400081E090E0DF91CF911F910F91FF90EF90A8
:100950000895F62E0B8D10E00F5F1F4F0F731127B8
:10096000E02E8C8D8E110CC00FB607FCFACFE889F3
:10097000F989808185FFF5CFCE010E946004F1CF17
:10098000EB8DEC0FFD2FF11DE35AFF4FF0829FB767
:10099000F8940B8FEA89FB8980818062CFCF682F22
:1009A00089E492E00C948204CF93DF93EC01888D6C
:1009B0008823B9F0AA89BB89E889F9898C9185FDDA
:1009C00003C0808186FD0DC00FB607FCF7CF8C9168
:1009D00085FFF2CF808185FFEDCFCE010E946004BC
:1009E000E9CFDF91CF91089580E090E0892B29F045
:1009F0000E94560481110E94000080E090E0892B43
:100A000049F080E090E0892B29F00E9400008111DC
:100A10000E94000080E090E0892B49F080E090E0A7
:100A2000892B29F00E94000081110E94000080E0C3
:100A300090E0892B49F080E090E0892B29F00E941A
:100A4000000081110C9400000895EF92FF920F9323
:100A50001F93CF93DF938091050390910603009736
:100A600009F049C060E085E00E941C032091050365
:100A70003091060303E012E0D0E0C0E046E0429F80
:100A8000C001439F900D11249C0123513D4F7901DA
:100A9000F80180810E5F1F4FF7012081022E000CAC
:100AA000330B61E02C173D0709F060E00E941C0346
:100AB0002196CA30D10561F7E0910503F091060354
:100AC000EE0FFF1FE95EFD4F61E080810E941C0375
:100AD00080910503909106030196843091059CF462
:100AE0009093060380930503DF91CF911F910F919F
:100AF000FF90EF900895880F991FFC01EB5EFD4F6A
:100B000060E08081B1CF1092060310920503ECCF14
:100B1000FC01208131812150310980E023303105F1
:100B200020F420503E4FD9018C9192819111846024
:100B300008951F920F920FB60F9211242F933F9397
:100B40008F939F93AF93BF938091450290914602FC
:100B5000A0914702B09148023091400223E0230F58
:100B60002D3758F50196A11DB11D209340028093A9
:100B7000450290934602A0934702B09348028091A9
:100B8000410290914202A0914302B0914402019629
:100B9000A11DB11D8093410290934202A093430294
:100BA000B0934402BF91AF919F918F913F912F914C
:100BB0000F900FBE0F901F90189526E8230F0296F6
:100BC000A11DB11DD2CF1F920F920FB60F9211240B
:100BD0000BB60F922F933F934F935F936F937F9337
:100BE0008F939F93AF93BF93EF93FF9389E492E02A
:100BF0000E946004FF91EF91BF91AF919F918F91FF
:100C00007F916F915F914F913F912F910F900BBE0C
:100C10000F900FBE0F901F9018951F920F920FB656
:100C20000F9211240BB60F922F938F939F93EF93F4
:100C3000FF93E0915902F0915A028081E0915F02A6
:100C4000F091600282FD1DC09081809162028F5FF1
:100C50008F7320916302821741F0E0916202F0E00D
:100C6000E75BFD4F958F80936202FF91EF919F911B
:100C70008F912F910F900BBE0F900FBE0F901F9072
:100C800018958081F2CF1F920F920FB60F92112408
:100C90000BB60F92CF92DF92EF92FF922F933F937A
:100CA0004F935F936F937F938F939F93AF93BF9374
:100CB000EF93FF93C0901C03D0901D03E0901E03A0
:100CC000F0901F0380911103833009F04DC0C114CF
:100CD000D104E104F10409F4D5C080911003882304
:100CE00009F45BC0E0912403F0912503309741F0B3
:100CF0008091260390912703009709F44CC0199521
:100D00008091140390911503A0911603B0911703DD
:100D10000097A140B105B4F0F8948091140390912C
:100D20001503A0911603B0911703809318039093B5
:100D30001903A0931A03B0931B030E94C0011092E1
:100D4000100378941C141D041E041F046CF481E02D
:100D5000C81AD108E108F108C0921C03D0921D0303
:100D6000E0921E03F0921F03FF91EF91BF91AF91AC
:100D70009F918F917F916F915F914F913F912F91B3
:100D8000FF90EF90DF90CF900F900BBE0F900FBEB3
:100D90000F901F9018951995B3CFF89420911103D7
:100DA0008091180390911903A0911A03B0911B032D
:100DB000223009F447C08F3F9F4FA105B10510F4C1
:100DC0000E94C0018091180390911903A0911A0309
:100DD000B0911B03AC01BD01009721E0A207B10552
:100DE00020F04FEF5FEF60E070E0841B950BA60BE7
:100DF000B70B8093180390931903A0931A03B09331
:100E00001B038091180390911903A0911A03B091CC
:100E10001B03892B8A2B8B2B91F5809114039091C6
:100E20001503A0911603B0911703809318039093B4
:100E30001903A0931A03B0931B0381E0809310035E
:100E4000789492CF8F3F9105A105B10510F40E94CF
:100E5000C0018091180390911903A0911A03B091D9
:100E60001B03AC01BD018F3F9105A105B10509F040
:100E700008F4BBCF4FEF50E060E070E0B6CF1092C7
:100E80001003DECFF894809111038330D9F054F42D
:100E9000813091F08230A1F6809170008D7F809337
:100EA0007000CECF8430A1F0853051F68091730070
:100EB0008D7F80937300C4CF80916F008D7F80936E
:100EC0006F00BECF809171008D7F80937100B8CF8D
:100ED000809172008D7F80937200B2CFE9E4F2E0DE
:100EE0001382128288EE93E0A0E0B0E084839583C1
:100EF000A683B78388E292E09183808385EC90E0BB
:100F00009587848784EC90E09787868780EC90E0D3
:100F1000918B808B81EC90E0938B828B82EC90E0C4
:100F2000958B848B86EC90E0978B868B118E128E3E
:100F3000138E148EE0E1F3E083E08183108A118A3E
:100F4000128A138A158A148A178A168A108281E0F7
:100F500090E0938382831482158216821782108612
:100F60001186128613868FEF9FEFDC0184879587A9
:100F7000A687B787ECE0F3E0108211821282138219
:100F8000E7E0F3E010821182128213821482EDEE08
:100F9000F2E08BE080831182128213821482158228
:100FA000868317821086118612861386848715869B
:100FB00016861786108A118A828B138A148A158ADC
:100FC000168A178A118E108EE6EEF2E011821082D8
:100FD0001382128214820895CF93DF9300D0CDB78D
:100FE000DEB7789484B5826084BD84B5816084BDA9
:100FF00085B5826085BD85B5816085BD80916E00B7
:10100000816080936E0010928100809181008260E7
:101010008093810080918100816080938100809124
:1010200080008160809380008091B1008460809313
:10103000B1008091B00081608093B00080919100F8
:1010400082608093910080919100816080939100F3
:10105000809190008160809390008091A1008260D7
:101060008093A1008091A10081608093A100809174
:10107000A00081608093A000809121018260809314
:1010800021018091210181608093210180912001C3
:1010900081608093200180917A00846080937A003F
:1010A00080917A00826080937A0080917A008160DA
:1010B00080937A0080917A00806880937A00109201
:1010C000C100E0915902F0915A0282E08083E091E0
:1010D0005502F09156021082E0915702F0915802A9
:1010E0008FEC808310926102E0915D02F0915E02CC
:1010F00086E08083E0915B02F0915C0280818061F8
:101100008083E0915B02F0915C0280818860808343
:10111000E0915B02F0915C02808180688083E091C5
:101120005B02F0915C0280818F7D808360E081E1D1
:101130000E944A0360E080E10E944A0360E083E18C
:101140000E944A0360E082E10E944A0361E08BE072
:101150000E944A0361E08AE00E944A0361E089E05C
:101160000E944A0361E088E00E944A0361E087E050
:101170000E944A0361E08FE10E944A0361E080E23D
:101180000E944A0361E081E20E944A0361E082E238
:101190000E944A0361E083E20E944A0361E084E224
:1011A0000E944A0361E085E20E944A0361E086E210
:1011B0000E944A0361E087E20E944A0361E088E2FC
:1011C0000E944A0361E082E00E944A0361E083E0FA
:1011D0000E944A0361E084E00E944A0361E085E0E6
:1011E0000E944A0360E087E30E944A0360E086E3CE
:1011F0000E944A0360E086E00E944A038091110346
:10120000F894833009F417C20CF0E2C1813009F47C
:10121000F4C1823009F400C2809311037894809164
:10122000110318160CF04EC08FEF9FEFDC01809376
:101230001C0390931D03A0931E03B0931F038FE71D
:101240009BEBA0E0B0E08093140390931503A09370
:101250001603B09317038093180390931903A09378
:101260001A03B0931B0381E090E0909313038093E3
:101270001203F8948BEA9AEAA6EAB3E48093200377
:1012800090932103A0932203B093230385E295E07A
:101290009093250380932403109227031092260332
:1012A0001092100380911103823009F0E2C1809105
:1012B000B100887F90911203892B8093B1000E9426
:1012C000C0017894EE24E394F12C32E0C32ED12CAB
:1012D00043E0A42EB12C54EF452E55245394612C99
:1012E000712C64E0862E912C81E10E94F30221E0B2
:1012F000892B09F020E020933F0280E10E94F30255
:1013000021E0892B09F020E020933D0283E10E9437
:10131000F30221E0892B09F020E020933B0282E1D7
:101320000E94F30221E0892B09F020E0209339028A
:1013300086E00E94F30286E30E947B039093E90219
:101340008093E80287E30E947B032091E8023091BA
:10135000E90232503093E9022093E80292509093D0
:10136000E7028093E602B90137FF04C066277727BA
:10137000621B730BAC0197FF04C044275527481B21
:10138000590B6B3471050CF0A1C14B3451050CF4B1
:10139000AAC131E020E0181619060CF030E0832FC6
:1013A000922F2091EB023091EC022817390739F087
:1013B0009093EC028093EB0221E02093EA020DEE81
:1013C00012E02FB7F8946091450270914602809127
:1013D0004702909148022FBFF80125812223A1F0F6
:1013E0002181328143815481621B730B840B950BE5
:1013F0006938F3E17F078105910530F4A30192017B
:101400000E94A90BF80120830A5F1F4FF3E005300B
:101410001F07B9F62FB7F8948091450290914602C4
:10142000A0914702B09148022FBF4091070350910D
:1014300008036091090370910A03841B950BA60BA6
:10144000B70B883E9340A105B10528F480910B03AA
:1014500061E0811101C060E087E00E941C0360919F
:101460000C038BE00E941C0360910D038AE00E9434
:101470001C0360910E0389E00E941C0360910F031E
:1014800088E00E941C0320903F0280913E022816B3
:1014900081F0222071F01A8219821B82CE010196FE
:1014A0000E948805082E000C990B0E94CF040E9410
:1014B000B70330903D0280913C02381681F0332012
:1014C00071F0FA82E9821B82CE0101960E948805A2
:1014D000082E000C990B0E94CF040E94B7030091C4
:1014E0003B0280913A02081781F0002371F0DA8202
:1014F000C9821B82CE0101960E948805082E000C2D
:10150000990B0E94CF040E94B70310913902809179
:101510003802181781F0112371F0BA82A9821B8258
:10152000CE0101960E948805082E000C990B0E949E
:10153000CF040E94B70320923E0230923C020093F7
:101540003A02109338028091EA02882399F01092AF
:10155000EA028091EB029091EC028530910508F04F
:10156000C5C0815E9D4FFC018081082E000C990B47
:101570000E94CF0489E492E00E944A04892B09F476
:10158000E3C089E492E00E942804282F082E000C72
:10159000330B96E0359527959A95E1F72370213026
:1015A00009F4AFC0223009F4AFC02111E3CF83703A
:1015B000823009F4A0C0833009F4A0C0813009F45E
:1015C00097C01A821982CE0101960E946A01D2CF79
:1015D000843009F43FC0853009F01ECE10922001FE
:1015E0001092210190912101986090932101909196
:1015F00021019160909321010FCE109280001092F2
:101600008100909181009860909381009091810079
:1016100091609093810000CE1092B0001092B100C2
:101620009091B00092609093B0009091B100916061
:101630009093B100F1CD1092900010929100909192
:101640009100986090939100909191009160909397
:101650009100E2CD1092A0001092A1009091A10003
:1016600098609093A1009091A10091609093A10047
:10167000D3CD813049F480918100887F909112030D
:10168000892B809381001BCE833049F48091910097
:10169000887F90911203892B8093910010CE843023
:1016A00049F48091A100887F90911203892B809347
:1016B000A10005CE853009F002CE80912101887FFE
:1016C00090911203892B80932101F9CD461757077A
:1016D0000CF05FCE83E090E0121613060CF061CEA2
:1016E00082E090E05ECE84E090E05BCE80E43DCF8F
:1016F000FA82E98268CFDA82C98265CFBA82A9828A
:1017000062CF0E94AC0136CF87708230B9F04CF4C2
:10171000882371F0813079F0CE0101960E94870113
:1017200029CF833071F08430B9F79A828982F4CF5F
:101730001A821982F1CFFA82E982EECFDA82C98267
:10174000EBCFBA82A982E8CF0E94B7030E94F404CB
:10175000CBCDA1E21A2EAA1BBB1BFD010DC0AA1FF7
:10176000BB1FEE1FFF1FA217B307E407F50720F00A
:10177000A21BB30BE40BF50B661F771F881F991F85
:101780001A9469F760957095809590959B01AC01CE
:10179000BD01CF010895EE0FFF1F881F8BBF07907B
:0A17A000F691E02D1994F894FFCFA4
:1017AA000102031F0020002100220023002400253B
:1017BA00002600270028000200030004000500415B
:1017CA0042434440000000008204EC031904D4049C
:0617DA004A0428043C044F
:00000001FF
