:100000000C9437010C9468010C9468010C946801FD
:100010000C9468010C9468010C9468010C946801BC
:100020000C9468010C9468010C9468010C946801AC
:100030000C9468010C9468010C9468010C9468019C
:100040000C9468010C9468010C9468010C9468018C
:100050000C9468010C9468010C9468010C94D4050C
:100060000C9468010C9448060C941E060C946801CC
:100070000C9468010C9468010C9468010C9468015C
:100080000C947E060C9468010C9468010C94680131
:100090000C9468010C9468010C9468010C9468013C
:1000A0000C9468010C9468010C9468010C9468012C
:1000B0000C9468010C9468010C9468010C9468011C
:1000C0000C9468010C9468010C9468010C9468010C
:1000D0000C9468010C9468010C9468010C946801FC
:1000E0000C9468010C94F2020C94D6020C94F50363
:1000F0000C94FB020C94EE020C94F6020C94040493
:100100000C94A9070C94E0020C94E4020C942604CD
:100110000C94E8020C94FC040C94C9020C940003A7
:100120000C94CD020C94DA020C945E040C94C80377
:100130000C94AB040C94FC020C94C5020C94C10208
:100140000C94D0020C94BB020C9418040000210003
:10015000240027002A002D00300033000101000098
:10016000040107010A0100002200250028002B00DD
:100170002E003100340002010000050108010B01CE
:10018000000020002300260029002C002F00320050
:100190000001000003010601090105050505070529
:1001A00008080808020202020A0A080804040404F3
:1001B000010101010101010103030303030303031F
:1001C000040707070C0C0C0C0C0C0C0C02020202AE
:1001D00006060606060606060B0B0B0B0B0B0B0B97
:1001E0000102102020080810204010204080020149
:1001F000020108040201010204081020408080402E
:10020000201008040201800402018040201008042C
:1002100002010804020101020408102040800102CA
:1002200004081020408000000A0B02090C0D0E0883
:1002300007030401000000000000000000000000AF
:1002400000000000000000000000000000000000AE
:10025000000012111000000000000000000000006B
:10026000000000000000000000000000A9071124A9
:100270001FBECFEFD1E2DEBFCDBF00E00CBF12E06A
:10028000A0E0B2E0EAE4F9E100E00BBF02C00790B1
:100290000D92A833B107D9F723E0A8E3B2E001C07B
:1002A0001D92AA34B207E1F711E0C7E3D1E000E004
:1002B00006C021970109802FFE010E949B0CC633C6
:1002C000D10780E00807A9F70E94AF080C94A30C9F
:1002D0000C94000010922603FC01208131814FB75D
:1002E000F89480913D0290913E02A0913F02B0911E
:1002F00040024FBF47E0429FF001439FF00D1124A1
:10030000E85FFC4F81839283A383B48381E085837C
:1003100016820895E8E0F3E021E0268FDC018D915C
:100320009C9190A3878F15821486138A128E08954C
:1003300010922E0310922F0310923003109231036B
:10034000FC01808191818130910559F030F082303B
:10035000910559F0039769F0089581E080932E0389
:10036000089581E080933103089581E080932F0305
:10037000089581E08093300308952FB7F894809119
:100380003D0290913E02A0913F02B09140022FBFEA
:10039000E9E2F3E080839183A283B38381E08483E5
:1003A000089580913A0390913B03A0913C03B09152
:1003B0003D0320913303233009F47DC0ACF4213098
:1003C000C9F1223009F457C080913A0390913B0360
:1003D000A0913C03B0913D03892B8A2B8B2B19F400
:1003E00081E0809332030895243009F485C02530DC
:1003F00059F7AC01BD01009721E0A207B10520F03B
:100400004FEF5FEF60E070E05093290140932801C7
:10041000841B950BA60BB70B80933A0390933B0379
:10042000A0933C03B0933D0380917300826080935E
:100430007300CACFAC01BD01009721E0A207B1054E
:1004400020F04FEF5FEF60E070E050938900409341
:100450008800841B950BA60BB70B80933A039093EF
:100460003B03A0933C03B0933D0380916F008260F7
:1004700080936F00A9CFAC01BD018F3F9105A1050D
:10048000B10529F020F04FEF50E060E070E04093BC
:10049000B300841B950BA60BB70B80933A03909384
:1004A0003B03A0933C03B0933D03809170008260B6
:1004B0008093700089CFAC01BD01009721E0A207B5
:1004C000B10520F04FEF5FEF60E070E050939900CE
:1004D00040939800841B950BA60BB70B80933A03AF
:1004E00090933B03A0933C03B0933D038091710034
:1004F00082608093710068CFAC01BD01009721E05C
:10050000A207B10520F04FEF5FEF60E070E050937D
:10051000A9004093A800841B950BA60BB70B8093F2
:100520003A0390933B03A0933C03B0933D03809127
:10053000720082608093720047CF8150823108F050
:100540005AC0E82FF0E08827E755FD4F8F4F0C94F5
:100550009B0CC902CD02BB02C102C502FB02D00244
:10056000D602DA02E002E402E802EE02F202FB0244
:10057000F602FC020003809180008F778093800058
:100580000895809180008F7DF9CF80918000877FD2
:10059000F5CF84B58F7784BD089584B58F7DFBCF6B
:1005A0008091B0008F778093B00008958091B00063
:1005B0008F7DF9CF809190008F7780939000089580
:1005C000809190008F7DF9CF80919000877FF5CF4B
:1005D0008091A0008F778093A00008958091A00063
:1005E0008F7DF9CF8091A000877FF5CF809120018A
:1005F0008F77809320010895809120018F7DF9CF1E
:1006000080912001877FF5CFCF93DF93282F30E0B3
:10061000F901EA5DFD4F8491F901E052FE4FD4915A
:10062000F901E656FE4FC491CC23A1F081110E943E
:100630009D02EC2FF0E0EE0FFF1FE058FE4FA5915A
:10064000B491EC91ED2381E090E009F480E0DF913A
:10065000CF91089580E090E0FACF1F93CF93DF937E
:10066000282F30E0F901EA5DFD4F8491F901E05255
:10067000FE4FD491F901E656FE4FC491CC23A9F068
:10068000162F81110E949D02EC2FF0E0EE0FFF1F4C
:10069000EA59FE4FA591B4918FB7F894EC911111DE
:1006A00008C0D095DE23DC938FBFDF91CF911F91DF
:1006B0000895DE2BF8CFCF93DF9390E0FC01E0525A
:1006C000FE4F249186569E4FFC0184918823D1F0E1
:1006D00090E0880F991FFC01E45BFE4FA591B49157
:1006E000FC01EA59FE4FC591D49161110EC09FB72C
:1006F000F8948C91E22FE0958E238C932881E2234D
:10070000E8839FBFDF91CF9108958FB7F894EC9164
:10071000E22BEC938FBFF6CF90917B00977F909365
:100720007B008653806480937C0080917A00806493
:1007300080937A0080917A0086FDFCCF80917800CA
:100740009091790008953FB7F89480913902909183
:100750003A02A0913B02B0913C0226B5A89B05C08D
:100760002F3F19F00196A11DB11D3FBFBA2FA92F30
:10077000982F8827BC01CD01620F711D811D911D2D
:1007800042E0660F771F881F991F4A95D1F7089599
:10079000AF92BF92CF92DF92EF92FF920F931F938F
:1007A000CF93DF936C017B018B01040F151FEB01CD
:1007B0005E01AE18BF08C017D10759F06991D60184
:1007C000ED91FC910190F081E02DC6011995892BE6
:1007D00079F7C501DF91CF911F910F91FF90EF90B5
:1007E000DF90CF90BF90AF900895FC01538D448D62
:1007F000252F30E0842F90E0821B930B541710F0CC
:10080000CF96089501970895FC01918D828D9817D8
:1008100061F0A28DAE0FBF2FB11D5D968C91928DB0
:100820009F5F9F73928F90E008958FEF9FEF0895E1
:10083000FC01918D828D981731F0828DE80FF11DAA
:10084000858D90E008958FEF9FEF0895FC01918DC5
:10085000228D892F90E0805C9F4F821B91098F73BE
:100860009927089581E492E00E94260421E0892BD3
:1008700009F420E0822F0895FC01A48DA80FB92F60
:10088000B11DA35ABF4F2C91848D90E001968F73B8
:100890009927848FA689B7892C93A089B1898C91D7
:1008A000837080648C93938D848D981306C0028826
:1008B000F389E02D80818F7D80830895EF92FF92F0
:1008C0000F931F93CF93DF93EC0181E0888F9B8D73
:1008D0008C8D98131AC0E889F989808185FF15C02D
:1008E0009FB7F894EE89FF896083E889F989808150
:1008F0008370806480839FBF81E090E0DF91CF911F
:100900001F910F91FF90EF900895F62E0B8D10E040
:100910000F5F1F4F0F731127E02E8C8D8E110CC0AF
:100920000FB607FCFACFE889F989808185FFF5CFFA
:10093000CE010E943C04F1CFEB8DEC0FFD2FF11D99
:10094000E35AFF4FF0829FB7F8940B8FEA89FB8937
:1009500080818062CFCFCF93DF93EC01888D882395
:10096000B9F0AA89BB89E889F9898C9185FD03C012
:10097000808186FD0DC00FB607FCF7CF8C9185FFF7
:10098000F2CF808185FFEDCFCE010E943C04E9CFFC
:10099000DF91CF91089580E090E0892B29F00E94AB
:1009A000320481110E94000080E090E0892B49F020
:1009B00080E090E0892B29F00E94000081110E94C4
:1009C000000080E090E0892B49F080E090E0892BE6
:1009D00029F00E94000081110E94000080E090E058
:1009E000892B49F080E090E0892B29F00E940000DB
:1009F00081110C9400000895EF92FF920F931F93C2
:100A0000CF93DF938091240390912503009709F001
:100A100097C060E085E00E942D0380912603882323
:100A200009F496C061E080912703909128030A970A
:100A30000CF460E08FE10E942D0361E080912703B8
:100A40009091280309970CF460E080E20E942D0346
:100A500061E0809127039091280308970CF460E0EF
:100A600081E20E942D0361E0809127039091280389
:100A700007970CF460E082E20E942D0361E0809110
:100A800027039091280306970CF460E083E20E940C
:100A90002D0361E0809127039091280305970CF4C2
:100AA00060E084E20E942D0361E080912703909131
:100AB000280304970CF460E085E20E942D0361E0B6
:100AC000809127039091280303970CF460E086E25D
:100AD0000E942D0361E080912703909128030297E3
:100AE0000CF460E087E20E942D0361E0809127030F
:100AF00090912803181619060CF060E088E20E9415
:100B00002D03E0912403F0912503EE0FFF1FEC5E0F
:100B1000FD4F61E080810E942D038091240390911C
:100B20002503019684309105D4F590932503809395
:100B30002403DF91CF911F910F91FF90EF900895C3
:100B4000880F991FFC01EE5EFD4F60E0808163CF4E
:100B5000209124033091250300E012E0D0E0C0E0B2
:100B600047E0429FC001439F900D11249C01285FE4
:100B70003C4F7901F80180810E5F1F4FF701208102
:100B8000022E000C330B61E02C173D0709F060E0EA
:100B90000E942D032196CA30D10561F7B2CF109281
:100BA000250310922403C5CF1F920F920FB60F9208
:100BB00011242F933F938F939F93AF93BF93809173
:100BC0003D0290913E02A0913F02B09140023091CF
:100BD000380223E0230F2D3758F50196A11DB11DD2
:100BE0002093380280933D0290933E02A0933F02EF
:100BF000B09340028091390290913A02A0913B0259
:100C0000B0913C020196A11DB11D809339029093D1
:100C10003A02A0933B02B0933C02BF91AF919F91E7
:100C20008F913F912F910F900FBE0F901F901895AD
:100C300026E8230F0296A11DB11DD2CF1F920F925D
:100C40000FB60F9211240BB60F922F933F934F9331
:100C50005F936F937F938F939F93AF93BF93EF9324
:100C6000FF9381E492E00E943C04FF91EF91BF91D9
:100C7000AF919F918F917F916F915F914F913F9134
:100C80002F910F900BBE0F900FBE0F901F901895D5
:100C90001F920F920FB60F9211240BB60F922F9343
:100CA0008F939F93EF93FF93E0915102F091520243
:100CB0008081E0915702F091580282FD1DC0908121
:100CC00080915A028F5F8F7320915B02821741F0EF
:100CD000E0915A02F0E0EF5BFD4F958F80935A024E
:100CE000FF91EF919F918F912F910F900BBE0F90DD
:100CF0000FBE0F901F9018958081F2CF1F920F9218
:100D00000FB60F9211240BB60F92CF92DF92EF9293
:100D1000FF922F933F934F935F936F937F938F93A4
:100D20009F93AF93BF93EF93FF93C0903E03D090F8
:100D30003F03E0904003F090410380913303833000
:100D400009F04DC0C114D104E104F10409F4D5C087
:100D500080913203882309F45BC0E0914603F0914F
:100D60004703309741F080914803909149030097E1
:100D700009F44CC019958091360390913703A091E6
:100D80003803B09139030097A140B105B4F0F8944D
:100D90008091360390913703A0913803B0913903C5
:100DA00080933A0390933B03A0933C03B0933D039D
:100DB0000E94D1011092320378941C141D041E0469
:100DC0001F046CF481E0C81AD108E108F108C09250
:100DD0003E03D0923F03E0924003F0924103FF9123
:100DE000EF91BF91AF919F918F917F916F915F91A3
:100DF0004F913F912F91FF90EF90DF90CF900F9008
:100E00000BBE0F900FBE0F901F9018951995B3CF82
:100E1000F8942091330380913A0390913B03A09181
:100E20003C03B0913D03223009F447C08F3F9F4FF0
:100E3000A105B10510F40E94D10180913A0390916F
:100E40003B03A0913C03B0913D03AC01BD01009771
:100E500021E0A207B10520F04FEF5FEF60E070E006
:100E6000841B950BA60BB70B80933A0390933B031F
:100E7000A0933C03B0933D0380913A0390913B03D0
:100E8000A0913C03B0913D03892B8A2B8B2B91F5CC
:100E90008091360390913703A0913803B0913903C4
:100EA00080933A0390933B03A0933C03B0933D039C
:100EB00081E080933203789492CF8F3F9105A10512
:100EC000B10510F40E94D10180913A0390913B0347
:100ED000A0913C03B0913D03AC01BD018F3F910552
:100EE000A105B10509F008F4BBCF4FEF50E060E079
:100EF00070E0B6CF10923203DECFF89480913303C6
:100F00008330D9F054F4813091F08230A1F6809191
:100F100070008D7F80937000CECF8430A1F085303B
:100F200051F6809173008D7F80937300C4CF8091C0
:100F30006F008D7F80936F00BECF809171008D7F99
:100F400080937100B8CF809172008D7F8093720082
:100F5000B2CF109244021092430288EE93E0A0E0D8
:100F6000B0E08093450290934602A0934702B0936D
:100F7000480289E292E0909342028093410285EC1C
:100F800090E090934E0280934D0284EC90E0909319
:100F9000500280934F0280EC90E090935202809335
:100FA000510281EC90E0909354028093530282ECC2
:100FB00090E0909356028093550286EC90E09093D7
:100FC00058028093570210925A0210925B021092BC
:100FD0005C0210925D0283E080933303109242031F
:100FE000109243031092440310924503109247035A
:100FF0001092460310924903109248031092320354
:1010000081E090E09093350380933403109236038F
:1010100010923703109238031092390310923A035A
:1010200010923B0310923C0310923D038FEF9FEF11
:10103000DC0180933E0390933F03A0934003B09361
:10104000410310922E0310922F031092300310923E
:1010500031031092290310922A0310922B0310924D
:101060002C0310922D03E8E0F3E08BE080831182E3
:1010700012821382148215821682379693E0E4322C
:10108000F907A1F71092250310922403109226036A
:10109000109228031092270310920203109201036A
:1010A0001092040310920303109205031092DF02C2
:1010B0001092DE0281E190E09093E1028093E002E1
:1010C0001092E2021092E4021092E30281E090E0BA
:1010D0009093E6028093E50280E190E09093E8022D
:1010E0008093E7021092E9021092EB021092EA025A
:1010F00082E090E09093ED028093EC0283E190E037
:101100009093EF028093EE021092F0021092F2029E
:101110001092F10283E090E09093F4028093F30246
:1011200082E190E09093F6028093F5021092F7022C
:101130001092F9021092F80284E090E09093FB0282
:101140008093FA0286E090E09093FD028093FC0287
:101150001092FE02109200031092FF020895CF93A6
:10116000DF931F921F92CDB7DEB7789484B582606B
:1011700084BD84B5816084BD85B5826085BD85B53B
:10118000816085BD80916E00816080936E001092B9
:101190008100809181008260809381008091810034
:1011A00081608093810080918000816080938000C5
:1011B0008091B10084608093B1008091B000816023
:1011C0008093B00080919100826080939100809123
:1011D0009100816080939100809190008160809364
:1011E00090008091A10082608093A1008091A10075
:1011F00081608093A1008091A00081608093A00015
:101200008091210182608093210180912101816080
:101210008093210180912001816080932001809141
:101220007A00846080937A0080917A008260809353
:101230007A0080917A00816080937A0080917A00B0
:10124000806880937A001092C100E0915102F09181
:10125000520282E08083E0914D02F0914E021082B2
:10126000E0914F02F09150028FEC8083109259026E
:10127000E0915502F091560286E08083E09153029E
:10128000F0915402808180618083E0915302F0915B
:101290005402808188608083E0915302F09154026F
:1012A000808180688083E0915302F09154028081B4
:1012B0008F7D808361E08BE00E945B0361E088E0CA
:1012C0000E945B0361E089E00E945B0361E08AE0C9
:1012D0000E945B0361E087E00E945B0361E08FE1B5
:1012E0000E945B0361E080E20E945B0361E081E2B7
:1012F0000E945B0361E082E20E945B0361E083E2A3
:101300000E945B0361E084E20E945B0361E085E28E
:101310000E945B0361E086E20E945B0361E087E27A
:101320000E945B0361E088E20E945B0361E082E06F
:101330000E945B0361E083E00E945B0361E084E064
:101340000E945B0361E085E00E945B0360E087E34D
:101350000E945B0360E086E30E945B03AAEFEA2E33
:10136000A2E0FA2E0EED12E060E0F80182810E9408
:101370005B03095F1F4FE016F106B1F760E086E0FE
:101380000E945B0380913303F894833009F4EDC12C
:101390000CF0B8C1813009F4CAC1823009F4D6C159
:1013A0008093330378948091330318160CF04EC069
:1013B0008FEF9FEFDC0180933E0390933F03A09358
:1013C0004003B09341038FE79BEBA0E0B0E0809334
:1013D000360390933703A0933803B0933903809377
:1013E0003A0390933B03A0933C03B0933D0381E009
:1013F00090E09093350380933403F8948BEA9AEA53
:10140000A6EAB3E48093420390934303A09344037A
:10141000B09345038CEF94E0909347038093460389
:1014200010924903109248031092320380913303C3
:10143000823009F0B8C18091B100887F9091340367
:10144000892B8093B1000E94D101789472E0272EFD
:10145000312CE3E08E2E912CAA24A394B12C86E0AB
:101460000E94040386E30E948C03909304038093FC
:10147000030387E30E948C0320910303309104034C
:10148000325030930403209303039250909302034D
:1014900080930103B90137FF04C066277727621BD9
:1014A000730BAC0197FF04C044275527481B590B09
:1014B0006B3471050CF0A4C14B3451050CF4ADC173
:1014C00031E020E0181619060CF030E0832F922F3F
:1014D00020910603309107032817390739F09093BC
:1014E000070380930603F1E0F09305030EED12E08D
:1014F000F80182810E9404039C0191E021153105CD
:1015000009F090E0F80194838581981709F488C167
:10151000232B09F085C121E02683F8019583095F1B
:101520001F4FF3E001301F0719F780912603811147
:1015300037C048E0E42E43E0F42E54E2652E53E039
:10154000752E6BE0C62E2FB7F89460913D02709116
:101550003E0280913F02909140022FBFF70125810A
:10156000222309F460C12181328143815481621BAD
:10157000730B840B950B693EF3E07F0781059105A2
:1015800008F051C124E630E040E050E00E94790CC0
:10159000F7012083F7E0EF0EF11C6E147F0499F63B
:1015A0002FB7F89480913D0290913E02A0913F02A6
:1015B000B09140022FBF4091290350912A036091BE
:1015C0002B0370912C03841B950BA60BB70B8A3F42
:1015D0009105A105B10528F480912D0361E08111E9
:1015E00001C060E087E00E942D0360912E038BE034
:1015F0000E942D0360912F0388E00E942D036091CB
:10160000300389E00E942D03609131038AE00E943B
:101610002D0380910503882391F01092050380919A
:1016200006039091070360E48530910520F4845E01
:101630009D4FFC01608181E492E00E945E042EEDEA
:10164000E22E22E0F22E37E0C32EF70186818823B6
:1016500021F180819181C89EF001C99EF00D112475
:10166000E85FFC4F20812B300CF0E1C02581222364
:1016700029F036813111DBC031E03683019760E01B
:101680008430910520F48F5D9D4FFC016081211114
:10169000646081E492E00E945E04F7E0EF0EF11CCA
:1016A0000E151F0591F681E492E00E942604892B15
:1016B00009F4F8C081E492E00E940404282F082E67
:1016C000000C330B96E0359527959A95E1F723703A
:1016D000223009F4BAC0233009F4D9C0213009F40A
:1016E000B1C08370823009F4A7C0833009F4A7C069
:1016F000813009F49EC01A821982CE0101960E949F
:101700006A01D1CF843009F43FC0853009F048CE5A
:1017100010922001109221019091210198609093E4
:1017200021019091210191609093210139CE109275
:1017300080001092810090918100986090938100C8
:10174000909181009160909381002ACE1092B00018
:101750001092B1009091B00092609093B00090917F
:10176000B10091609093B1001BCE10929000109246
:1017700091009091910098609093910090919100C8
:101780009160909391000CCE1092A0001092A10055
:101790009091A10098609093A1009091A100916018
:1017A0009093A100FDCD813049F480918100887F24
:1017B00090913403892B8093810045CE833049F486
:1017C00080919100887F90913403892B80939100C0
:1017D0003ACE843049F48091A100887F90913403FF
:1017E000892B8093A1002FCE853009F02CCE8091DB
:1017F0002101887F90913403892B8093210123CE8E
:10180000461757070CF05CCE83E090E012161306E3
:101810000CF05ECE82E090E05BCE84E090E058CEAB
:10182000F80116827ACEF701C0821582B3CE20E08D
:1018300025CFBA82A98261CF3A8229825ECF9A826D
:1018400089825BCF0E94BD012ECF87708230C9F0A4
:101850004CF4882381F0813089F0CE0101960E94FA
:10186000980121CF833081F08430B9F724E030E053
:101870003A832983F2CF1A821982EFCFBA82A982E2
:10188000ECCF3A822982E9CF9A828982E6CF8F70A3
:10189000082E000C990B9A838983CE0101960E9431
:1018A0008A0101CF0E94A3032B013C018AE0C82ECC
:1018B000D12CE12CF12C0E94A3036419750986092F
:1018C0009709683E734081059105A8F331E0C31A7A
:1018D000D108E108F10888EE480E83E0581E611C2B
:1018E000711CC114D104E104F10429F70E94CB0456
:1018F000B6CDA1E21A2EAA1BBB1BFD010DC0AA1F6B
:10190000BB1FEE1FFF1FA217B307E407F50720F068
:10191000A21BB30BE40BF50B661F771F881F991FE3
:101920001A9469F760957095809590959B01AC012C
:10193000BD01CF010895EE0FFF1F881F8BBF0790D9
:0A194000F691E02D1994F894FFCF02
:10194A001F00200021002200230024002500260079
:10195A002700280002000300040005004142434416
:10196A004001020308000000005E04C803F503AB4F
:08197A00042604040418040013
:00000001FF
