:100000000C9459010C948A010C948A010C948A0175
:100010000C948A010C948A010C948A010C948A0134
:100020000C948A010C948A010C948A010C948A0124
:100030000C948A010C948A010C948A010C948A0114
:100040000C948A010C948A010C948A010C948A0104
:100050000C948A010C948A010C948A010C94400E31
:100060000C948A010C94B40E0C948A0E0C948A01A0
:100070000C948A010C948A010C948A010C948A01D4
:100080000C948A010C948A010C948A010C948A01C4
:100090000C948A010C948A010C948A010C948A01B4
:1000A0000C948A010C948A010C948A010C948A01A4
:1000B0000C948A010C948A010C948A010C948A0194
:1000C0000C948A010C948A010C948A010C948A0184
:1000D0000C948A010C948A010C948A010C948A0174
:1000E0000C948A010C94EA010C94B4010C94BC01A8
:1000F0000C94F0020C94C9010C9492020C945211CD
:100100000C94DD010C94CF010C94B8010C94D70130
:100110000C94AA010C9475030C94EF010C94EB0160
:100120000C94C5010C94E1010C94BF010C94BF0226
:100130000C94D3010C94E5010C94E2020C94CE02D1
:100140000C9428030C94B0010000803FCDCCCC3D32
:100150006F12833A95BFD6337D1D9026B3CE010C26
:1001600000002100240027002A002D003000330069
:1001700001010000040107010A010000220025001E
:1001800028002B002E003100340002010000050180
:1001900008010B01000020002300260029002C008C
:1001A0002F003200000100000301060109010505CE
:1001B0000505070508080808020202020A0A0808DD
:1001C000040404040101010101010101030303030B
:1001D00003030303040707070C0C0C0C0C0C0C0C9A
:1001E0000202020206060606060606060B0B0B0BAB
:1001F0000B0B0B0B010210202008081020401020D0
:1002000040800201020108040201010204081020DA
:1002100040808040201008040201800402018040D8
:100220002010080402010804020101020408102041
:100230004080010204081020408000000A0B0209DF
:100240000C0D0E0807030401000000000000000070
:10025000000000000000000000000000000000009E
:10026000000000000000121110000000000000005B
:10027000000000000000000000000000000000007E
:10028000000020410000C84200401C4620BCBE4C7B
:10029000CA1B0E5AAEC59D74CDCCCC3D0AD7233CAB
:1002A00017B7D13877CC2B329595E6241FB14F0A7A
:1002B000521111241FBECFEFD1E2DEBFCDBF00E04F
:1002C0000CBF23E0A8EEB2E001C01D92A83CB2072B
:1002D000E1F712E0A0E0B2E0E6E7F7E200E00BBFF2
:1002E00002C007900D92A83EB107D9F711E0C9E509
:1002F000D1E000E006C021970109802FFE010E9495
:100300000713C835D10780E00807A9F70E94EA0E55
:100310000C94B9130C9400008150823108F05AC03B
:10032000E82FF0E08827E856FE4F8F4F0C94071314
:10033000B801BC01AA01B001B401EA01BF01C501C5
:10034000C901CF01D301D701DD01E101EA01E501D6
:10035000EB01EF01809180008F77809380000895FA
:10036000809180008F7DF9CF80918000877FF5CFCD
:1003700084B58F7784BD089584B58F7DFBCF809140
:10038000B0008F778093B00008958091B0008F7D8A
:10039000F9CF809190008F7780939000089580919D
:1003A00090008F7DF9CF80919000877FF5CF80916D
:1003B000A0008F778093A00008958091A0008F7D8A
:1003C000F9CF8091A000877FF5CF809120018F77B2
:1003D000809320010895809120018F7DF9CF809135
:1003E0002001877FF5CFCF93DF93282F30E0F901ED
:1003F000E65CFD4F8491F901EC50FE4FD491F90178
:10040000E255FE4FC491CC23A1F081110E948C01D2
:10041000EC2FF0E0EE0FFF1FEC56FE4FA591B491CC
:10042000EC91ED2381E090E009F480E0DF91CF9141
:10043000089580E090E0FACF1F93CF93DF93282FA9
:1004400030E0F901E65CFD4F8491F901EC50FE4F7C
:10045000D491F901E255FE4FC491CC23A9F0162F97
:1004600081110E948C01EC2FF0E0EE0FFF1FE65887
:10047000FE4FA591B4918FB7F894EC91111108C07B
:10048000D095DE23DC938FBFDF91CF911F9108952C
:10049000DE2BF8CFCF93DF9390E0FC01EC50FE4FC2
:1004A000249182559E4FFC0184918823D1F090E0E5
:1004B000880F991FFC01E05AFE4FA591B491FC01F1
:1004C000E658FE4FC591D49161110EC09FB7F894C4
:1004D0008C91E22FE0958E238C932881E223E88390
:1004E0009FBFDF91CF9108958FB7F894EC91E22BE5
:1004F000EC938FBFF6CF90917B00977F90937B001A
:100500008653806480937C0080917A00806480931D
:100510007A0080917A0086FDFCCF809178009091DE
:1005200079000895AF92BF92CF92DF92EF92FF923F
:100530000F931F93CF93DF936C017B018B01040F0B
:10054000151FEB015E01AE18BF08C017D10759F0A7
:100550006991D601ED91FC910190F081E02DC601E9
:100560001995892B79F7C501DF91CF911F910F91D3
:10057000FF90EF90DF90CF90BF90AF900895FC0177
:10058000538D448D252F30E0842F90E0821B930BF8
:10059000541710F0CF96089501970895FC01918D9E
:1005A000828D981761F0A28DAE0FBF2FB11D5D96A1
:1005B0008C91928D9F5F9F73928F90E008958FEF43
:1005C0009FEF0895FC01918D828D981731F0828DF7
:1005D000E80FF11D858D90E008958FEF9FEF08954E
:1005E000FC01918D228D892F90E0805C9F4F821BB2
:1005F00091098F73992708958BE293E00E94F0028E
:1006000021E0892B09F420E0822F0895FC01A48DBC
:10061000A80FB92FB11DA35ABF4F2C91848D90E024
:1006200001968F739927848FA689B7892C93A08907
:10063000B1898C91837080648C93938D848D981391
:1006400006C00288F389E02D80818F7D8083089524
:10065000EF92FF920F931F93CF93DF93EC0181E012
:10066000888F9B8D8C8D98131AC0E889F9898081B9
:1006700085FF15C09FB7F894EE89FF896083E889EC
:10068000F98980818370806480839FBF81E090E0DE
:10069000DF91CF911F910F91FF90EF900895F62E6B
:1006A0000B8D10E00F5F1F4F0F731127E02E8C8D05
:1006B0008E110CC00FB607FCFACFE889F98980814A
:1006C00085FFF5CFCE010E940603F1CFEB8DEC0F35
:1006D000FD2FF11DE35AFF4FF0829FB7F8940B8F67
:1006E000EA89FB8980818062CFCFCF93DF93EC01D1
:1006F000888D8823B9F0AA89BB89E889F9898C910A
:1007000085FD03C0808186FD0DC00FB607FCF7CFC5
:100710008C9185FFF2CF808185FFEDCFCE010E94C5
:100720000603E9CFDF91CF91089581E08093210303
:1007300008950E94FC02882319F081E08093210330
:1007400080E090E0892B49F080E090E0892B29F04F
:100750000E94000081110E94000080E090E0892B3F
:1007600049F080E090E0892B29F00E94000081117F
:100770000E94000080E090E0892B49F080E090E04A
:10078000892B29F00E94000081110C94000008952B
:100790000895FB01309729F09481907896609483B6
:1007A00080830895CF93DF93EC0188819981DC01E8
:1007B000ED91FC910190F081E02D19952A813B810A
:1007C000820F931F9B838A83DF91CF910895CF93EC
:1007D000DF93EC0188819981DC01ED91FC9102802D
:1007E000F381E02D19952A813B81820F931F9B8312
:1007F0008A83DF91CF9108958F929F92AF92BF929B
:10080000CF92DF92EF92FF920F931F93CF93DF93DC
:10081000CDB7DEB766970FB6F894DEBF0FBECDBF7B
:100820006C018E01095E1F4F78018AE0882E912CA1
:10083000A12CB12CCB01BA01A50194010E94E512B3
:10084000942F852F605DF80162938F01A901692FB4
:10085000782F411551056105710561F7A7014E1B00
:100860005F0BBF01C6010E94E70366960FB6F894BE
:10087000DEBF0FBECDBFDF91CF911F910F91FF90D3
:10088000EF90DF90CF90BF90AF909F908F900895A2
:1008900080339CF08A3324F08F3524F08B3724F496
:1008A00081E0089581344CF08B35D4F393ED980FAB
:1008B00081E09230B0F380E008958B32B9F7F0CF49
:1008C0000F931F93CF93DF93EC018C85811140C070
:1008D00009851A852FB7F8948091270390912803F2
:1008E000A0912903B0912A032FBFF8018087918737
:1008F000A287B387D801ED91FC910284F385E02DA6
:10090000C801199597FF2AC02FB7F8948091270343
:1009100090912803A0912903B0912A032FBFF801D9
:100920004085518562857385841B950BA60BB70B9B
:10093000448155816681778184179507A607B7079B
:10094000C8F28FEF9FEF97FD80E08B8781E08C8767
:100950008B85DF91CF911F910F9108959927F3CF48
:100960001F93CF93DF93EC01162F0E946004811335
:1009700006C01C8681E0DF91CF911F91089580E031
:10098000FACFCF93DF93EC01CE010E9460048B304D
:100990003CF489304CF4882349F081E0888710C00A
:1009A0008D3011F08032C9F71C86EECF8885811119
:1009B0000AC081E090E0C15BDF4F9983888380E0CB
:1009C000DF91CF91089582E090E0F5CF0895FC018A
:1009D00024813581A9014F5F5F4F86819781481738
:1009E000590748F48281938155834483FC01E20FC7
:1009F000F31F608308950190F081E02D81E08087EE
:100A000008959F92AF92BF92CF92DF92EF92FF92A2
:100A10000F931F93CF93DF9300D01F921F92CDB7F8
:100A2000DEB78C010E946004D82ED8011C961C925F
:100A3000F12CE12C60EFC62EC8010E946004F80181
:100A40001486D81609F4BDC0811119C0F801E15B04
:100A5000FF4F82E090E09183808380E00F900F90C1
:100A60000F900F900F90DF91CF911F910F91FF90FA
:100A7000EF90DF90CF90BF90AF909F9008958C350E
:100A800009F09DC0C8010E9460048823F9F2E2E3E6
:100A9000F2E0853709F087C0D8011C961C9254E01B
:100AA000952EB12CA12CC8010E946004882371F2FC
:100AB00081344CF48053803148F0F801E15BFF4F02
:100AC00083E090E0C8CF8F7D8753F5CF44E0AA0C38
:100AD000BB1C4A95E1F7A82AF80114869A94911054
:100AE000E2CFC501985D8115944020F4750123E0A3
:100AF000F222A2CFC5019C5D81159440A8F4B3E019
:100B0000BB22B701762F6627770F770F6A297B29DB
:100B100090E080E00196603871058105910540F410
:100B2000C8010E94E70488CFB50190E080E0F3CFD0
:100B30001982262F2F7320682A8326E096958795A1
:100B4000779567952A95D1F76032710580F4606CCE
:100B50006B835E01E4E0AE0EB11CD5016E915D01C8
:100B6000662309F469CFC8010E94E704F6CF262F57
:100B70002F7320682B8386E0769567958A95E1F739
:100B80006031710538F4606E6C835E01F5E0AF0E84
:100B9000B11CE3CF60686C83CD825E0126E0A20EBB
:100BA000B11CDBCF32969081992309F486CF89134B
:100BB000F9CF8181882309F480CFF8011486682F4A
:100BC000AFCF0190F081E02D8085882331F0F801CE
:100BD000E15BFF4F84E090E03ECF81E03FCFCF93D9
:100BE000DF93DC01EB01EC81FD818A819B8108961A
:100BF000E817F90740F481E08887F0E0E0E0CF01F2
:100C0000DF91CF9108953897FD83EC833097B9F346
:100C10001296CD91DC911397209791F0CF018C1B08
:100C20009D0B23E0959587952A95E1F78D83139683
:100C3000FC93EE9312971582148217821682DFCFEF
:100C40001196FC93EE93F3CFEF92FF920F931F93C5
:100C5000CF93DF937C01DC0112962D913C91139789
:100C6000ED91FC91AB01420F531FEF01C60FD71F4F
:100C7000C217D307A0F4888181110BC0E901CF010D
:100C80004C175D0751F00991DC011D91CD01011751
:100C9000B9F381918111FDCFE8CF309751F4620F04
:100CA000731FCB010196F70193838283DB011C92B2
:100CB000F901CF01DF91CF911F910F91FF90EF903C
:100CC0000895FC012581222339F0F8E02F029001DC
:100CD0001124820F931F089590E080E00895FC0195
:100CE00001900020E9F73197AF01481B590BBC0177
:100CF0008BE293E00C949202FB0101900020E9F753
:100D00003197AF01461B570B0C94E7031F93CF930A
:100D1000DF93E2E3F2E01281112379F03296218130
:100D20006213F9CFEC016CE50E94D203612FCE0172
:100D3000DF91CF911F910C94D2036111F9CF63E43D
:100D400072E0DF91CF911F910C947C062F923F921D
:100D50004F925F926F927F928F929F92AF92BF92CB
:100D6000CF92DF92EF92FF920F931F93CF93DF9377
:100D7000CDB7DEB76C970FB6F894DEBF0FBECDBF10
:100D80008C011B01DC0114968C9114978F778630AF
:100D900009F492C268F58230A0F11296ED90FC90B1
:100DA0001397CC901196DC90843008F056C2A701BE
:100DB000B601C1010E94E703F101828193816C9623
:100DC0000FB6F894DEBF0FBECDBFDF91CF911F915C
:100DD0000F91FF90EF90DF90CF90BF90AF909F90DA
:100DE0008F907F906F905F904F903F902F900895DD
:100DF0008C3069F160F4883009F459C28A3009F402
:100E00003FC26AE472E0C1010E947C06E5C1803203
:100E100009F4ECC18034A9F76BE5C1010E94D2034B
:100E2000F801008111810115110509F4DAC1B10140
:100E3000C8010E94A606C8010E9461068C01892B88
:100E400009F4CFC16CE2C1010E94D203ECCFF801DA
:100E5000C080D180E280F380A7019601C701B6016E
:100E60000E947F118111CDCF20E030E0A901C701A0
:100E7000B6010E947F11882379F0A7019601C7016E
:100E8000B6010E9410139B01AC01C701B6010E947C
:100E90007F11882309F4B5CF20E030E0A901C70114
:100EA000B6010E947F1187FF08C06DE2C1010E9458
:100EB000D203F7FAF094F7F8F09420E836E948E125
:100EC0005BE4C701B6010E94AB1387FD81C074E1EA
:100ED000A72EB12C00E210E0188E1F8AF501E05811
:100EE000FD4F2591359145915491C701B6010E945E
:100EF000AB1387FD13C0F501E856FD4F25913591E1
:100F000045915491C701B6010E94E5116B017C0126
:100F10002F89388D200F311F388F2F8B159507950E
:100F200034E0A31AB1088CEFA8168FEFB806B1F61B
:100F300055245A9420E030E0A901C701B6010E946F
:100F4000AB1318160CF04BC02CEA35EC47E257E314
:100F5000C701B6010E947F1118160CF440C0A52DE0
:100F6000B4E0AB02C0011124B12CA12CFC01E85B60
:100F7000FE4F3F019C0120583D4F49013FEF531662
:100F800071F1F301EA0DFB1D2591359145915491C5
:100F9000C701B6010E947F1187FF13C0F401EA0D5B
:100FA000FB1D2591359145915491C701B6010E94D1
:100FB000E5116B017C018F89988D801B910B988FB7
:100FC0008F8B159507955A9494E0A91AB108D6CF3E
:100FD00000E210E055E0552E188E1F8AABCFC701F6
:100FE000B6010E947C134B015C012B013C0106E021
:100FF00080E492E4AFE0B0E0898F9A8FAB8FBC8F32
:10100000102F01509AE04916510461047104C8F090
:10101000698D7A8D8B8D9C8D2AE030E040E050E028
:101020000E94E512298F3A8F4B8F5C8FC301B2016A
:101030002AE030E040E050E00E94E51229013A0148
:10104000DFCFC501B4010E9484119B01AC01C7012F
:10105000B6010E940F136B017C01698D7A8D8B8D17
:101060009C8D0E9484119B01AC01C701B6010E94B6
:10107000E5112B013C010E947C136B017C010E9455
:1010800084119B01AC01C301B2010E940F139B01AB
:10109000AC010E9410130E947C13C60ED71EE81EDE
:1010A000F91E898D9A8DAB8DBC8DC816D906EA06BE
:1010B000FB06D8F09FEF891A990AA90AB90AAF89E5
:1010C000B88DAB2B39F1BAE08B169104A104B104B1
:1010D00008F1EF89F88D3196F88FEF8BC12CD12C68
:1010E0007601812C912C540183942AE0422E512CBC
:1010F000612C712CC701B601A30192010E94E51277
:10110000672B682B692B51F4111644F469017A019D
:101110001150F0CFC12CD12C7601E7CFB501A4013D
:10112000C1010E94FC03112371F14E01F1E18F0E08
:10113000911C012F54019AE0492E512C612C712CE5
:10114000015068F0C701B601A30192010E94E512A7
:10115000605DD4016E934D0169017A01F1CF812F59
:1011600090E0BC0160957095F501E81BF90B319793
:101170008EE2808344275527461B570B6A0D7B1D43
:10118000C1010E94E703EF89F88DEF2B29F165E695
:10119000C1010E94D2030F89188D17FF07C06DE2AD
:1011A000C1010E94D203119501951109FE017796A4
:1011B0009F018AE0E82EF12CC801B7010E94BD1200
:1011C000805D82938B01672BB9F7A9014E1B5F0BE2
:1011D000BF01C1010E94E703D10112968D919C913C
:1011E000EECD6DE5C1010E94D203F6CF6BE7C101E0
:1011F0000E94D203F801008111810115110559F1F6
:10120000D8011696CC9016971796DC9062E2C10131
:101210000E94D2037601F70161917F01662321F0DC
:10122000C1010E948606F7CF62E2C1010E94D2038B
:101230006AE3C1010E94D203B101C8010E94A6065F
:10124000C8010E9461068C01892B29F06CE2C10162
:101250000E94D203D2CF6DE7C5CF62E2C1010E94E6
:10126000D2038601E00EF11EE016F10639F0F80116
:1012700061918F01C1010E948606F6CF62E2B2CF72
:10128000CD90DD90ED90FC90B701A601F7FE0BC06C
:101290006DE2C1010E94D20344275527BA014C19BF
:1012A0005D096E097F09C1010E94FC0385CD4D9146
:1012B0005D916D917C91F7CF8C916FE472E081111B
:1012C00002C064E572E0C1010E947C0675CD0F93F7
:1012D0001F93CF93DF93D0E0C0E06115710591F0CB
:1012E0008B01FC01C081D181209761F06E817F81EB
:1012F000C8010E94B013892B29F0CE010E9461061B
:10130000EC01F2CFCE01DF91CF911F910F910895A3
:101310004F925F926F927F92BF92CF92DF92EF9245
:10132000FF920F931F93CF93DF93EC018B01E42E79
:101330000E94C104F82E811110C0F12C8F2DDF9175
:10134000CF911F910F91FF90EF90DF90CF90BF90C2
:101350007F906F905F904F900895CE010E9460043F
:10136000873209F42BC10CF5823209F427C1CE0172
:101370000E946004B82E6E01FFE0CF0ED11CE12C5C
:1013800036018B2D0E944804882309F443C12FE3C2
:10139000E21609F43FC11C86E394F601B1926F0195
:1013A000CE010E946004B82EECCF8B3509F44AC000
:1013B0008B37E9F6F801848180788062848311821A
:1013C000108213821282EE2009F447C01C86CE01DF
:1013D0000E94C104882309F4B0CF6DE7CE010E94BA
:1013E000B004D82E8111AACFCC24C394EA94E8810A
:1013F000F981828193819B838A8384819581228173
:101400003381821B930B9F838E831D821C82892BC9
:1014100009F4C086CE010E946004873209F45DC0E1
:10142000823209F45AC0CE010E946004F82E0E9454
:101430004804811159C0C15BDF4F83E090E099837C
:10144000888350C0F801848180788064848311820D
:10145000108213821282E11007C0C15BDF4F85E06A
:1014600090E09983888369CF1C86CE010E94C104D5
:10147000882309F462CF6DE5CE010E94B00481118A
:101480005DCFEA946D857E85C8010E94EF050097C7
:1014900029F4C15BDF4F84E090E0E3CF4E2DBC0127
:1014A000CE010E948809882309F447CFCE010E940B
:1014B000C104882309F441CF6DE5CE010E94B00438
:1014C00081113CCF6CE2CE010E94B0048111DACFD1
:1014D000C15BDF4F83E090E0C4CFCE010E940105E5
:1014E000811119C0FD2C2ACF1C866F2DCE010E94C0
:1014F000E704CE010E946004F82E0E944804811186
:10150000F3CFE881F9818085882329F0C15BDF4F23
:1015100084E090E094CFCE010E94C104882311F3AF
:101520006AE3CE010E94B004882309F484CFEA81E3
:10153000FB818C819D81E80FF91F10826C807D807A
:101540006A817B81C8010E946709BC01892BA1F4D3
:10155000B301888199810E9424063C016D857E85B6
:10156000C8010E94EF05FC01892B81F2848180680B
:10157000848377826682BF014E2DCE010E94880946
:10158000882309F4AFCFCE010E94C104882309F457
:10159000A9CF6DE7CE010E94B00481110DC06CE2AD
:1015A000CE010E94B004882309F445CFCE010E94E9
:1015B000C10481111CCF96CFD82E94CFE881F98138
:1015C000828193819B838A83848195812281338167
:1015D000821B930B9F838E831D821C82892B11F4A7
:1015E00081E08087CE010E940105F82E882309F44E
:1015F000A4CECC80DD80B601888199810E9424062A
:10160000F801248120782560248391838083D3820C
:10161000C28294CEFE01EE0DF11D17868F858437B0
:1016200081F4F801848180788660848381E08083FE
:10163000F4E0EF1609F482CEC15BDF4F82E090E068
:1016400010CF863641F4F8018481807886608483E7
:101650001082F5E0EECF8E3621F424E0E212ECCFDA
:101660006DCE8B32D9F1F3018D32D1F5FE0170963A
:10167000BF2C808190ED980F9A3018F08E3209F0CF
:1016800027CF6F0160E070E0CB01F6012191A0ED62
:101690004A2E420E39E0341528F16A3949E97407B7
:1016A000840749E1940740F5AAE0B0E09B01AC0152
:1016B0000E94A312512C712C612CA3019201209540
:1016C0003095409550952617370748075907A0F0E1
:1016D000640D751D861D971D6F01D7CFFE01709695
:1016E000B12CC7CF211108C0BB2071F16130710549
:1016F000810550E89507A0F0E12CEAE04E2E512C30
:10170000612C712C61157105F0E88F07910530F19E
:10171000A30192010E94E512CA01B901E394F2CF3C
:10172000F801248120782A6024839B01AC0188275A
:101730009927DC01821B930BA40BB50B808391834B
:10174000A283B383FB2CFACDF80124812078286092
:1017500024836083718382839383F0CDD601F60165
:1017600021916F0130ED320F3A3010F4E394F6CF4F
:101770002E32F1F4FD013196DF0131962C9150EDBE
:10178000D52ED20E29E02D1598F06C3C3CEC730759
:101790003CE08307910580F7AAE0B0E09B01AC0133
:1017A0000E94A3126D0D711D811D911DEA94E4CF5D
:1017B0002C912F7D253409F08CC011962C91119716
:1017C0002D32D9F512967F2CFD0130E020E0CE2C91
:1017D0000E2C000CDD084AE0542EDF01619040ED34
:1017E000460D4A3008F043C0529EA001539E500D52
:1017F0001124262D660C330B20533109240F351F7D
:10180000A601420F531F473251053CF3F801848172
:101810007720D1F040E050E060E070E8B11003C004
:1018200040E050E0BA0180788C60F8018483408306
:10183000518362837383F72C81CD2B3219F011967B
:10184000712CC2CF1296FCCF40E050E060E87FEFF1
:10185000B11004C040E050E060E87FE780788C6021
:10186000F8018483408351836283738367CD77203B
:1018700019F03195219531094C91411129CEE90199
:10188000CE0DD11DE7FCDA950E9484111C161D06B1
:101890001CF5E12CC0FF0CC024E0E29EF0011124F5
:1018A000E058FD4F25913591459154910E94E511E5
:1018B000D595C795E394209769F7B1109058F80132
:1018C000248120782C6024836083718382839383B6
:1018D00035CD30E020E0D0CFD195C195D109E12CB4
:1018E000209759F3C0FF0CC044E0E49EF00111249E
:1018F000E856FD4F25913591459154910E94E5118F
:10190000D595C795E394ECCFEF92FF920F931F9379
:10191000CF93DF93EC018C81982F9F7739F48078F7
:1019200080628C83198218821B821A828C8185FFC7
:101930001DC061157105D1F07A018B01CE010E94A5
:101940006709009761F4B701CE010E94EF05009787
:1019500031F0FC0124812F77248317830683DF91E4
:10196000CF911F910F91FF90EF90089590E080E04C
:10197000F6CFCF92DF92EF92FF920F931F93CF9308
:10198000DF93CDB7DEB7C650D2400FB6F894DEBFB6
:101990000FBECDBFCE010F969A8389839C838B8324
:1019A0008E010D5F1D4F1E830D8318870F831986CF
:1019B0001E868FB7F894C0902703D0902803E0903C
:1019C0002903F0902A038FBFAE014F5F5F4F6AE596
:1019D00072E0CE010A960E94840CFC01892B41F032
:1019E0009481907898609483C082D182E282F3825D
:1019F000AE014F5F5F4F6FE572E0CE010A960E9425
:101A0000840CBC018091F1020E94C903AE014F5FBA
:101A10005F4F65E672E0CE010A960E94840CBC011D
:101A20008091F0020E94C903AE014F5F5F4F6BE6E9
:101A300072E0CE010A960E94840CBC018091EF02F4
:101A40000E94C903AE014F5F5F4F61E772E0CE01B4
:101A50000A960E94840CBC018091EE020E94C90388
:101A6000AE014F5F5F4F67E772E0CE010A960E94BA
:101A7000840CBC018091ED020E94C903AE014F5F4E
:101A80005F4F6FE772E0CE010A960E94840CFC0162
:101A9000892B81F02091EB023091EC0294819078B7
:101AA0009A609483C901330FAA0BBB0B8083918387
:101AB000A283B383AE014F5F5F4F66E872E0CE0151
:101AC0000A960E94840CFC01892B81F02091E90286
:101AD0003091EA02948190789A609483C901330F1F
:101AE000AA0BBB0B80839183A283B3838BE293E029
:101AF000F8019183808313821282B801CE010A9685
:101B00000E94A6068DE892E00E946F061092E802FD
:101B1000CA5FDD4F0FB6F894DEBF0FBECDBFDF91B9
:101B2000CF911F910F91FF90EF90DF90CF9008958C
:101B30000F931F93CF93DF93CDB7DEB7C356D24039
:101B40000FB6F894DEBF0FBECDBFCE010F969A83BD
:101B500089839C838B8383E092E08C0F9D1F9E83FF
:101B60008D8398878F8319861E8682509240C45A2F
:101B7000DD4F99838883CC55D24028E0FE01E45A9A
:101B8000FD4FDE01AC5ABD4F01900D922A95E1F751
:101B900028E0FE01EC5AFD4FDE01AD5FBD4F019024
:101BA0000D922A95E1F7C55FDD4F1882CB50D240E8
:101BB0002BE233E0C45FDD4F39832883CC50D24021
:101BC000C15FDD4F1882CF50D240C05FDD4F998397
:101BD0008883C051D240CE5ADD4F19821882C25537
:101BE000D2404AE0BE01665F7F4F8E5F9D4F0E94EC
:101BF0008809CE5ADD4F08811981C255D24001159E
:101C0000110501F5C25FDD4F8881CE50D240882397
:101C1000C9F08E8583FF16C01092210303E010E007
:101C200080E992E00E946F06000F111FF801E0505A
:101C3000FE4F80819181009701F58DE892E00E942E
:101C40006F0608C0109221030115110549F78E8512
:101C500085FD0CC0CD59DD4F0FB6F894DEBF0FBE29
:101C6000CDBFDF91CF911F910F91089567EA72E088
:101C7000CE010A960E946709EDCF0E946F06DDCF64
:101C80001F920F920FB60F9211242F933F938F93B1
:101C90009F93AF93BF938091270390912803A091C6
:101CA0002903B0912A033091260323E0230F2D3717
:101CB00058F50196A11DB11D20932603809327039B
:101CC00090932803A0932903B0932A0380912203C1
:101CD00090912303A0912403B09125030196A11DA7
:101CE000B11D8093220390932303A0932403B09308
:101CF0002503BF91AF919F918F913F912F910F90AD
:101D00000FBE0F901F90189526E8230F0296A11D75
:101D1000B11DD2CF1F920F920FB60F9211240BB6A6
:101D20000F922F933F934F935F936F937F938F9374
:101D30009F93AF93BF93EF93FF938BE293E00E9447
:101D40000603FF91EF91BF91AF919F918F917F918A
:101D50006F915F914F913F912F910F900BBE0F901C
:101D60000FBE0F901F9018951F920F920FB60F92F3
:101D700011240BB60F922F938F939F93EF93FF93A2
:101D8000E0913B03F0913C038081E0914103F091AD
:101D9000420382FD1DC09081809144038F5F8F7349
:101DA00020914503821741F0E0914403F0E0E55DA6
:101DB000FC4F958F80934403FF91EF919F918F91FA
:101DC0002F910F900BBE0F900FBE0F901F90189584
:101DD0008081F2CF789484B5826084BD84B58160BF
:101DE00084BD85B5826085BD85B5816085BD8091E6
:101DF0006E00816080936E0010928100809181005E
:101E00008260809381008091810081608093810055
:101E1000809180008160809380008091B100846017
:101E20008093B1008091B00081608093B000809178
:101E300091008260809391008091910081608093F5
:101E40009100809190008160809390008091A1002A
:101E500082608093A1008091A10081608093A100A5
:101E60008091A00081608093A00080912101826018
:101E700080932101809121018160809321018091D3
:101E8000200181608093200180917A00846080939A
:101E90007A0080917A00826080937A0080917A0043
:101EA000816080937A0080917A00806880937A00C4
:101EB0001092C100E0913B03F0913C0382E08083EB
:101EC000E0913703F09138031082E0913903F091EB
:101ED0003A038FEC808310924303E0913F03F0912B
:101EE000400386E08083E0913D03F0913E038081D2
:101EF00080618083E0913D03F0913E0380818860A2
:101F00008083E0913D03F0913E038081806880836F
:101F1000E0913D03F0913E0380818F7D808382EFCD
:101F200092E030E020E0FC01E20FF31F10822F5F0F
:101F30003F4F2A303105B9F70A9623E08A319207DC
:101F400081F760E085E10E944A0260E084E10E943E
:101F50004A0260E083E10E944A0260E082E10E945E
:101F60004A0261E082E00E944A0261E083E00E944E
:101F70004A0261E084E00E944A0261E085E00E943A
:101F80004A0261E08FE10E944A0261E080E20E9421
:101F90004A0261E081E20E944A0261E082E20E941C
:101FA0004A0261E083E20E944A0261E084E20E9408
:101FB0004A0261E085E20E944A0261E086E20E94F4
:101FC0004A0261E087E20E944A0261E088E20E94E0
:101FD0004A0261E08BE00E944A0261E08AE00E94CE
:101FE0004A0261E089E00E944A0261E088E00E94C2
:101FF0004A0261E087E00E944A0260E086E00E94B7
:102000004A0260E087E30E944A0260E086E30E94A1
:102010004A0294EF892E99249394A12CB12C22E1A9
:10202000422E512C612C712CC1E033E0232E312C37
:1020300080912103882321F00E94980D0E94B90C01
:102040002FB7F8946091270370912803809129039A
:1020500090912A032FBFA50194010E94E512CA01A5
:10206000B901A30192010E94E5129B011092200385
:1020700010921F0310921E0310921D0342EF52E0B4
:10208000F0E0E0E0DA01AE0FBF1F1C923196EA30BB
:10209000F105C1F7465F5F4FE3E04A315E0781F724
:1020A00010921C032230310509F4EEC0DCF4211536
:1020B000310591F12130310509F4E3C09B01255030
:1020C0003109C901B1010E94D112F7E0F69FC001A8
:1020D000F79F900D11248E509D4F280F391FF90145
:1020E000C0831CC02430310509F4D4C00CF4CFC027
:1020F0002530310519F7C093F202C093F402C09362
:10210000FD02C0930603C0930803C0931003C0935D
:102110001103C093120302C0C093200385E10E9403
:10212000F30121E0892B09F420E02093F10284E1FE
:102130000E94F30121E0892B09F420E02093F002B2
:1021400083E10E94F30121E0892B09F420E0209330
:10215000EF0282E10E94F30121E0892B09F420E0E3
:102160002093EE0286E00E94F30121E0892B09F41E
:1021700020E02093ED0287E30E947B029093EC0223
:102180008093EB0286E30E947B029093EA028093A5
:10219000E902609120038BE00E941C0260911F0302
:1021A0008AE00E941C0260911E0389E00E941C02CA
:1021B00060911D0388E00E941C0260E082E00E94A2
:1021C0001C0260E083E00E941C0260E084E00E9448
:1021D0001C0260E085E00E941C0260911C0387E005
:1021E0000E941C028EE1C82E82E0D82EF12CE12C38
:1021F000DAE000911A0310911B03F6018081F2E0EE
:10220000CF0ED11CD09FF001D19FF00D1124EE50C4
:10221000FD4FEE0DFF1D60810E941C022FEFE21AA0
:10222000F20A4AE0E416F10421F761E00115110514
:1022300009F060E082E00E941C0261E001301105BB
:1022400009F060E083E00E941C0261E002301105A9
:1022500009F060E084E00E941C0261E00330110597
:1022600009F060E085E00E941C020F5F1F4F043000
:1022700011059CF410931B0300931A030E94990309
:10228000D7CEC0931D034ACFC0931F0347CFC0933F
:102290001E0344CFC0931C0341CF10921B03109226
:1022A0001A03ECCFEBE2F3E01382128288EE93E0A4
:1022B000A0E0B0E084839583A683B78380E192E0B9
:1022C0009183808385EC90E09587848784EC90E00F
:1022D0009787868780EC90E0918B808B81EC90E0F3
:1022E000938B828B82EC90E0958B848B86EC90E0D4
:1022F000978B868B118E128E138E148E08950E94EA
:10230000C11108F481E00895E89409C097FB3EF4F8
:1023100090958095709561957F4F8F4F9F4F992332
:10232000A9F0F92F96E9BB279395F69587957795B0
:102330006795B795F111F8CFFAF4BB0F11F460FF70
:102340001BC06F5F7F4F8F4F9F4F16C0882311F0C8
:1023500096E911C0772321F09EE8872F762F05C0DC
:10236000662371F096E8862F70E060E02AF09A9577
:10237000660F771F881FDAF7880F9695879597F96C
:102380000895990F0008550FAA0BE0E8FEEF161606
:102390001706E807F907C0F012161306E407F50759
:1023A00098F0621B730B840B950B39F40A2661F0CD
:1023B000232B242B252B21F408950A2609F4A14070
:1023C000A6958FEF811D811D08950E94F8110C9430
:1023D00069120E945B1238F00E94621220F095236D
:1023E00011F00C9452120C94581211240C949D125A
:1023F0000E947A1270F3959FC1F3950F50E0551F1C
:10240000629FF001729FBB27F00DB11D639FAA2749
:10241000F00DB11DAA1F649F6627B00DA11D661F98
:10242000829F2227B00DA11D621F739FB00DA11DB9
:10243000621F839FA00D611D221F749F3327A00D73
:10244000611D231F849F600D211D822F762F6A2F0F
:1024500011249F5750409AF0F1F088234AF0EE0F74
:10246000FF1FBB1F661F771F881F91505040A9F7A1
:102470009E3F510580F00C9452120C949D125F3FC8
:10248000E4F3983ED4F3869577956795B795F795DD
:10249000E7959F5FC1F7FE2B880F911D9695879555
:1024A00097F9089597F99F6780E870E060E00895D4
:1024B0009FEF80EC089500240A941616170618065C
:1024C0000906089500240A94121613061406050638
:1024D0000895092E0394000C11F4882352F0BB0FC9
:1024E00040F4BF2B11F460FF04C06F5F7F4F8F4F2C
:1024F0009F4F089557FD9058440F551F59F05F3F67
:1025000071F04795880F97FB991F61F09F3F79F015
:1025100087950895121613061406551FF2CF469597
:10252000F1DF08C0161617061806991FF1CF869519
:102530007105610508940895E894BB2766277727FD
:10254000CB0197F908950E94AE12A59F900DB49FFC
:10255000900DA49F800D911D11240895A29FB0019C
:10256000B39FC001A39F700D811D1124911DB29FC7
:10257000700D811D1124911D0895AA1BBB1B51E1F3
:1025800007C0AA1FBB1FA617B70710F0A61BB70BE3
:10259000881F991F5A95A9F780959095BC01CD0188
:1025A000089597FB072E16F4009407D077FD09D005
:1025B0000E94BD1207FC05D03EF4909581959F4F77
:1025C0000895709561957F4F0895A1E21A2EAA1B78
:1025D000BB1BFD010DC0AA1FBB1FEE1FFF1FA217D3
:1025E000B307E407F50720F0A21BB30BE40BF50BD0
:1025F000661F771F881F991F1A9469F76095709559
:10260000809590959B01AC01BD01CF010895EE0F1F
:10261000FF1F881F8BBF0790F691E02D199450582B
:10262000BB27AA270E9427130C9469120E945B12F1
:1026300038F00E94621220F039F49F3F19F426F41A
:102640000C9458120EF4E095E7FB0C945212E92F0B
:102650000E947A1258F3BA17620773078407950726
:1026600020F079F4A6F50C949C120EF4E0950B2E54
:10267000BA2FA02D0B01B90190010C01CA01A001D4
:102680001124FF27591B99F0593F50F4503E68F12F
:102690001A16F040A22F232F342F4427585FF3CF70
:1026A000469537952795A795F0405395C9F77EF441
:1026B0001F16BA0B620B730B840BBAF09150A1F08A
:1026C000FF0FBB1F661F771F881FC2F70EC0BA0F10
:1026D000621F731F841F48F4879577956795B79598
:1026E000F7959E3F08F0B0CF9395880F08F0992793
:1026F000EE0F9795879508950E94821288F09F5754
:1027000098F0B92F9927B751B0F0E1F0660F771F15
:10271000881F991F1AF0BA95C9F714C0B13091F00B
:102720000E949C12B1E008950C949C12672F782FA0
:102730008827B85F39F0B93FCCF3869577956795D0
:10274000B395D9F73EF490958095709561957F4F3C
:102750008F4F9F4F08950E94C11108F48FEF089585
:10276000FB01DC018D91019080190110D9F3990BC7
:062770000895F894FFCF6C
:10277600AB02AE02B902C902D602DF0200000000B7
:1027860028039202BF027503F002CE02E2021F0086
:102796002000210022002300240025002600270017
:1027A60028002F2F22225C5C6208660C6E0A720DCE
:1027B6007409005C7530303030006E756C6C0074D6
:1027C6007275650066616C73650074696D6500629B
:1027D600746E5F310062746E5F320062746E5F33D6
:1027E6000062746E5F340062746E5F6A6F79006AAD
:1027F6006F795F6862006A6F795F6764000D0A002F
:10280600646573657269616C697A652829206661F9
:10281600696C65643A20006C6564004F6B00456D19
:10282600707479496E70757400496E636F6D706C63
:10283600657465496E70757400496E76616C69647D
:10284600496E707574004E6F4D656D6F72790054E8
:082856006F6F4465657000001E
:00000001FF
