:100000000C9469010C949A010C949A010C949A0135
:100010000C949A010C949A010C949A010C949A01F4
:100020000C949A010C949A010C949A010C949A01E4
:100030000C949A010C949A010C949A010C949A01D4
:100040000C949A010C949A010C949A010C949A01C4
:100050000C949A010C949A010C949A010C94230A22
:100060000C949A010C94970A0C946D0A0C949A01C2
:100070000C949A010C949A010C949A010C949A0194
:100080000C94CD0A0C949A010C949A010C949A0148
:100090000C949A010C949A010C949A010C949A0174
:1000A0000C949A010C949A010C949A010C949A0164
:1000B0000C949A010C949A010C949A010C949A0154
:1000C0000C949A010C949A010C949A010C949A0144
:1000D0000C949A010C949A010C949A010C949A0134
:1000E0000C949A010C94AB020C9498020C94A1020B
:1000F0000C9441040C9493030C94EB0E0C94EE0EB0
:100100000C94F1030C94BD020C94AF020C944F04B8
:100110000C9486020C94F40E0C94C1020C941E04F0
:100120000C94E80E0C94CB020C94F10E0C948F0EF0
:100130000C9487040C94C7020C94D4040C949B0276
:100140000C94F80B0C94FE0E0C942D040C94940259
:100150000C94A5020C948C020C94B9020C94C60267
:100160000C94B3020C949002CDCCCC3D0AD7233C26
:1001700017B7D13877CC2B329595E6241FB14F0AAB
:100180000000803FCDCCCC3D6F12833A95BFD63373
:100190007D1D9026B3CE010C000020410000C84216
:1001A00000401C4620BCBE4CCA1B0E5AAEC59D74F6
:1001B00000002100240027002A002D003000330019
:1001C00001010000040107010A01000022002500CE
:1001D00028002B002E003100340002010000050130
:1001E00008010B01000020002300260029002C003C
:1001F0002F0032000001000003010601090105057E
:100200000505070508080808020202020A0A08088C
:1002100004040404010101010101010103030303BA
:1002200003030303040707070C0C0C0C0C0C0C0C49
:100230000202020206060606060606060B0B0B0B5A
:100240000B0B0B0B0102102020080810204010207F
:10025000408002010201080402010102040810208A
:100260004080804020100804020180040201804088
:1002700020100804020108040201010204081020F1
:100280004080010204081020408000000A0B02098F
:100290000C0D0E0807030401000000000000000020
:1002A000000000000000000000000000000000004E
:1002B000000000000000121110000000000000000B
:1002C000000000000000000000000000000000002E
:1002D000F80B11241FBECFEFD1E2DEBFCDBF00E08F
:1002E0000CBF12E0A0E0B2E0E4E7F2E200E00BBFF6
:1002F00002C007900D92AC38B107D9F723E0ACE803
:10030000B2E001C01D92A438B207E1F711E0C9E6DE
:10031000D1E000E006C021970109802FFE010E9474
:10032000620FC836D10780E00807A9F70E94450C84
:100330000C9438110C940000809174039091750313
:10034000A0917603B091770320916D03233009F4D7
:100350007DC0ACF42130C9F1223009F457C080913E
:10036000740390917503A0917603B0917703892B64
:100370008A2B8B2B19F481E080936C030895243031
:1003800009F485C0253059F7AC01BD01009721E083
:10039000A207B10520F04FEF5FEF60E070E05093EF
:1003A000290140932801841B950BA60BB70B809362
:1003B000740390937503A0937603B09377038091B1
:1003C0007300826080937300CACFAC01BD010097B7
:1003D00021E0A207B10520F04FEF5FEF60E070E091
:1003E0005093890040938800841B950BA60BB70B94
:1003F0008093740390937503A0937603B09377036F
:1004000080916F00826080936F00A9CFAC01BD0125
:100410008F3F9105A105B10529F020F04FEF50E085
:1004200060E070E04093B300841B950BA60BB70B04
:100430008093740390937503A0937603B09377032E
:100440008091700082608093700089CFAC01BD0103
:10045000009721E0A207B10520F04FEF5FEF60E0C9
:1004600070E05093990040939800841B950BA60B65
:10047000B70B8093740390937503A0937603B093A6
:1004800077038091710082608093710068CFAC0126
:10049000BD01009721E0A207B10520F04FEF5FEF0B
:1004A00060E070E05093A9004093A800841B950B76
:1004B000A60BB70B8093740390937503A0937603F8
:1004C000B09377038091720082608093720047CF6F
:1004D0008150823108F05AC0E82FF0E08827EC58AC
:1004E000FD4F8F4F0C94620F9402980286028C028B
:1004F0009002C6029B02A102A502AB02AF02B302A8
:10050000B902BD02C602C102C702CB0280918000BF
:100510008F77809380000895809180008F7DF9CF40
:1005200080918000877FF5CF84B58F7784BD089553
:1005300084B58F7DFBCF8091B0008F778093B00022
:1005400008958091B0008F7DF9CF809190008F77D2
:10055000809390000895809190008F7DF9CF8091D5
:100560009000877FF5CF8091A0008F778093A000C7
:1005700008958091A0008F7DF9CF8091A000877FA2
:10058000F5CF809120018F7780932001089580918D
:1005900020018F7DF9CF80912001877FF5CFCF9308
:1005A000DF93282F30E0F901E657FD4F8491F901E0
:1005B000EC5BFD4FD491F901E250FE4FC491CC2386
:1005C000A1F081110E946802EC2FF0E0EE0FFF1FF6
:1005D000EC51FE4FA591B491EC91ED2381E090E0B8
:1005E00009F480E0DF91CF91089580E090E0FACFA8
:1005F0001F93CF93DF93282F30E0F901E657FD4F8B
:100600008491F901EC5BFD4FD491F901E250FE4F6A
:10061000C491CC23A9F0162F81110E946802EC2FFF
:10062000F0E0EE0FFF1FE653FE4FA591B4918FB798
:10063000F894EC91111108C0D095DE23DC938FBFA4
:10064000DF91CF911F910895DE2BF8CFCF93DF93E9
:1006500090E0FC01EC5BFD4F249182509E4FFC0129
:1006600084918823D1F090E0880F991FFC01E05518
:10067000FE4FA591B491FC01E653FE4FC591D49174
:1006800061110EC09FB7F8948C91E22FE0958E23F4
:100690008C932881E223E8839FBFDF91CF91089557
:1006A0008FB7F894EC91E22BEC938FBFF6CF90913B
:1006B0007B00977F90937B008653806480937C00BF
:1006C00080917A00806480937A0080917A0086FD20
:1006D000FCCF809178009091790008953FB7F8940D
:1006E0008091CB029091CC02A091CD02B091CE022C
:1006F00026B5A89B05C02F3F19F00196A11DB11D7D
:100700003FBFBA2FA92F982F8827BC01CD01620FB8
:10071000711D811D911D42E0660F771F881F991F73
:100720004A95D1F70895FF920F931F93CF93DF93CC
:1007300080918D0290918E02892B09F047C060E074
:1007400085E00E94F80200E012E0D0E0C0E09AE00C
:10075000F92E20918D0230918E02F80180810E5F7A
:100760001F4FF29EF001F39EF00D1124E157FD4F53
:10077000EC0FFD1F60810E94F8022196CA30D1055E
:1007800041F7E0918D02F0918E02EE0FFF1FEC5EBB
:10079000FD4F61E080810E94F80280918D0290916E
:1007A0008E02019690938E0280938D0280918D022D
:1007B00090918E02049724F010928E0210928D0276
:1007C000DF91CF911F910F91FF900895E0918D02DD
:1007D000F0918E02EE0FFF1FEE5EFD4F60E0808114
:1007E000B0CFAF92BF92CF92DF92EF92FF920F9372
:1007F0001F93CF93DF936C017B018B01040F151FB7
:10080000EB015E01AE18BF08C017D10759F069911E
:10081000D601ED91FC910190F081E02DC601199572
:10082000892B79F7C501DF91CF911F910F91FF902F
:10083000EF90DF90CF90BF90AF900895FC01538D63
:10084000448D252F30E0842F90E0821B930B5417AA
:1008500010F0CF96089501970895FC01918D828D37
:10086000981761F0A28DAE0FBF2FB11D5D968C91D0
:10087000928D9F5F9F73928F90E008958FEF9FEF0F
:100880000895FC01918D828D981731F0828DE80FCB
:10089000F11D858D90E008958FEF9FEF0895FC0185
:1008A000918D228D892F90E0805C9F4F821B910952
:1008B0008F73992708958FEC92E00E944F0421E0F6
:1008C000892B09F420E0822F0895FC01A48DA80F44
:1008D000B92FB11DA35ABF4F2C91848D90E0019682
:1008E0008F739927848FA689B7892C93A089B189A2
:1008F0008C91837080648C93938D848D981306C043
:100900000288F389E02D80818F7D80830895EF92A6
:10091000FF920F931F93CF93DF93EC0181E0888FB9
:100920009B8D8C8D98131AC0E889F989808185FF89
:1009300015C09FB7F894EE89FF896083E889F9892B
:1009400080818370806480839FBF81E090E0DF912D
:10095000CF911F910F91FF90EF900895F62E0B8D80
:1009600010E00F5F1F4F0F731127E02E8C8D8E113B
:100970000CC00FB607FCFACFE889F989808185FFA2
:10098000F5CFCE010E946504F1CFEB8DEC0FFD2F6A
:10099000F11DE35AFF4FF0829FB7F8940B8FEA895D
:1009A000FB8980818062CFCFCF93DF93EC01888D6C
:1009B0008823B9F0AA89BB89E889F9898C9185FDDA
:1009C00003C0808186FD0DC00FB607FCF7CF8C9168
:1009D00085FFF2CF808185FFEDCFCE010E946504B7
:1009E000E9CFDF91CF91089581E08093C50208950A
:1009F0000E945B04882319F081E08093C50280E0A7
:100A000090E0892B49F080E090E0892B29F00E944A
:100A1000000081110E94000080E090E0892B49F0E5
:100A200080E090E0892B29F00E94000081110E9453
:100A3000000080E090E0892B49F080E090E0892B75
:100A400029F00E94000081110C940000089508957F
:100A5000FB01309729F0948190789660948380838D
:100A60000895CF93DF93EC0188819981DC01ED91AA
:100A7000FC910190F081E02D19952A813B81820F34
:100A8000931F9B838A83DF91CF910895CF93DF9348
:100A9000EC0188819981DC01ED91FC910280F38168
:100AA000E02D19952A813B81820F931F9B838A83B6
:100AB000DF91CF9108958F929F92AF92BF92CF9284
:100AC000DF92EF92FF920F931F93CF93DF93CDB7F7
:100AD000DEB766970FB6F894DEBF0FBECDBF6C01D0
:100AE0008E01095E1F4F78018AE0882E912CA12C7F
:100AF000B12CCB01BA01A50194010E94400F942FA3
:100B0000852F605DF80162938F01A901692F782F0D
:100B1000411551056105710561F7A7014E1B5F0B7A
:100B2000BF01C6010E94460566960FB6F894DEBF67
:100B30000FBECDBFDF91CF911F910F91FF90EF902E
:100B4000DF90CF90BF90AF909F908F9008958F923D
:100B50009F92AF92BF92CF92DF92EF92FF9210924C
:100B6000C5020E946E034B015C0182E3C82ED12CAA
:100B7000E12CF12C0E946E03681979098A099B09FE
:100B8000683E734081059105A8F321E0C21AD1089F
:100B9000E108F10888EE880E83E0981EA11CB11CC4
:100BA000C114D104E104F10429F7FF90EF90DF9024
:100BB000CF90BF90AF909F908F900895FC012581BA
:100BC000222339F0F8E02F0290011124820F931FA5
:100BD000089590E080E00895CF92DF92EF92FF9227
:100BE0000F931F93CF93DF93FC018481982F9F77FE
:100BF00039F4807880628483118210821382128299
:100C0000848185FD0BC080E090E0DF91CF911F9142
:100C10000F91FF90EF90DF90CF90089561157105CF
:100C200091F3EA017B016F0100811181011511052A
:100C300089F1D80116966D917C91C7010E942F1100
:100C4000892B31F1C8010E94DE058C01EFCF389766
:100C5000FD83EC833097B9F2E601AA81BB8110973E
:100C600091F0CF018A1B9B0B23E0959587952A95E0
:100C7000E1F715968C93FB83EA8315821482F78241
:100C8000E682CF01C2CFF983E883FB83EA83F5CF05
:100C9000C801BBCFEC81FD818A819B810896E81752
:100CA000F907A8F681E08887AECFFB01019000200C
:100CB000E9F73197AF01461B570B0C9446051F937C
:100CC000CF93DF93EEE2F2E01281112379F03296B6
:100CD00021816213F9CFEC016CE50E943105612F8F
:100CE000CE01DF91CF911F910C9431056111F9CFA5
:100CF0006FE372E0DF91CF911F910C9455062F9214
:100D00003F924F925F926F927F928F929F92AF929B
:100D1000BF92CF92DF92EF92FF920F931F93CF93E8
:100D2000DF93CDB7DEB76C970FB6F894DEBF0FBE7A
:100D3000CDBF8C011B01DC0114968C9114978F7729
:100D4000863009F492C268F58230A0F11296ED90D7
:100D5000FC901397CC901196DC90843008F056C22A
:100D6000A701B601C1010E944605F101828193816C
:100D70006C960FB6F894DEBF0FBECDBFDF91CF915A
:100D80001F910F91FF90EF90DF90CF90BF90AF90A9
:100D90009F908F907F906F905F904F903F902F909B
:100DA00008958C3069F160F4883009F459C28A30B2
:100DB00009F43FC266E472E0C1010E945506E5C134
:100DC000803209F4ECC18034A9F76BE5C1010E94BF
:100DD0003105F801008111810115110509F4DAC10D
:100DE000B101C8010E947F06C8010E94DE058C0186
:100DF000892B09F4CFC16CE2C1010E943105ECCF0F
:100E0000F801C080D180E280F380A7019601C7017C
:100E1000B6010E94D70F8111CDCF20E030E0A901AB
:100E2000C701B6010E94D70F882379F0A701960168
:100E3000C701B6010E946B0F9B01AC01C701B6014F
:100E40000E94D70F882309F4B5CF20E030E0A90134
:100E5000C701B6010E94D70F87FF08C06DE2C1012C
:100E60000E943105F7FAF094F7F8F09420E836E99B
:100E700048E15BE4C701B6010E94BD1087FD81C057
:100E800074E1A72EB12C00E210E0188E1F8AF50144
:100E9000E856FE4F2591359145915491C701B60111
:100EA0000E94BD1087FD13C0F501E859FE4F259142
:100EB000359145915491C701B6010E94C2106B0152
:100EC0007C012F89388D200F311F388F2F8B15957E
:100ED000079534E0A31AB1088CEFA8168FEFB80677
:100EE000B1F655245A9420E030E0A901C701B601BB
:100EF0000E94BD1018160CF04BC02CEA35EC47E2EE
:100F000057E3C701B6010E94D70F18160CF440C072
:100F1000A52DB4E0AB02C0011124B12CA12CFC0121
:100F2000E058FE4F3F019C0128563E4F49013FEFDC
:100F3000531671F1F301EA0DFB1D25913591459191
:100F40005491C701B6010E94D70F87FF13C0F40167
:100F5000EA0DFB1D2591359145915491C701B601CC
:100F60000E94C2106B017C018F89988D801B910BB0
:100F7000988F8F8B159507955A9494E0A91AB1080C
:100F8000D6CF00E210E055E0552E188E1F8AABCF69
:100F9000C701B6010E94DC0F4B015C012B013C0133
:100FA00006E080E492E4AFE0B0E0898F9A8FAB8FE7
:100FB000BC8F102F01509AE049165104610471044E
:100FC000C8F0698D7A8D8B8D9C8D2AE030E040E0F1
:100FD00050E00E94400F298F3A8F4B8F5C8FC301E6
:100FE000B2012AE030E040E050E00E94400F2901C9
:100FF0003A01DFCFC501B4010E940B109B01AC0187
:10100000C701B6010E946A0F6B017C01698D7A8D60
:101010008B8D9C8D0E940B109B01AC01C701B6010A
:101020000E94C2102B013C010E94DC0F6B017C016D
:101030000E940B109B01AC01C301B2010E946A0F18
:101040009B01AC010E946B0F0E94DC0FC60ED71EE5
:10105000E81EF91E898D9A8DAB8DBC8DC816D906F8
:10106000EA06FB06D8F09FEF891A990AA90AB90A7D
:10107000AF89B88DAB2B39F1BAE08B169104A1047E
:10108000B10408F1EF89F88D3196F88FEF8BC12C00
:10109000D12C7601812C912C540183942AE0422E8C
:1010A000512C612C712CC701B601A30192010E9441
:1010B000400F672B682B692B51F4111644F469011A
:1010C0007A011150F0CFC12CD12C7601E7CFB501B8
:1010D000A401C1010E945B05112371F14E01F1E1F0
:1010E0008F0E911C012F54019AE0492E512C612C36
:1010F000712C015068F0C701B601A30192010E9452
:10110000400F605DD4016E934D0169017A01F1CF0A
:10111000812F90E0BC0160957095F501E81BF90BFB
:1011200031978EE2808344275527461B570B6A0D63
:101130007B1DC1010E944605EF89F88DEF2B29F137
:1011400065E6C1010E9431050F89188D17FF07C0A0
:101150006DE2C1010E943105119501951109FE0151
:1011600077969F018AE0E82EF12CC801B7010E9412
:10117000180F805D82938B01672BB9F7A9014E1B75
:101180005F0BBF01C1010E944605D10112968D91EE
:101190009C91EECD6DE5C1010E943105F6CF6BE764
:1011A000C1010E943105F80100811181011511056D
:1011B00059F1D8011696CC9016971796DC9062E2FA
:1011C000C1010E9431057601F70161917F0166231B
:1011D00021F0C1010E945F06F7CF62E2C1010E94C7
:1011E00031056AE3C1010E943105B101C8010E94C5
:1011F0007F06C8010E94DE058C01892B29F06CE274
:10120000C1010E943105D2CF6DE7C5CF62E2C101B5
:101210000E9431058601E00EF11EE016F10639F05C
:10122000F80161918F01C1010E945F06F6CF62E271
:10123000B2CFCD90DD90ED90FC90B701A601F7FE06
:101240000BC06DE2C1010E94310544275527BA0148
:101250004C195D096E097F09C1010E945B0585CDAE
:101260004D915D916D917C91F7CF8C916BE472E023
:10127000811102C060E572E0C1010E94550675CD82
:10128000CF92DF92EF92FF920F931F93CF93DF9352
:10129000CDB7DEB7C650D2400FB6F894DEBF0FBE52
:1012A000CDBFCE010F969A8389839C838B838E0159
:1012B0000D5F1D4F1E830D8318870F8319861E86B1
:1012C0008FB7F894C090C702D090C802E090C902CE
:1012D000F090CA028FBFAE014F5F5F4F66E572E0CC
:1012E000CE010A960E94EC05FC01892B41F0948105
:1012F000907898609483C082D182E282F382AE01BA
:101300004F5F5F4F6BE572E0CE010A960E94EC05DD
:10131000BC018091BF020E942805AE014F5F5F4F64
:1013200061E672E0CE010A960E94EC05BC01809154
:10133000BE020E942805AE014F5F5F4F67E672E074
:10134000CE010A960E94EC05BC018091BD020E946C
:101350002805AE014F5F5F4F6DE672E0CE010A9641
:101360000E94EC05BC018091BC020E942805AE01E0
:101370004F5F5F4F63E772E0CE010A960E94EC0573
:10138000BC018091BB020E942805AE014F5F5F4FF8
:101390006BE772E0CE010A960E94EC05FC01892BF6
:1013A00081F02091B9023091BA02948190789A60CC
:1013B0009483C901330FAA0BBB0B80839183A28353
:1013C000B383AE014F5F5F4F62E872E0CE010A96D1
:1013D0000E94EC05FC01892B81F02091B70230912D
:1013E000B802948190789A609483C901330FAA0B54
:1013F000BB0B80839183A283B3838FEC92E0F801CF
:101400009183808313821282B801CE010A960E94D2
:101410007F0642E050E069E872E08FEC92E00E94C3
:10142000F10310928C02CA5FDD4F0FB6F894DEBF55
:101430000FBECDBFDF91CF911F910F91FF90EF9025
:10144000DF90CF9008951F920F920FB60F92112444
:101450002F933F938F939F93AF93BF938091C70236
:101460009091C802A091C902B091CA023091C602FF
:1014700023E0230F2D3758F50196A11DB11D2093B0
:10148000C6028093C7029093C802A093C902B0938A
:10149000CA028091CB029091CC02A091CD02B09172
:1014A000CE020196A11DB11D8093CB029093CC0278
:1014B000A093CD02B093CE02BF91AF919F918F9137
:1014C0003F912F910F900FBE0F901F90189526E817
:1014D000230F0296A11DB11DD2CF1F920F920FB6FE
:1014E0000F9211240BB60F922F933F934F935F935C
:1014F0006F937F938F939F93AF93BF93EF93FF93DC
:101500008FEC92E00E946504FF91EF91BF91AF9143
:101510009F918F917F916F915F914F913F912F910B
:101520000F900BBE0F900FBE0F901F9018951F923B
:101530000F920FB60F9211240BB60F922F938F9329
:101540009F93EF93FF93E091DF02F091E00280819F
:10155000E091E502F091E60282FD1DC0908180914C
:10156000E8028F5F8F732091E902821741F0E091CA
:10157000E802F0E0E153FD4F958F8093E802FF9180
:10158000EF919F918F912F910F900BBE0F900FBEF7
:101590000F901F9018958081F2CF1F920F920FB677
:1015A0000F9211240BB60F92CF92DF92EF92FF921F
:1015B0002F933F934F935F936F937F938F939F935B
:1015C000AF93BF93EF93FF93C0907803D0907903CC
:1015D000E0907A03F0907B0380916D03833009F0F3
:1015E0004DC0C114D104E104F10409F4D5C08091C7
:1015F0006C03882309F45BC0E0918003F0918103C0
:10160000309741F08091820390918303009709F411
:101610004CC019958091700390917103A091720351
:10162000B09173030097A140B105B4F0F894809194
:10163000700390917103A0917203B0917303809332
:10164000740390937503A0937603B09377030E947D
:101650009C0110926C0378941C141D041E041F043A
:101660006CF481E0C81AD108E108F108C09278034F
:10167000D0927903E0927A03F0927B03FF91EF918D
:10168000BF91AF919F918F917F916F915F914F919A
:101690003F912F91FF90EF90DF90CF900F900BBE76
:1016A0000F900FBE0F901F9018951995B3CFF89417
:1016B00020916D038091740390917503A09176033E
:1016C000B0917703223009F447C08F3F9F4FA105A7
:1016D000B10510F40E949C018091740390917503F0
:1016E000A0917603B0917703AC01BD01009721E092
:1016F000A207B10520F04FEF5FEF60E070E0841BC0
:10170000950BA60BB70B8093740390937503A0936E
:101710007603B09377038091740390917503A09141
:101720007603B0917703892B8A2B8B2B91F58091CF
:10173000700390917103A0917203B0917303809331
:10174000740390937503A0937603B093770381E0BD
:1017500080936C03789492CF8F3F9105A105B105DA
:1017600010F40E949C018091740390917503A091E4
:101770007603B0917703AC01BD018F3F9105A105C0
:10178000B10509F008F4BBCF4FEF50E060E070E026
:10179000B6CF10926C03DECFF89480916D03833046
:1017A000D9F054F4813091F08230A1F6809170002C
:1017B0008D7F80937000CECF8430A1F0853051F6BC
:1017C000809173008D7F80937300C4CF80916F00F0
:1017D0008D7F80936F00BECF809171008D7F80934D
:1017E0007100B8CF809172008D7F80937200B2CF6C
:1017F000EFECF2E01382128288EE93E0A0E0B0E01A
:1018000084839583A683B78380E292E0918380836B
:1018100085EC90E09587848784EC90E097878687B5
:1018200080EC90E0918B808B81EC90E0938B828BAD
:1018300082EC90E0958B848B86EC90E0978B868B86
:10184000118E128E138E148EECE6F3E083E081830A
:10185000108A118A128A138A158A148A178A168A9C
:10186000108281E090E09383828314821582168235
:10187000178210861186128613868FEF9FEFDC0188
:1018800084879587A687B7870895789484B5826002
:1018900084BD84B5816084BD85B5826085BD85B514
:1018A000816085BD80916E00816080936E00109292
:1018B000810080918100826080938100809181000D
:1018C000816080938100809180008160809380009E
:1018D0008091B10084608093B1008091B0008160FC
:1018E0008093B000809191008260809391008091FC
:1018F000910081608093910080919000816080933D
:1019000090008091A10082608093A1008091A1004D
:1019100081608093A1008091A00081608093A000ED
:101920008091210182608093210180912101816059
:10193000809321018091200181608093200180911A
:101940007A00846080937A0080917A00826080932C
:101950007A0080917A00816080937A0080917A0089
:10196000806880937A001092C100E091DF02F091CC
:10197000E00282E08083E091DB02F091DC021082E1
:10198000E091DD02F091DE0281E080831092E702B7
:10199000E091E302F091E40286E08083E091E102CD
:1019A000F091E202808180618083E091E102F09118
:1019B000E202808188608083E091E102F091E2029E
:1019C000808180688083E091E102F091E202808171
:1019D0008F7D80830FE812E090E080E0F801E80F4F
:1019E000F91F108201968A309105C1F7065F1F4FDB
:1019F00082E0073B180781F760E085E10E9426033B
:101A000060E084E10E94260360E083E10E942603F7
:101A100060E082E10E94260361E082E00E942603EA
:101A200061E083E00E94260361E084E00E942603D7
:101A300061E085E00E94260361E08FE10E942603B9
:101A400061E080E20E94260361E081E20E942603B9
:101A500061E082E20E94260361E083E20E942603A5
:101A600061E084E20E94260361E085E20E94260391
:101A700061E086E20E94260361E087E20E9426037D
:101A800061E088E20E94260361E08BE00E94260369
:101A900061E08AE00E94260361E089E00E9426035B
:101AA00061E088E00E94260361E087E00E9426034F
:101AB00060E086E00E94260360E087E30E94260340
:101AC00060E086E30E94260380916D03F8948330E2
:101AD00009F4DAC00CF0A5C0813009F4B7C0823037
:101AE00009F4C3C080936D03789480916D03181638
:101AF0000CF04EC08FEF9FEFDC0180937803909342
:101B00007903A0937A03B0937B038FE798E3A1E076
:101B1000B0E08093700390937103A0937203B0932D
:101B200073038093740390937503A0937603B0932B
:101B3000770381E090E090936F0380936E03F894B5
:101B400080E090E0A8E4B3E480937C0390937D036D
:101B5000A0937E03B0937F0383E993E09093810386
:101B600080938003109283031092820310926C037F
:101B700080916D03823009F0A5C08091B100887F0B
:101B800090916E03892B8093B1000E949C01789400
:101B900084EFC82EDD24D394E12CF12C93E1892E1F
:101BA000912CA12CB12C23E0622E712CD7E0C1E046
:101BB0008091C502882321F00E94A7050E94400958
:101BC0002FB7F8946091C7027091C8028091C90242
:101BD0009091CA022FBFA70196010E94400FCA012F
:101BE000B901A50194010E94400F1092C402109205
:101BF000C3021092C2021092C1021092C002FB01F5
:101C00006730710508F004C18827E65FF14F8F4FF8
:101C10000C94620F8F0EE80EEB0EEE0EF10EF40E2A
:101C2000FE0E843009F43FC0853009F05BCF10927E
:101C3000200110922101909121019860909321013F
:101C4000909121019160909321014CCF10928000DE
:101C50001092810090918100986090938100909102
:101C600081009160909381003DCF1092B00010925E
:101C7000B1009091B00092609093B0009091B1004B
:101C800091609093B1002ECF10929000109291002D
:101C90009091910098609093910090919100916043
:101CA000909391001FCF1092A0001092A1009091EC
:101CB000A10098609093A1009091A10091609093F1
:101CC000A10010CF813049F480918100887F9091EC
:101CD0006E03892B8093810058CF833049F4809123
:101CE0009100887F90916E03892B809391004DCF56
:101CF000843049F48091A100887F90916E03892BF4
:101D00008093A10042CF853009F03FCF809121011F
:101D1000887F90916E03892B8093210136CFC093E9
:101D2000C40285E10E94CF0221E0892B09F020E066
:101D30002093BF0284E10E94CF0221E0892B09F0A9
:101D400020E02093BE0283E10E94CF0221E0892B94
:101D500009F020E02093BD0282E10E94CF0221E041
:101D6000892B09F020E02093BC0286E00E94CF027C
:101D700021E0892B09F020E02093BB0287E30E9439
:101D800057039093BA028093B90286E30E945703E7
:101D90009093B8028093B7026091C4028BE00E94D6
:101DA000F8026091C3028AE00E94F8026091C202C8
:101DB00089E00E94F8026091C10288E00E94F80266
:101DC0006091C00287E00E94F8020E94F804F0CE01
:101DD000C093C102A6CFC093C302A3CFC093C202D7
:101DE000A0CFC093C0029DCFEFE8F2E0C083C183D3
:101DF000C2833A960E171F07C9F793CFEFE8F2E0B8
:101E00001082118212823A960E171F07C9F789CFE6
:101E10003697CF01B3010E942C0FD69FC001D79FE8
:101E2000900D112481579D4FE80FF91FC08379CF82
:101E3000AA1BBB1B51E107C0AA1FBB1FA617B707F0
:101E400010F0A61BB70B881F991F5A95A9F780950C
:101E50009095BC01CD01089597FB072E16F40094D0
:101E600007D077FD09D00E94180F07FC05D03EF47B
:101E7000909581959F4F0895709561957F4F089536
:101E8000A1E21A2EAA1BBB1BFD010DC0AA1FBB1F7E
:101E9000EE1FFF1FA217B307E407F50720F0A21BF0
:101EA000B30BE40BF50B661F771F881F991F1A945D
:101EB00069F760957095809590959B01AC01BD0187
:101EC000CF010895EE0FFF1F881F8BBF0790F6917B
:101ED000E02D19945058BB27AA270E94820F0C941A
:101EE00083100E94751038F00E947C1020F039F4A5
:101EF0009F3F19F426F40C9472100EF4E095E7FB62
:101F00000C946C10E92F0E94941058F3BA176207D2
:101F100073078407950720F079F4A6F50C94B610A2
:101F20000EF4E0950B2EBA2FA02D0B01B9019001F4
:101F30000C01CA01A0011124FF27591B99F0593F38
:101F400050F4503E68F11A16F040A22F232F342F80
:101F50004427585FF3CF469537952795A795F040CE
:101F60005395C9F77EF41F16BA0B620B730B840BE3
:101F7000BAF09150A1F0FF0FBB1F661F771F881F9B
:101F8000C2F70EC0BA0F621F731F841F48F48795F3
:101F900077956795B795F7959E3F08F0B0CF9395E5
:101FA000880F08F09927EE0F9795879508950E945E
:101FB000481008F481E008950E949C1088F09F5713
:101FC00098F0B92F9927B751B0F0E1F0660F771F5D
:101FD000881F991F1AF0BA95C9F714C0B13091F053
:101FE0000E94B610B1E008950C94B610672F782FB8
:101FF0008827B85F39F0B93FCCF386957795679518
:10200000B395D9F73EF490958095709561957F4F83
:102010008F4F9F4F0895E89409C097FB3EF4909529
:102020008095709561957F4F8F4F9F4F9923A9F0B1
:10203000F92F96E9BB279395F69587957795679540
:10204000B795F111F8CFFAF4BB0F11F460FF1BC084
:102050006F5F7F4F8F4F9F4F16C0882311F096E917
:1020600011C0772321F09EE8872F762F05C06623C5
:1020700071F096E8862F70E060E02AF09A95660F7E
:10208000771F881FDAF7880F9695879597F9089537
:10209000990F0008550FAA0BE0E8FEEF1616170679
:1020A000E807F907C0F012161306E407F50798F0E1
:1020B000621B730B840B950B39F40A2661F0232BFA
:1020C000242B252B21F408950A2609F4A140A69576
:1020D0008FEF811D811D089597F99F6780E870E05B
:1020E00060E008959FEF80EC089500240A9416168E
:1020F000170618060906089500240A9412161306F6
:10210000140605060895092E0394000C11F4882383
:1021100052F0BB0F40F4BF2B11F460FF04C06F5F9F
:102120007F4F8F4F9F4F089557FD9058440F551F75
:1021300059F05F3F71F04795880F97FB991F61F049
:102140009F3F79F087950895121613061406551FC0
:10215000F2CF4695F1DF08C0161617061806991F2C
:10216000F1CF86957105610508940895E894BB2721
:1021700066277727CB0197F908950E94481008F445
:102180008FEF08950E94D5100C9483100E94751053
:1021900038F00E947C1020F0952311F00C946C1004
:1021A0000C94721011240C94B7100E94941070F3C8
:1021B000959FC1F3950F50E0551F629FF001729FEC
:1021C000BB27F00DB11D639FAA27F00DB11DAA1FFB
:1021D000649F6627B00DA11D661F829F2227B00D48
:1021E000A11D621F739FB00DA11D621F839FA00DD3
:1021F000611D221F749F3327A00D611D231F849F23
:10220000600D211D822F762F6A2F11249F57504079
:102210009AF0F1F088234AF0EE0FFF1FBB1F661FF4
:10222000771F881F91505040A9F79E3F510580F0BD
:102230000C946C100C94B7105F3FE4F3983ED4F309
:10224000869577956795B795F795E7959F5FC1F761
:10225000FE2B880F911D9695879597F90895FB01A0
:10226000DC018D91019080190110D9F3990B08952B
:04227000F894FFCF10
:102274001F00200021002200230024002500260046
:1022840027002800020003000400050000000000ED
:102294008704F1031E04D4044F042D0441042F2F9A
:1022A40022225C5C6208660C6E0A720D7409005C82
:1022B4007530303030006E756C6C0074727565006A
:1022C40066616C73650074696D650062746E5F317C
:1022D4000062746E5F320062746E5F330062746E0B
:1022E4005F340062746E5F6A6F79006A6F795F6849
:0C22F40062006A6F795F6764000D0A00E9
:00000001FF
