:100000000C9445010C9476010C9476010C947601C5
:100010000C9476010C9476010C9476010C94760184
:100020000C9476010C9476010C9476010C94760174
:100030000C9476010C9476010C9476010C94760164
:100040000C9476010C9476010C9476010C94760154
:100050000C9476010C9476010C9476010C9449056D
:100060000C9476010C94BD050C9493050C947601C8
:100070000C9476010C9476010C9476010C94760124
:100080000C94F3050C9476010C9476010C94760193
:100090000C9476010C9476010C9476010C94760104
:1000A0000C9476010C9476010C9476010C947601F4
:1000B0000C9476010C9476010C9476010C947601E4
:1000C0000C9476010C9476010C9476010C947601D4
:1000D0000C9476010C9476010C9476010C947601C4
:1000E0000C9476010C94550A0C94680A0C94520AEC
:1000F0000C9495020C9481020C943B040C947D02A8
:100100000C945B0A0C948F020C9487020C94950457
:100110000C9470020C94A2020C9462020C94E704FA
:100120000C9477020C948B020C9474020C94990238
:100130000C946C020C945D040C94AF090C941E0793
:100140000C94A7020C9468020C945E0A0C944F0461
:100150000C94A1030C94580A0C949D020C942C044A
:100160000C94A3020C94FF0300002100240027003C
:100170002A002D00300033000101000004010701B6
:100180000A0100002200250028002B002E0031006B
:10019000340002010000050108010B0100002000ED
:1001A0002300260029002C002F003200000100004F
:1001B00003010601090105050505070508080808EA
:1001C000020202020A0A08080404040401010101EF
:1001D00001010101030303030303030304070707EA
:1001E0000C0C0C0C0C0C0C0C02020202060606068F
:1001F000060606060B0B0B0B0B0B0B0B010210205C
:10020000200808102040102040800201020108044C
:1002100002010102040810204080804020100804E0
:100220000201800402018040201008040201080439
:10023000020101020408102040800102040810207D
:10024000408000000A0B02090C0D0E080703040190
:10025000000000000000000000000000000000009E
:10026000000000000000000000000000000012116B
:10027000100000000000000000000000000000006E
:1002800000000000000000001E0711241FBECFEF79
:10029000D1E2DEBFCDBF00E00CBF12E0A0E0B2E0D3
:1002A000EEEAF5E100E00BBF02C007900D92A23329
:1002B000B107D9F723E0A2E3B2E001C01D92A53255
:1002C000B207E1F711E0C5E4D1E000E006C02197F4
:1002D0000109802FFE010E94B90AC434D10780E0D1
:1002E0000807A9F70E946B070C94D50A0C9400002C
:1002F0008091150390911603A0911703B0911803F4
:1003000020910E03233009F47DC0ACF42130C9F1F3
:10031000223009F457C08091150390911603A091E3
:100320001703B0911803892B8A2B8B2B19F481E0CA
:1003300080930D030895243009F485C0253059F7C2
:10034000AC01BD01009721E0A207B10520F04FEFFD
:100350005FEF60E070E05093290140932801841B17
:10036000950BA60BB70B8093150390931603A093E0
:100370001703B09318038091730082608093730019
:10038000CACFAC01BD01009721E0A207B10520F062
:100390004FEF5FEF60E070E050938900409388007A
:1003A000841B950BA60BB70B809315039093160334
:1003B000A0931703B093180380916F00826080931D
:1003C0006F00A9CFAC01BD018F3F9105A105B1051B
:1003D00029F020F04FEF50E060E070E04093B30070
:1003E000841B950BA60BB70B8093150390931603F4
:1003F000A0931703B09318038091700082608093DC
:10040000700089CFAC01BD01009721E0A207B105C2
:1004100020F04FEF5FEF60E070E050939900409361
:100420009800841B950BA60BB70B80931503909334
:100430001603A0931703B093180380917100826094
:100440008093710068CFAC01BD01009721E0A20745
:10045000B10520F04FEF5FEF60E070E05093A9002E
:100460004093A800841B950BA60BB70B8093150334
:1004700090931603A0931703B09318038091720012
:1004800082608093720047CF8150823108F05AC059
:10049000E82FF0E08827E05BFD4F8F4F0C94B90AFE
:1004A00070027402620268026C02A20277027D028C
:1004B000810287028B028F0295029902A2029D029D
:1004C000A302A702809180008F7780938000089517
:1004D000809180008F7DF9CF80918000877FF5CF5C
:1004E00084B58F7784BD089584B58F7DFBCF8091CF
:1004F000B0008F778093B00008958091B0008F7D19
:10050000F9CF809190008F7780939000089580912B
:1005100090008F7DF9CF80919000877FF5CF8091FB
:10052000A0008F778093A00008958091A0008F7D18
:10053000F9CF8091A000877FF5CF809120018F7740
:10054000809320010895809120018F7DF9CF8091C3
:100550002001877FF5CFCF93DF93282F30E0F9017B
:10056000EE5BFD4F8491F901E450FE4FD491F90107
:10057000EA54FE4FC491CC23A1F081110E944402A1
:10058000EC2FF0E0EE0FFF1FE456FE4FA591B49163
:10059000EC91ED2381E090E009F480E0DF91CF91D0
:1005A000089580E090E0FACF1F93CF93DF93282F38
:1005B00030E0F901EE5BFD4F8491F901E450FE4F0C
:1005C000D491F901EA54FE4FC491CC23A9F0162F1F
:1005D00081110E944402EC2FF0E0EE0FFF1FEE5756
:1005E000FE4FA591B4918FB7F894EC91111108C00A
:1005F000D095DE23DC938FBFDF91CF911F910895BB
:10060000DE2BF8CFCF93DF9390E0FC01E450FE4F58
:1006100024918A549E4FFC0184918823D1F090E06C
:10062000880F991FFC01E859FE4FA591B491FC0178
:10063000EE57FE4FC591D49161110EC09FB7F8944B
:100640008C91E22FE0958E238C932881E223E8831E
:100650009FBFDF91CF9108958FB7F894EC91E22B73
:10066000EC938FBFF6CF90917B00977F90937B00A8
:100670008653806480937C0080917A0080648093AC
:100680007A0080917A0086FDFCCF8091780090916D
:10069000790008953FB7F89480916C0290916D02B3
:1006A000A0916E02B0916F0226B5A89B05C02F3FA6
:1006B00019F00196A11DB11D3FBFBA2FA92F982F88
:1006C0008827BC01CD01620F711D811D911D42E083
:1006D000660F771F881F991F4A95D1F708958F924B
:1006E0009F92AF92BF92CF92DF92EF92FF924B0117
:1006F0005C010E944A036B017C010E944A036C1951
:100700007D098E099F09683E734081059105A8F314
:1007100021E0821A9108A108B10888EEC80E83E092
:10072000D81EE11CF11C81149104A104B10429F725
:10073000FF90EF90DF90CF90BF90AF909F908F9001
:100740000895FF920F931F93CF93DF93809134020C
:1007500090913502892B09F047C060E085E00E9446
:10076000D40203E012E0D0E0C0E09AE0F92E20913C
:10077000340230913502F80180810E5F1F4FF29EE6
:10078000F001F39EF00D1124EA5CFD4FEC0FFD1F0C
:1007900060810E94D4022196CA30D10541F7E091D0
:1007A0003402F0913502EE0FFF1FE95EFD4F61E06C
:1007B00080810E94D402809134029091350201968A
:1007C00090933502809334028091340290913502E7
:1007D000049724F01092350210923402DF91CF91E9
:1007E0001F910F91FF900895E0913402F09135022E
:1007F000EE0FFF1FEB5EFD4F60E08081B0CFAF9248
:10080000BF92CF92DF92EF92FF920F931F93CF93FD
:10081000DF936C017B018B01040F151FEB015E015F
:10082000AE18BF08C017D10759F06991D601ED91F4
:10083000FC910190F081E02DC6011995892B79F783
:10084000C501DF91CF911F910F91FF90EF90DF9045
:10085000CF90BF90AF900895FC01538D448D252F0C
:1008600030E0842F90E0821B930B541710F0CF964A
:10087000089501970895FC01918D828D981761F07C
:10088000A28DAE0FBF2FB11D5D968C91928D9F5F93
:100890009F73928F90E008958FEF9FEF0895FC0172
:1008A000918D828D981731F0828DE80FF11D858D25
:1008B00090E008958FEF9FEF0895FC01918D228DB8
:1008C000892F90E0805C9F4F821B91098F7399273D
:1008D000089580E792E00E945D0421E0892B09F4ED
:1008E00020E0822F0895FC01A48DA80FB92FB11D1F
:1008F000A35ABF4F2C91848D90E001968F73992756
:10090000848FA689B7892C93A089B1898C91837033
:1009100080648C93938D848D981306C00288F3892C
:10092000E02D80818F7D80830895EF92FF920F9359
:100930001F93CF93DF93EC0181E0888F9B8D8C8D8B
:1009400098131AC0E889F989808185FF15C09FB77F
:10095000F894EE89FF896083E889F9898081837042
:10096000806480839FBF81E090E0DF91CF911F91F1
:100970000F91FF90EF900895F62E0B8D10E00F5F12
:100980001F4F0F731127E02E8C8D8E110CC00FB6E8
:1009900007FCFACFE889F989808185FFF5CFCE0180
:1009A0000E947304F1CFEB8DEC0FFD2FF11DE35A84
:1009B000FF4FF0829FB7F8940B8FEA89FB89808103
:1009C0008062CFCF682F80E792E00C949504CF939C
:1009D000DF93EC01888D8823B9F0AA89BB89E88967
:1009E000F9898C9185FD03C0808186FD0DC00FB60D
:1009F00007FCF7CF8C9185FFF2CF808185FFEDCF8B
:100A0000CE010E947304E9CFDF91CF91089580E079
:100A100090E0892B29F00E94690481110E94000056
:100A200080E090E0892B49F080E090E0892B29F06C
:100A30000E94000081110E94000080E090E0892B5C
:100A400049F080E090E0892B29F00E94000081119C
:100A50000E94000080E090E0892B49F080E090E067
:100A6000892B29F00E94000081110C940000089548
:100A7000FC01208131812150310980E02330310592
:100A800020F420503E4FD9018C91928191118460C5
:100A900008951F920F920FB60F9211242F933F9338
:100AA0008F939F93AF93BF93809168029091690257
:100AB000A0916A02B0916B023091670223E0230F8C
:100AC0002D3758F50196A11DB11D20936702809323
:100AD000680290936902A0936A02B0936B028091BE
:100AE0006C0290916D02A0916E02B0916F0201961E
:100AF000A11DB11D80936C0290936D02A0936E02B4
:100B0000B0936F02BF91AF919F918F913F912F91C1
:100B10000F900FBE0F901F90189526E8230F029696
:100B2000A11DB11DD2CF1F920F920FB60F921124AB
:100B30000BB60F922F933F934F935F936F937F93D7
:100B40008F939F93AF93BF93EF93FF9380E792E0D0
:100B50000E947304FF91EF91BF91AF919F918F918C
:100B60007F916F915F914F913F912F910F900BBEAD
:100B70000F900FBE0F901F9018951F920F920FB6F7
:100B80000F9211240BB60F922F938F939F93EF9395
:100B9000FF93E0918002F09181028081E0918602D2
:100BA000F091870282FD1DC09081809189028F5F44
:100BB0008F7320918A02821741F0E0918902F0E060
:100BC000E059FD4F958F80938902FF91EF919F919E
:100BD0008F912F910F900BBE0F900FBE0F901F9013
:100BE00018958081F2CF1F920F920FB60F921124A9
:100BF0000BB60F92CF92DF92EF92FF922F933F931B
:100C00004F935F936F937F938F939F93AF93BF9314
:100C1000EF93FF93C0901903D0901A03E0901B0349
:100C2000F0901C0380910E03833009F04DC0C11475
:100C3000D104E104F10409F4D5C080910D038823A7
:100C400009F45BC0E0912103F0912203309741F059
:100C50008091230390912403009709F44CC01995C7
:100C60008091110390911203A0911303B09114038A
:100C70000097A140B105B4F0F894809111039091D0
:100C80001203A0911303B091140380931503909362
:100C90001603A0931703B09318030E9478011092D3
:100CA0000D0378941C141D041E041F046CF481E0D1
:100CB000C81AD108E108F108C0921903D0921A03AA
:100CC000E0921B03F0921C03FF91EF91BF91AF9153
:100CD0009F918F917F916F915F914F913F912F9154
:100CE000FF90EF90DF90CF900F900BBE0F900FBE54
:100CF0000F901F9018951995B3CFF89420910E037B
:100D00008091150390911603A0911703B0911803D9
:100D1000223009F447C08F3F9F4FA105B10510F461
:100D20000E9478018091150390911603A0911703FA
:100D3000B0911803AC01BD01009721E0A207B105F5
:100D400020F04FEF5FEF60E070E0841B950BA60B87
:100D5000B70B8093150390931603A0931703B093DA
:100D600018038091150390911603A0911703B09179
:100D70001803892B8A2B8B2B91F58091110390916D
:100D80001203A0911303B091140380931503909361
:100D90001603A0931703B093180381E080930D030B
:100DA000789492CF8F3F9105A105B10510F40E9470
:100DB00078018091150390911603A0911703B091CB
:100DC0001803AC01BD018F3F9105A105B10509F0E4
:100DD00008F4BBCF4FEF50E060E070E0B6CF109268
:100DE0000D03DECFF89480910E038330D9F054F4D4
:100DF000813091F08230A1F6809170008D7F8093D8
:100E00007000CECF8430A1F0853051F68091730010
:100E10008D7F80937300C4CF80916F008D7F80930E
:100E20006F00BECF809171008D7F80937100B8CF2D
:100E3000809172008D7F80937200B2CFE0E7F2E084
:100E40001382128288EE93E0A0E0B0E08483958361
:100E5000A683B78383E292E09183808385EC90E060
:100E60009587848784EC90E09787868780EC90E074
:100E7000918B808B81EC90E0938B828B82EC90E065
:100E8000958B848B86EC90E0978B868B118E128EDF
:100E9000138E148EEDE0F3E083E08183108A118AD3
:100EA000128A138A158A148A178A168A108281E098
:100EB00090E09383828314821582168217821086B3
:100EC0001186128613868FEF9FEFDC01848795874A
:100ED000A687B7870895CF93DF9300D0CDB7DEB74D
:100EE000789484B5826084BD84B5816084BD85B505
:100EF000826085BD85B5816085BD80916E00816011
:100F000080936E00109281008091810082608093B6
:100F100081008091810081608093810080918000B8
:100F20008160809380008091B10084608093B100E3
:100F30008091B00081608093B000809191008260C8
:100F400080939100809191008160809391008091C5
:100F500090008160809390008091A10082608093D6
:100F6000A1008091A10081608093A1008091A000E8
:100F700081608093A0008091210182608093210193
:100F80008091210181608093210180912001816005
:100F90008093200180917A00846080937A00809110
:100FA0007A00826080937A0080917A0081608093D9
:100FB0007A0080917A00806880937A001092C10054
:100FC000E0918002F091810282E08083E0917C02D6
:100FD000F0917D021082E0917E02F0917F028FEC11
:100FE000808310928802E0918402F091850286E06D
:100FF0008083E0918202F09183028081806180830E
:10100000E0918202F0918302808188608083E09188
:101010008202F0918302808180688083E091820265
:10102000F091830280818F7D80832EE532E096E30C
:10103000692E92E0792E90E080E0F301E80FF91F2D
:10104000108201968A309105C1F78AE0680E711C02
:101050002615370581F760E085E10E94020360E014
:1010600084E10E94020360E083E10E94020360E0E9
:1010700082E10E94020361E082E00E94020361E0DB
:1010800083E00E94020361E084E00E94020361E0C9
:1010900085E00E94020361E08FE10E94020361E0AB
:1010A00080E20E94020361E081E20E94020361E0AB
:1010B00082E20E94020361E083E20E94020361E097
:1010C00084E20E94020361E085E20E94020361E083
:1010D00086E20E94020361E087E20E94020361E06F
:1010E00088E20E94020361E08BE00E94020361E05B
:1010F0008AE00E94020361E089E00E94020361E04D
:1011000088E00E94020361E087E00E94020360E041
:1011100086E00E94020360E087E30E94020360E031
:1011200086E30E94020380910E03F894833009F451
:10113000CBC00CF096C0813009F4A8C0823009F40D
:10114000B4C080930E03789480910E0318160CF0AF
:101150004EC08FEF9FEFDC018093190390931A0329
:10116000A0931B03B0931C038FE798E3A1E0B0E0CA
:101170008093110390931203A0931303B09314036D
:101180008093150390931603A0931703B09318034D
:1011900081E090E09093100380930F03F89480E037
:1011A00090E0A8E4B3E480931D0390931E03A09302
:1011B0001F03B093200381EA93E09093220380936E
:1011C0002103109224031092230310920D038091A7
:1011D0000E03823009F096C08091B100887F909113
:1011E0000F03892B8093B1000E947801789483E1EA
:1011F000282E312C412C512C07E011E02FB7F89408
:10120000609168027091690280916A0290916B020C
:101210002FBF24EF31E040E050E00E94970ACA015E
:10122000B901A20191010E94970A109262021092E4
:1012300061021092600210925F0210925E02FB0146
:101240006730710508F04EC18827E65DF64F8F4F75
:101250000C94B90AAF09520A550A580A5B0A5E0A89
:10126000680A843009F43FC0853009F06ACF1092D3
:101270002001109221019091210198609093210109
:10128000909121019160909321015BCF1092800099
:1012900010928100909181009860909381009091CC
:1012A00081009160909381004CCF1092B000109219
:1012B000B1009091B00092609093B0009091B10015
:1012C00091609093B1003DCF1092900010929100E8
:1012D000909191009860909391009091910091600D
:1012E000909391002ECF1092A0001092A1009091A7
:1012F000A10098609093A1009091A10091609093BB
:10130000A1001FCF813049F480918100887F9091A6
:101310000F03892B8093810067CF833049F480913C
:101320009100887F90910F03892B809391005CCF6F
:10133000843049F48091A100887F90910F03892B1C
:101340008093A10051CF853009F04ECF80912101CB
:10135000887F90910F03892B8093210145CF1093B3
:10136000620285E10E94AB024C0181E0811491048C
:1013700009F080E08093660284E10E94AB025C0188
:1013800081E0A114B10409F080E08093650283E15B
:101390000E94AB026C0181E0C114D10409F080E02D
:1013A0008093640282E10E94AB027C0181E0E1143F
:1013B000F10409F080E08093630286E00E94AB02B2
:1013C00087E30E94330386E30E9433036091620245
:1013D0008BE00E94D402609161028AE00E94D402F4
:1013E0006091600289E00E94D40260915F0288E00F
:1013F0000E94D40260915E0287E00E94D402892894
:1014000079F41A8219821B82CE0101960E94380556
:101410000E94E2046AE070E080E090E00E946F03C6
:10142000AB2889F481E090E09A8389831B82CE0106
:1014300001960E9438050E94E2046AE070E080E0B4
:1014400090E00E946F03CD2889F482E090E09A83B7
:1014500089831B82CE0101960E9438050E94E20416
:101460006AE070E080E090E00E946F03EF2889F46A
:1014700083E090E09A8389831B82CE0101960E94CB
:1014800038050E94E2046AE070E080E090E00E948B
:101490006F0364E170E080E090E00E946F030E94BF
:1014A0000705ACCE10935F025CCF1093610259CF59
:1014B0001093600256CF10935E0253CFE6E3F2E042
:1014C0001083118312833A96E615F705C9F749CFC1
:1014D000E6E3F2E01082118212823A96E615F705F1
:1014E000C9F73FCF3697CF0163E070E00E94830ACF
:1014F000069FC001079F900D11248A5C9D4FE80F45
:10150000F91F10832ECF97FB072E16F4009407D0F7
:1015100077FD09D00E94C10A07FC05D03EF49095E2
:1015200081959F4F0895709561957F4F0895A1E231
:101530001A2EAA1BBB1BFD010DC0AA1FBB1FEE1F4D
:10154000FF1FA217B307E407F50720F0A21BB30B98
:10155000E40BF50B661F771F881F991F1A9469F714
:1015600060957095809590959B01AC01BD01CF0170
:101570000895EE0FFF1F881F8BBF0790F691E02D97
:101580001994AA1BBB1B51E107C0AA1FBB1FA617BA
:10159000B70710F0A61BB70B881F991F5A95A9F71C
:0E15A00080959095BC01CD010895F894FFCF81
:1015AE000102031F00200021002200230024002539
:1015BE00002600270028000200030004000500009A
:1015CE000000009504FF032C04E7045D043B044F68
:0215DE00040007
:00000001FF
