:100000000C9437010C9468010C9468010C946801FD
:100010000C9468010C9468010C9468010C946801BC
:100020000C9468010C9468010C9468010C946801AC
:100030000C9468010C9468010C9468010C9468019C
:100040000C9468010C9468010C9468010C9468018C
:100050000C9468010C9468010C9468010C94D70509
:100060000C9468010C944B060C9421060C946801C6
:100070000C9468010C9468010C9468010C9468015C
:100080000C9481060C9468010C9468010C9468012E
:100090000C9468010C9468010C9468010C9468013C
:1000A0000C9468010C9468010C9468010C9468012C
:1000B0000C9468010C9468010C9468010C9468011C
:1000C0000C9468010C9468010C9468010C9468010C
:1000D0000C9468010C9468010C9468010C946801FC
:1000E0000C9468010C94FF040C94B4020C94C802A4
:1000F0000C9499020C94B0020C94AE040C949502EA
:100100000C94BA020C94A2020C94AC070C94C20298
:100110000C9402040C94BE020C94C7020C949C0232
:100120000C94F3030C94AC020C94A6020C94CC0235
:100130000C9424040C94C6030C9416040C948D02A5
:100140000C945C040C9487020C9491020000210032
:10015000240027002A002D00300033000101000098
:10016000040107010A0100002200250028002B00DD
:100170002E003100340002010000050108010B01CE
:10018000000020002300260029002C002F00320050
:100190000001000003010601090105050505070529
:1001A00008080808020202020A0A080804040404F3
:1001B000010101010101010103030303030303031F
:1001C000040707070C0C0C0C0C0C0C0C02020202AE
:1001D00006060606060606060B0B0B0B0B0B0B0B97
:1001E0000102102020080810204010204080020149
:1001F000020108040201010204081020408080402E
:10020000201008040201800402018040201008042C
:1002100002010804020101020408102040800102CA
:1002200004081020408000000A0B02090C0D0E0883
:1002300007030401000000000000000000000000AF
:1002400000000000000000000000000000000000AE
:10025000000012111000000000000000000000006B
:10026000000000000000000000000000AC071124A6
:100270001FBECFEFD1E2DEBFCDBF00E00CBF12E06A
:10028000A0E0B2E0E4EFFEE100E00BBF02C00790A7
:100290000D92A834B107D9F723E0A8E4B2E001C079
:1002A0001D92A637B207E1F711E0C7E3D1E000E005
:1002B00006C021970109802FFE010E944C0EC63313
:1002C000D10780E00807A9F70E94DA080C94780F9C
:1002D0000C940000E4E3F3E021E0268FDC018D9133
:1002E0009C9190A3878F15821486138A128E08958D
:1002F00010925A0310925B0310925C0310925D03FC
:10030000FC01808191818130910559F030F082307B
:10031000910559F0039769F0089581E080935A039D
:10032000089581E080935D03089581E080935B03ED
:10033000089581E080935C03089580916603909115
:100340006703A0916803B091690320915F03233094
:1003500009F47DC0ACF42130C9F1223009F457C052
:100360008091660390916703A0916803B09169033F
:10037000892B8A2B8B2B19F481E080935E030895DF
:10038000243009F485C0253059F7AC01BD01009730
:1003900021E0A207B10520F04FEF5FEF60E070E0D1
:1003A0005093290140932801841B950BA60BB70B92
:1003B0008093660390936703A0936803B0936903E7
:1003C00080917300826080937300CACFAC01BD013D
:1003D000009721E0A207B10520F04FEF5FEF60E04A
:1003E00070E05093890040938800841B950BA60B06
:1003F000B70B8093660390936703A0936803B09351
:10040000690380916F00826080936F00A9CFAC0177
:10041000BD018F3F9105A105B10529F020F04FEFF7
:1004200050E060E070E04093B300841B950BA60B96
:10043000B70B8093660390936703A0936803B09310
:1004400069038091700082608093700089CFAC0155
:10045000BD01009721E0A207B10520F04FEF5FEF4B
:1004600060E070E05093990040939800841B950BD6
:10047000A60BB70B8093660390936703A093680362
:10048000B09369038091710082608093710068CF9E
:10049000AC01BD01009721E0A207B10520F04FEFAC
:1004A0005FEF60E070E05093A9004093A800841BC8
:1004B000950BA60BB70B8093660390936703A093ED
:1004C0006803B09369038091720082608093720028
:1004D00047CF8150823108F05AC0E82FF0E08827DA
:1004E000EB58FD4F8F4F0C944C0E950299028702EA
:1004F0008D029102C7029C02A202A602AC02B002C7
:10050000B402BA02BE02C702C202C802CC02809183
:1005100080008F77809380000895809180008F7D88
:10052000F9CF80918000877FF5CF84B58F7784BD28
:10053000089584B58F7DFBCF8091B0008F77809335
:10054000B00008958091B0008F7DF9CF8091900028
:100550008F77809390000895809190008F7DF9CFE0
:1005600080919000877FF5CF8091A0008F77809356
:10057000A00008958091A0008F7DF9CF8091A00008
:10058000877FF5CF809120018F7780932001089598
:10059000809120018F7DF9CF80912001877FF5CF59
:1005A000CF93DF93282F30E0F901EA5DFD4F84916E
:1005B000F901E052FE4FD491F901E656FE4FC49185
:1005C000CC23A1F081110E946902EC2FF0E0EE0F24
:1005D000FF1FE058FE4FA591B491EC91ED2381E00F
:1005E00090E009F480E0DF91CF91089580E090E001
:1005F000FACF1F93CF93DF93282F30E0F901EA5D04
:10060000FD4F8491F901E052FE4FD491F901E65675
:10061000FE4FC491CC23A9F0162F81110E946902CC
:10062000EC2FF0E0EE0FFF1FEA59FE4FA591B491B9
:100630008FB7F894EC91111108C0D095DE23DC93AC
:100640008FBFDF91CF911F910895DE2BF8CFCF930D
:10065000DF9390E0FC01E052FE4F249186569E4FBE
:10066000FC0184918823D1F090E0880F991FFC0150
:10067000E45BFE4FA591B491FC01EA59FE4FC59190
:10068000D49161110EC09FB7F8948C91E22FE09540
:100690008E238C932881E223E8839FBFDF91CF9143
:1006A00008958FB7F894EC91E22BEC938FBFF6CFBF
:1006B00090917B00977F90937B008653806480931A
:1006C0007C0080917A00806480937A0080917A0027
:1006D00086FDFCCF809178009091790008953FB716
:1006E000F89480914D0290914E02A0914F02B091EA
:1006F000500226B5A89B05C02F3F19F00196A11DF9
:10070000B11D3FBFBA2FA92F982F8827BC01CD015B
:10071000620F711D811D911D42E0660F771F881FBA
:10072000991F4A95D1F708952FB7F894609149021F
:1007300070914A0280914B0290914C022FBF089514
:10074000CF93DF9310925203FC01C081D1810E94AC
:10075000940327E02C9FF0012D9FF00D1124EC5CF9
:10076000FC4F618372838383948381E08583168247
:10077000DF91CF9108950E949403E5E5F3E0608353
:1007800071838283938381E084830895AF92BF92C3
:10079000CF92DF92EF92FF920F931F93CF93DF934D
:1007A0006C017B018B01040F151FEB015E01AE187C
:1007B000BF08C017D10759F06991D601ED91FC919E
:1007C0000190F081E02DC6011995892B79F7C501BB
:1007D000DF91CF911F910F91FF90EF90DF90CF901D
:1007E000BF90AF900895FC01538D448D252F30E0CC
:1007F000842F90E0821B930B541710F0CF9608952E
:1008000001970895FC01918D828D981761F0A28D5A
:10081000AE0FBF2FB11D5D968C91928D9F5F9F7320
:10082000928F90E008958FEF9FEF0895FC01918DD6
:10083000828D981731F0828DE80FF11D858D90E043
:1008400008958FEF9FEF0895FC01918D228D892FE0
:1008500090E0805C9F4F821B91098F7399270895C8
:1008600081E592E00E94240421E0892B09F420E034
:10087000822F0895FC01A48DA80FB92FB11DA35A92
:10088000BF4F2C91848D90E001968F739927848FB0
:10089000A689B7892C93A089B1898C9183708064D3
:1008A0008C93938D848D981306C00288F389E02D74
:1008B00080818F7D80830895EF92FF920F931F9325
:1008C000CF93DF93EC0181E0888F9B8D8C8D981303
:1008D0001AC0E889F989808185FF15C09FB7F8940F
:1008E000EE89FF896083E889F9898081837080645B
:1008F00080839FBF81E090E0DF91CF911F910F91A6
:10090000FF90EF900895F62E0B8D10E00F5F1F4FB4
:100910000F731127E02E8C8D8E110CC00FB607FCC3
:10092000FACFE889F989808185FFF5CFCE010E9451
:100930003A04F1CFEB8DEC0FFD2FF11DE35AFF4F81
:10094000F0829FB7F8940B8FEA89FB8980818062DF
:10095000CFCF682F81E592E00C945C04CF93DF93B6
:10096000EC01888D8823B9F0AA89BB89E889F989C7
:100970008C9185FD03C0808186FD0DC00FB607FCFC
:10098000F7CF8C9185FFF2CF808185FFEDCFCE012F
:100990000E943A04E9CFDF91CF91089580E090E082
:1009A000892B29F00E94300481110E94000080E010
:1009B00090E0892B49F080E090E0892B29F00E949B
:1009C000000081110E94000080E090E0892B49F036
:1009D00080E090E0892B29F00E94000081110E94A4
:1009E000000080E090E0892B49F080E090E0892BC6
:1009F00029F00E94000081110C9400000895EF92EC
:100A0000FF920F931F93CF93DF93809150039091A8
:100A10005103009709F097C060E085E00E94F90259
:100A200080915203882309F496C061E080915303BA
:100A3000909154030A970CF460E08FE10E94F90250
:100A400061E0809153039091540309970CF460E0A6
:100A500080E20E94F90261E0809153039091540377
:100A600008970CF460E081E20E94F90261E0809155
:100A700053039091540307970CF460E082E20E94C4
:100A8000F90261E0809153039091540306970CF4AE
:100A900060E083E20E94F90261E08091530390914B
:100AA000540305970CF460E084E20E94F90261E0CF
:100AB000809153039091540304970CF460E085E215
:100AC0000E94F90261E080915303909154030397CF
:100AD0000CF460E086E20E94F90261E08091530329
:100AE0009091540302970CF460E087E20E94F902AF
:100AF00061E08091530390915403181619060CF08D
:100B000060E088E20E94F902E0915003F091510305
:100B1000EE0FFF1FE85EFD4F61E080810E94F90249
:100B20008091500390915103019684309105D4F542
:100B30009093510380935003DF91CF911F910F91B8
:100B4000FF90EF900895880F991FFC01EA5EFD4F1A
:100B500060E0808163CF209150033091510304E025
:100B600012E0D0E0C0E047E0429FC001439F900DFB
:100B700011249C012C5C3C4F7901F80180810E5FAF
:100B80001F4FF7012081022E000C330B61E02C1760
:100B90003D0709F060E00E94F9022196CA30D105B4
:100BA00061F7B2CF1092510310925003C5CF1F923C
:100BB0000F920FB60F9211242F933F938F939F9311
:100BC000AF93BF938091490290914A02A0914B024A
:100BD000B0914C023091480223E0230F2D3758F595
:100BE0000196A11DB11D2093480280934902909364
:100BF0004A02A0934B02B0934C0280914D02909117
:100C00004E02A0914F02B09150020196A11DB11D5C
:100C100080934D0290934E02A0934F02B0935002E6
:100C2000BF91AF919F918F913F912F910F900FBEE8
:100C30000F901F90189526E8230F0296A11DB11D55
:100C4000D2CF1F920F920FB60F9211240BB60F92B4
:100C50002F933F934F935F936F937F938F939F93C4
:100C6000AF93BF93EF93FF9381E592E00E943A0424
:100C7000FF91EF91BF91AF919F918F917F916F9174
:100C80005F914F913F912F910F900BBE0F900FBE30
:100C90000F901F9018951F920F920FB60F9211246C
:100CA0000BB60F922F938F939F93EF93FF93E09147
:100CB0006102F09162028081E0916702F091680226
:100CC00082FD1DC0908180916A028F5F8F73209199
:100CD0006B02821741F0E0916A02F0E0EF5AFD4F9B
:100CE000958F80936A02FF91EF919F918F912F9141
:100CF0000F900BBE0F900FBE0F901F901895808124
:100D0000F2CF1F920F920FB60F9211240BB60F92D3
:100D1000CF92DF92EF92FF922F933F934F935F9387
:100D20006F937F938F939F93AF93BF93EF93FF93B3
:100D3000C0906A03D0906B03E0906C03F0906D0359
:100D400080915F03833009F04DC0C114D104E104E8
:100D5000F10409F4D5C080915E03882309F45BC0D7
:100D6000E0917203F0917303309741F08091740326
:100D700090917503009709F44CC019958091620316
:100D800090916303A0916403B09165030097A14023
:100D9000B105B4F0F8948091620390916303A0913F
:100DA0006403B09165038093660390936703A093F7
:100DB0006803B09369030E949D0110925E037894CA
:100DC0001C141D041E041F046CF481E0C81AD10811
:100DD000E108F108C0926A03D0926B03E0926C03C1
:100DE000F0926D03FF91EF91BF91AF919F918F9121
:100DF0007F916F915F914F913F912F91FF90EF9075
:100E0000DF90CF900F900BBE0F900FBE0F901F90F2
:100E100018951995B3CFF89420915F0380916603DC
:100E200090916703A0916803B0916903223009F49F
:100E300047C08F3F9F4FA105B10510F40E949D014F
:100E40008091660390916703A0916803B091690354
:100E5000AC01BD01009721E0A207B10520F04FEFE2
:100E60005FEF60E070E0841B950BA60BB70B8093DF
:100E7000660390936703A0936803B093690380911E
:100E8000660390916703A0916803B0916903892B71
:100E90008A2B8B2B91F58091620390916303A09133
:100EA0006403B09165038093660390936703A093F6
:100EB0006803B093690381E080935E03789492CFD6
:100EC0008F3F9105A105B10510F40E949D0180910D
:100ED000660390916703A0916803B0916903AC0128
:100EE000BD018F3F9105A105B10509F008F4BBCF05
:100EF0004FEF50E060E070E0B6CF10925E03DECFBF
:100F0000F89480915F038330D9F054F4813091F0EC
:100F10008230A1F6809170008D7F80937000CECFDB
:100F20008430A1F0853051F6809173008D7F8093DD
:100F30007300C4CF80916F008D7F80936F00BECF10
:100F4000809171008D7F80937100B8CF8091720085
:100F50008D7F80937200B2CF109254021092530290
:100F600088EE93E0A0E0B0E08093550290935602A3
:100F7000A0935702B09358028DE292E090935202F0
:100F80008093510285EC90E090935E0280935D0225
:100F900084EC90E09093600280935F0280EC90E09C
:100FA000909362028093610281EC90E090936402DE
:100FB0008093630282EC90E09093660280936502D6
:100FC00086EC90E0909368028093670210926A0228
:100FD00010926B0210926C0210926D0283E080936B
:100FE0005F0310926E0310926F03109270031092C1
:100FF0007103109273031092720310927503109292
:10100000740310925E0381E090E0909361038093FB
:1010100060031092620310926303109264031092B3
:101020006503109266031092670310926803109292
:1010300069038FEF9FEFDC0180936A0390936B034A
:10104000A0936C03B0936D0310925A0310925B034C
:1010500010925C0310925D03109255031092560398
:10106000109257031092580310925903E4E3F3E0EF
:101070008BE0808311821282138214821582168281
:10108000379693E0E035F907A1F7109251031092DB
:101090005003109252031092540310925303109273
:1010A0002E0310922D031092300310922F031092F2
:1010B000310310920B0310920A0381E190E09093A8
:1010C0000D0380930C0310920E03109210031092E4
:1010D0000F0381E090E0909312038093110380E16D
:1010E00090E09093140380931303109215031092D1
:1010F00017031092160382E090E0909319038093F7
:10110000180383E190E090931B0380931A031092DD
:101110001C0310921E0310921D0383E090E0909335
:10112000200380931F0382E190E090932203809339
:10113000210310922303109225031092240384E0CC
:1011400090E0909327038093260386E090E09093AD
:1011500029038093280310922A0310922C031092E3
:101160002B031092030310920403109205031092B4
:1011700006031092080310920703109209031092BD
:10118000EE021092EF021092F0021092F102109211
:10119000F2021092F3021092F4021092F5021092F1
:1011A000F6021092F7021092F8021092F9021092D1
:1011B000FA020895CF93DF931F921F92CDB7DEB747
:1011C000789484B5826084BD84B5816084BD85B522
:1011D000826085BD85B5816085BD80916E0081602E
:1011E00080936E00109281008091810082608093D4
:1011F00081008091810081608093810080918000D6
:101200008160809380008091B10084608093B10000
:101210008091B00081608093B000809191008260E5
:1012200080939100809191008160809391008091E2
:1012300090008160809390008091A10082608093F3
:10124000A1008091A10081608093A1008091A00005
:1012500081608093A00080912101826080932101B0
:101260008091210181608093210180912001816022
:101270008093200180917A00846080937A0080912D
:101280007A00826080937A0080917A0081608093F6
:101290007A0080917A00806880937A001092C10071
:1012A000E0916102F091620282E08083E0915D0250
:1012B000F0915E021082E0915F02F09160028FEC8B
:1012C000808310926902E0916502F091660286E0E7
:1012D0008083E0916302F091640280818061808369
:1012E000E0916302F0916402808188608083E091E4
:1012F0006302F0916402808180688083E0916302E0
:10130000F091640280818F7D808361E08BE00E9498
:10131000270361E088E00E94270361E089E00E94E2
:10132000270361E08AE00E94270361E087E00E94D2
:10133000270361E08FE10E94270361E080E20E94C1
:10134000270361E081E20E94270361E082E20E94BC
:10135000270361E083E20E94270361E084E20E94A8
:10136000270361E085E20E94270361E086E20E9494
:10137000270361E087E20E94270361E088E20E9480
:10138000270361E082E00E94270361E083E00E947E
:10139000270361E084E00E94270361E085E00E946A
:1013A000270360E087E30E94270360E086E30E9452
:1013B000270360E089E30E94270360E08AE30E943C
:1013C0002703F6E2EF2EF3E0FF2E0AE013E060E0E1
:1013D000F80182810E942703095F1F4FE016F10682
:1013E000B1F760E086E00E94270380915F03F894E4
:1013F000833009F4A1C20CF06CC2813009F47EC2C2
:10140000823009F48AC280935F03789480915F03ED
:1014100018160CF04EC08FEF9FEFDC0180936A032B
:1014200090936B03A0936C03B0936D038FE79BEBDA
:10143000A0E0B0E08093620390936303A093640301
:10144000B09365038093660390936703A09368034A
:10145000B093690381E090E090936103809360030F
:10146000F8948BEA9AEAA6EAB3E480936E03909329
:101470006F03A0937003B09371038FEF94E0909388
:101480007303809372031092750310927403109289
:101490005E0380915F03823009F06CC28091B100DD
:1014A000887F90916003892B8093B1000E949D01F9
:1014B000789422242394312CE4E64E2E512C612C76
:1014C000712C86E00E94D00286E30E94580390931C
:1014D000300380932F0387E30E94580320912F034A
:1014E0003091300332503093300320932F039250C9
:1014F00090932E0380932D03B90137FF04C0662714
:101500007727621B730BAC0197FF04C04427552754
:10151000481B590B683C71050CF059C2483C5105F9
:101520000CF462C231E020E0181619060CF030E02D
:10153000832F922F209132033091330328173907DC
:1015400039F09093330380933203F1E0F093310349
:101550006DE2E62E63E0F62E0AE013E0F8018281E8
:101560000E94D0029C0191E02115310509F090E024
:10157000F80194838581981709F439C2232B09F067
:1015800036C221E02683F8019583095F1F4FE016DC
:10159000F10621F70E9494038090030390900403C6
:1015A000A0900503B0900603681979098A099B0980
:1015B000683E734081059105B8F00E9494036093E2
:1015C00003037093040380930503909306030E9422
:1015D000DA0D8F71082E000C990B90930203809303
:1015E000010321E0209309038091520381112AC055
:1015F00044E3E42E43E0F42E5BE0B52E0E94940316
:10160000F7012581222309F4F5C12181328143812B
:101610005481621B730B840B950B693EF3E07F07CB
:101620008105910508F0E6C1A30192010E941B0EFD
:10163000F7012083F7E0EF0EF11C20E5E21623E02E
:10164000F206E1F60E9494038090550390905603B1
:10165000A0905703B0905803681979098A099B092B
:101660006A3F71058105910528F48091590361E075
:10167000811101C060E087E00E94F90260915A0385
:101680008BE00E94F90260915B0388E00E94F902FE
:1016900060915C0389E00E94F90260915D038AE039
:1016A0000E94F9020E9494038090F3029090F40249
:1016B000A090F502B090F602681979098A099B0991
:1016C0006D3371058105910508F45BC08AE30E94C2
:1016D0005803BC01990F880B990B0E94C30E6093AD
:1016E000FB027093FC028093FD029093FE020E9425
:1016F00094036093F3027093F4028093F502909345
:10170000F602C090FB02D090FC02E090FD02F09047
:10171000FE028090F7029090F802A090F902B0903B
:10172000FA0220E030E044EB52E4C501B4010E942B
:10173000550E9B01AC01C701B6010E944F0F181650
:101740000CF05CC1309200032092FF0245E050E0B3
:101750006BE372E081E592E00E94C60331E03093D2
:10176000F2028091FB029091FC02A091FD02B091E7
:10177000FE028093F7029093F802A093F902B093CF
:10178000FA0280913103882399F0109231038091FD
:101790003203909133038530910508F050C1805E8B
:1017A0009D4FFC018081082E000C990B0E94A9041A
:1017B0002AE0E22E23E0F22E37E0B32EF7018681F5
:1017C000882331F180819181B89EF001B99EF00D9E
:1017D0001124EC5CFC4F20812B300CF032C12581B0
:1017E000222331F0368131112CC131E0368315824C
:1017F00001978430910508F026C18B5D9D4FFC0157
:10180000808121118460082E000C990B0E94A9048C
:10181000F7E0EF0EF11C0E151F0581F6809109030C
:10182000882359F010920903809101038F71806C15
:10183000082E000C990B0E94A9048091F2028823C3
:10184000C9F01092F2020E9494036093EE0270932A
:10185000EF028093F0029093F1028091FF02909149
:101860000003892B09F4F1C080E8082E000C990BC5
:101870000E94A90481E592E00E942404892B09F4C6
:1018800027C181E592E00E940204282F082E000C57
:10189000330B96E0359527959A95E1F72370223022
:1018A00009F4E5C0233009F408C1213009F4DCC093
:1018B0008370823009F4CEC0833009F4D0C0813007
:1018C00009F4C5C01A821982CE0101960E94A003B4
:1018D000D1CF843009F43FC0853009F094CD109207
:1018E0002001109221019091210198609093210193
:1018F0009091210191609093210185CD10928000FB
:101900001092810090918100986090938100909155
:10191000810091609093810076CD1092B00010927A
:10192000B1009091B00092609093B0009091B1009E
:1019300091609093B10067CD109290001092910049
:101940009091910098609093910090919100916096
:101950009093910058CD1092A0001092A100909108
:10196000A10098609093A1009091A1009160909344
:10197000A10049CD813049F480918100887F909108
:101980006003892B8093810091CD833049F480914D
:101990009100887F90916003892B8093910086CD80
:1019A000843049F48091A100887F90916003892B55
:1019B0008093A1007BCD853009F078CD8091210105
:1019C000887F90916003892B809321016FCD46170A
:1019D00057070CF0A7CD83E090E0121613060CF029
:1019E000A9CD82E090E0A6CD84E090E0A3CDF801FF
:1019F0001682C9CDF701B08215821CCE20E030E0FE
:101A00004CE852E4C701B6010E94550E9B01AC019F
:101A1000C501B4010E944F0F18160CF0A2CE10920F
:101A200000031092FF0246E050E061E472E081E5BD
:101A300092E00E94C60381E08093F20292CE80E49D
:101A4000B2CE20E0D5CE80E0DCCE81E80ECF3A8267
:101A500029823ACF22E030E03A83298335CF83E0F0
:101A600090E09A83898330CF0E94BB0303CF8770B5
:101A70008230C9F04CF4882381F0813089F0CE01A6
:101A800001960E947801F6CE833091F08430B9F748
:101A900084E090E09A838983F2CF1A821982EFCF93
:101AA0003A822982ECCFE2E0F0E0FA83E983E7CFE3
:101AB00023E030E03A832983E2CF8F70082E000CB8
:101AC000990B9A838983CE0101960E946A01D2CE36
:101AD0000E946F034B015C018AE0C82ED12CE12CDF
:101AE000F12C0E946F03681979098A099B09683EE5
:101AF000734081059105A8F391E0C91AD108E10866
:101B0000F108E8EE8E0EE3E09E1EA11CB11CC1148C
:101B1000D104E104F10429F70E94CE04D2CC8F92C3
:101B20009F92AF92BF92CF92DF92EF92FF92CF93AC
:101B3000DF93EC01688179818A819B816115710550
:101B40008105910521F464E279ED8BE597E02DE1C3
:101B500033EF41E050E00E94E90D49015A019B0139
:101B6000AC01A7EAB1E40E94080E6B017C01ACEE67
:101B7000B4EFA50194010E94160EDC01CB018C0D7F
:101B80009D1DAE1DBF1DB7FF03C00197A109B04841
:101B900088839983AA83BB839F77DF91CF91FF903E
:101BA000EF90DF90CF90BF90AF909F908F9008956F
:101BB0000C948F0D80E092E00C948F0DB0E0A0E0CB
:101BC0008093000290930102A0930202B09303025B
:101BD0000895052E97FB1EF400940E94000E57FDF9
:101BE00007D00E941B0E07FC03D04EF40C94000E8D
:101BF00050954095309521953F4F4F4F5F4F089539
:101C000090958095709561957F4F8F4F9F4F089568
:101C10000E943D0EA59F900DB49F900DA49F800D36
:101C2000911D11240895B7FF0C94080E0E94080E10
:101C3000821B930B0895A1E21A2EAA1BBB1BFD0168
:101C40000DC0AA1FBB1FEE1FFF1FA217B307E4079B
:101C5000F50720F0A21BB30BE40BF50B661F771FF3
:101C6000881F991F1A9469F76095709580959095D3
:101C70009B01AC01BD01CF010895A29FB001B39FAC
:101C8000C001A39F700D811D1124911DB29F700D85
:101C9000811D1124911D0895EE0FFF1F881F8BBF1A
:101CA0000790F691E02D19945058BB27AA270E945F
:101CB0006C0E0C94150F0E94070F38F00E940E0F47
:101CC00020F039F49F3F19F426F40C94040F0EF41D
:101CD000E095E7FB0C94FE0EE92F0E94260F58F3C7
:101CE000BA17620773078407950720F079F4A6F501
:101CF0000C94480F0EF4E0950B2EBA2FA02D0B017B
:101D0000B90190010C01CA01A0011124FF27591B40
:101D100099F0593F50F4503E68F11A16F040A22F46
:101D2000232F342F4427585FF3CF469537952795B7
:101D3000A795F0405395C9F77EF41F16BA0B620BB6
:101D4000730B840BBAF09150A1F0FF0FBB1F661FFD
:101D5000771F881FC2F70EC0BA0F621F731F841F40
:101D600048F4879577956795B795F7959E3F08F066
:101D7000B0CF9395880F08F09927EE0F9795879528
:101D80000895E89409C097FB3EF49095809570956E
:101D900061957F4F8F4F9F4F9923A9F0F92F96E9B7
:101DA000BB279395F695879577956795B795F1112C
:101DB000F8CFFAF4BB0F11F460FF1BC06F5F7F4FC9
:101DC0008F4F9F4F16C0882311F096E911C07723DB
:101DD00021F09EE8872F762F05C0662371F096E8E4
:101DE000862F70E060E02AF09A95660F771F881FB3
:101DF000DAF7880F9695879597F9089597F99F6771
:101E000080E870E060E008959FEF80EC0895002482
:101E10000A941616170618060906089500240A944F
:101E200012161306140605060895092E0394000CD5
:101E300011F4882352F0BB0F40F4BF2B11F460FF64
:101E400004C06F5F7F4F8F4F9F4F089557FD90588D
:101E5000440F551F59F05F3F71F04795880F97FB6E
:101E6000991F61F09F3F79F0879508951216130628
:101E70001406551FF2CF4695F1DF08C01616170657
:101E80001806991FF1CF869571056105089408958C
:101E9000E894BB2766277727CB0197F908950E941E
:101EA000540F08F48FEF0895990F0008550FAA0BEF
:101EB000E0E8FEEF16161706E807F907C0F012165D
:101EC0001306E407F50798F0621B730B840B950B60
:101ED00039F40A2661F0232B242B252B21F40895B5
:101EE0000A2609F4A140A6958FEF811D811D089552
:041EF000F894FFCF94
:101EF400010000001F002000210022002300240014
:101F04002500260027002800020003000400050025
:101F1400414243444001020308000000005C04C63F
:101F240003F303AE042404020416045065636865D5
:081F3400004D696E6575720035
:00000001FF
