:100000000C9437010C9468010C9468010C946801FD
:100010000C9468010C9468010C9468010C946801BC
:100020000C9468010C9468010C9468010C946801AC
:100030000C9468010C9468010C9468010C9468019C
:100040000C9468010C9468010C9468010C9468018C
:100050000C9468010C9468010C9468010C94D70509
:100060000C9468010C944B060C9421060C946801C6
:100070000C9468010C9468010C9468010C9468015C
:100080000C9481060C9468010C9468010C9468012E
:100090000C9468010C9468010C9468010C9468013C
:1000A0000C9468010C9468010C9468010C9468012C
:1000B0000C9468010C9468010C9468010C9468011C
:1000C0000C9468010C9468010C9468010C9468010C
:1000D0000C9468010C9468010C9468010C946801FC
:1000E0000C9468010C9416040C945C040C94CC02DF
:1000F0000C948D020C94F3030C94C8020C949C0293
:100100000C94C6030C9424040C94C2020C94C702F1
:100110000C9402040C94AE040C94B4020C94BA0235
:100120000C9487020C9491020C94A2020C94FF048C
:100130000C94B0020C94BE020C94AC020C94990284
:100140000C9495020C94A6020C94AC0700002100BC
:10015000240027002A002D00300033000101000098
:10016000040107010A0100002200250028002B00DD
:100170002E003100340002010000050108010B01CE
:10018000000020002300260029002C002F00320050
:100190000001000003010601090105050505070529
:1001A00008080808020202020A0A080804040404F3
:1001B000010101010101010103030303030303031F
:1001C000040707070C0C0C0C0C0C0C0C02020202AE
:1001D00006060606060606060B0B0B0B0B0B0B0B97
:1001E0000102102020080810204010204080020149
:1001F000020108040201010204081020408080402E
:10020000201008040201800402018040201008042C
:1002100002010804020101020408102040800102CA
:1002200004081020408000000A0B02090C0D0E0883
:1002300007030401000000000000000000000000AF
:1002400000000000000000000000000000000000AE
:10025000000012111000000000000000000000006B
:10026000000000000000000000000000AC071124A6
:100270001FBECFEFD1E2DEBFCDBF00E00CBF12E06A
:10028000A0E0B2E0ECEFFFE100E00BBF02C007909E
:100290000D92A834B107D9F723E0A8E4B2E001C079
:1002A0001D92AA36B207E1F711E0C7E3D1E000E002
:1002B00006C021970109802FFE010E94080EC63357
:1002C000D10780E00807A9F70E94CA080C94FC0F28
:1002D0000C940000E8E2F3E021E0268FDC018D9130
:1002E0009C9190A3878F15821486138A128E08958D
:1002F00010924E0310924F0310925003109251032C
:10030000FC01808191818130910559F030F082307B
:10031000910559F0039769F0089581E080934E03A9
:10032000089581E080935103089581E080934F0305
:10033000089581E080935003089580915A0390912D
:100340005B03A0915C03B0915D03209153032330C4
:1003500009F47DC0ACF42130C9F1223009F457C052
:1003600080915A0390915B03A0915C03B0915D036F
:10037000892B8A2B8B2B19F481E0809352030895EB
:10038000243009F485C0253059F7AC01BD01009730
:1003900021E0A207B10520F04FEF5FEF60E070E0D1
:1003A0005093290140932801841B950BA60BB70B92
:1003B00080935A0390935B03A0935C03B0935D0317
:1003C00080917300826080937300CACFAC01BD013D
:1003D000009721E0A207B10520F04FEF5FEF60E04A
:1003E00070E05093890040938800841B950BA60B06
:1003F000B70B80935A0390935B03A0935C03B09375
:100400005D0380916F00826080936F00A9CFAC0183
:10041000BD018F3F9105A105B10529F020F04FEFF7
:1004200050E060E070E04093B300841B950BA60B96
:10043000B70B80935A0390935B03A0935C03B09334
:100440005D038091700082608093700089CFAC0161
:10045000BD01009721E0A207B10520F04FEF5FEF4B
:1004600060E070E05093990040939800841B950BD6
:10047000A60BB70B80935A0390935B03A0935C0386
:10048000B0935D038091710082608093710068CFAA
:10049000AC01BD01009721E0A207B10520F04FEFAC
:1004A0005FEF60E070E05093A9004093A800841BC8
:1004B000950BA60BB70B80935A0390935B03A09305
:1004C0005C03B0935D038091720082608093720040
:1004D00047CF8150823108F05AC0E82FF0E08827DA
:1004E000EB58FD4F8F4F0C94080E9502990287022E
:1004F0008D029102C7029C02A202A602AC02B002C7
:10050000B402BA02BE02C702C202C802CC02809183
:1005100080008F77809380000895809180008F7D88
:10052000F9CF80918000877FF5CF84B58F7784BD28
:10053000089584B58F7DFBCF8091B0008F77809335
:10054000B00008958091B0008F7DF9CF8091900028
:100550008F77809390000895809190008F7DF9CFE0
:1005600080919000877FF5CF8091A0008F77809356
:10057000A00008958091A0008F7DF9CF8091A00008
:10058000877FF5CF809120018F7780932001089598
:10059000809120018F7DF9CF80912001877FF5CF59
:1005A000CF93DF93282F30E0F901EA5DFD4F84916E
:1005B000F901E052FE4FD491F901E656FE4FC49185
:1005C000CC23A1F081110E946902EC2FF0E0EE0F24
:1005D000FF1FE058FE4FA591B491EC91ED2381E00F
:1005E00090E009F480E0DF91CF91089580E090E001
:1005F000FACF1F93CF93DF93282F30E0F901EA5D04
:10060000FD4F8491F901E052FE4FD491F901E65675
:10061000FE4FC491CC23A9F0162F81110E946902CC
:10062000EC2FF0E0EE0FFF1FEA59FE4FA591B491B9
:100630008FB7F894EC91111108C0D095DE23DC93AC
:100640008FBFDF91CF911F910895DE2BF8CFCF930D
:10065000DF9390E0FC01E052FE4F249186569E4FBE
:10066000FC0184918823D1F090E0880F991FFC0150
:10067000E45BFE4FA591B491FC01EA59FE4FC59190
:10068000D49161110EC09FB7F8948C91E22FE09540
:100690008E238C932881E223E8839FBFDF91CF9143
:1006A00008958FB7F894EC91E22BEC938FBFF6CFBF
:1006B00090917B00977F90937B008653806480931A
:1006C0007C0080917A00806480937A0080917A0027
:1006D00086FDFCCF809178009091790008953FB716
:1006E000F89480914D0290914E02A0914F02B091EA
:1006F000500226B5A89B05C02F3F19F00196A11DF9
:10070000B11D3FBFBA2FA92F982F8827BC01CD015B
:10071000620F711D811D911D42E0660F771F881FBA
:10072000991F4A95D1F708952FB7F894609149021F
:1007300070914A0280914B0290914C022FBF089514
:10074000CF93DF9310924603FC01C081D1810E94B8
:10075000940327E02C9FF0012D9FF00D1124E85DFC
:10076000FC4F618372838383948381E08583168247
:10077000DF91CF9108950E949403E9E4F3E0608350
:1007800071838283938381E084830895AF92BF92C3
:10079000CF92DF92EF92FF920F931F93CF93DF934D
:1007A0006C017B018B01040F151FEB015E01AE187C
:1007B000BF08C017D10759F06991D601ED91FC919E
:1007C0000190F081E02DC6011995892B79F7C501BB
:1007D000DF91CF911F910F91FF90EF90DF90CF901D
:1007E000BF90AF900895FC01538D448D252F30E0CC
:1007F000842F90E0821B930B541710F0CF9608952E
:1008000001970895FC01918D828D981761F0A28D5A
:10081000AE0FBF2FB11D5D968C91928D9F5F9F7320
:10082000928F90E008958FEF9FEF0895FC01918DD6
:10083000828D981731F0828DE80FF11D858D90E043
:1008400008958FEF9FEF0895FC01918D228D892FE0
:1008500090E0805C9F4F821B91098F7399270895C8
:1008600081E592E00E94240421E0892B09F420E034
:10087000822F0895FC01A48DA80FB92FB11DA35A92
:10088000BF4F2C91848D90E001968F739927848FB0
:10089000A689B7892C93A089B1898C9183708064D3
:1008A0008C93938D848D981306C00288F389E02D74
:1008B00080818F7D80830895EF92FF920F931F9325
:1008C000CF93DF93EC0181E0888F9B8D8C8D981303
:1008D0001AC0E889F989808185FF15C09FB7F8940F
:1008E000EE89FF896083E889F9898081837080645B
:1008F00080839FBF81E090E0DF91CF911F910F91A6
:10090000FF90EF900895F62E0B8D10E00F5F1F4FB4
:100910000F731127E02E8C8D8E110CC00FB607FCC3
:10092000FACFE889F989808185FFF5CFCE010E9451
:100930003A04F1CFEB8DEC0FFD2FF11DE35AFF4F81
:10094000F0829FB7F8940B8FEA89FB8980818062DF
:10095000CFCF682F81E592E00C945C04CF93DF93B6
:10096000EC01888D8823B9F0AA89BB89E889F989C7
:100970008C9185FD03C0808186FD0DC00FB607FCFC
:10098000F7CF8C9185FFF2CF808185FFEDCFCE012F
:100990000E943A04E9CFDF91CF91089580E090E082
:1009A000892B29F00E94300481110E94000080E010
:1009B00090E0892B49F080E090E0892B29F00E949B
:1009C000000081110E94000080E090E0892B49F036
:1009D00080E090E0892B29F00E94000081110E94A4
:1009E000000080E090E0892B49F080E090E0892BC6
:1009F00029F00E94000081110C9400000895EF92EC
:100A0000FF920F931F93CF93DF93809144039091B4
:100A10004503009709F097C060E085E00E94F90265
:100A200080914603882309F496C061E080914703D2
:100A3000909148030A970CF460E08FE10E94F9025C
:100A400061E0809147039091480309970CF460E0BE
:100A500080E20E94F90261E080914703909148038F
:100A600008970CF460E081E20E94F90261E0809155
:100A700047039091480307970CF460E082E20E94DC
:100A8000F90261E0809147039091480306970CF4C6
:100A900060E083E20E94F90261E080914703909157
:100AA000480305970CF460E084E20E94F90261E0DB
:100AB000809147039091480304970CF460E085E22D
:100AC0000E94F90261E080914703909148030397E7
:100AD0000CF460E086E20E94F90261E08091470335
:100AE0009091480302970CF460E087E20E94F902BB
:100AF00061E08091470390914803181619060CF0A5
:100B000060E088E20E94F902E0914403F09145031D
:100B1000EE0FFF1FE85EFD4F61E080810E94F90249
:100B20008091440390914503019684309105D4F55A
:100B30009093450380934403DF91CF911F910F91D0
:100B4000FF90EF900895880F991FFC01EA5EFD4F1A
:100B500060E0808163CF209144033091450304E03D
:100B600012E0D0E0C0E047E0429FC001439F900DFB
:100B700011249C01285D3C4F7901F80180810E5FB2
:100B80001F4FF7012081022E000C330B61E02C1760
:100B90003D0709F060E00E94F9022196CA30D105B4
:100BA00061F7B2CF1092450310924403C5CF1F9254
:100BB0000F920FB60F9211242F933F938F939F9311
:100BC000AF93BF938091490290914A02A0914B024A
:100BD000B0914C023091480223E0230F2D3758F595
:100BE0000196A11DB11D2093480280934902909364
:100BF0004A02A0934B02B0934C0280914D02909117
:100C00004E02A0914F02B09150020196A11DB11D5C
:100C100080934D0290934E02A0934F02B0935002E6
:100C2000BF91AF919F918F913F912F910F900FBEE8
:100C30000F901F90189526E8230F0296A11DB11D55
:100C4000D2CF1F920F920FB60F9211240BB60F92B4
:100C50002F933F934F935F936F937F938F939F93C4
:100C6000AF93BF93EF93FF9381E592E00E943A0424
:100C7000FF91EF91BF91AF919F918F917F916F9174
:100C80005F914F913F912F910F900BBE0F900FBE30
:100C90000F901F9018951F920F920FB60F9211246C
:100CA0000BB60F922F938F939F93EF93FF93E09147
:100CB0006102F09162028081E0916702F091680226
:100CC00082FD1DC0908180916A028F5F8F73209199
:100CD0006B02821741F0E0916A02F0E0EF5AFD4F9B
:100CE000958F80936A02FF91EF919F918F912F9141
:100CF0000F900BBE0F900FBE0F901F901895808124
:100D0000F2CF1F920F920FB60F9211240BB60F92D3
:100D1000CF92DF92EF92FF922F933F934F935F9387
:100D20006F937F938F939F93AF93BF93EF93FF93B3
:100D3000C0905E03D0905F03E0906003F090610389
:100D400080915303833009F04DC0C114D104E104F4
:100D5000F10409F4D5C080915203882309F45BC0E3
:100D6000E0916603F0916703309741F0809168034A
:100D700090916903009709F44CC01995809156032E
:100D800090915703A0915803B09159030097A14047
:100D9000B105B4F0F8948091560390915703A09157
:100DA0005803B091590380935A0390935B03A09327
:100DB0005C03B0935D030E949D01109252037894EE
:100DC0001C141D041E041F046CF481E0C81AD10811
:100DD000E108F108C0925E03D0925F03E0926003E5
:100DE000F0926103FF91EF91BF91AF919F918F912D
:100DF0007F916F915F914F913F912F91FF90EF9075
:100E0000DF90CF900F900BBE0F900FBE0F901F90F2
:100E100018951995B3CFF8942091530380915A03F4
:100E200090915B03A0915C03B0915D03223009F4C3
:100E300047C08F3F9F4FA105B10510F40E949D014F
:100E400080915A0390915B03A0915C03B0915D0384
:100E5000AC01BD01009721E0A207B10520F04FEFE2
:100E60005FEF60E070E0841B950BA60BB70B8093DF
:100E70005A0390935B03A0935C03B0935D0380914E
:100E80005A0390915B03A0915C03B0915D03892BA1
:100E90008A2B8B2B91F58091560390915703A0914B
:100EA0005803B091590380935A0390935B03A09326
:100EB0005C03B0935D0381E080935203789492CFFA
:100EC0008F3F9105A105B10510F40E949D0180910D
:100ED0005A0390915B03A0915C03B0915D03AC0158
:100EE000BD018F3F9105A105B10509F008F4BBCF05
:100EF0004FEF50E060E070E0B6CF10925203DECFCB
:100F0000F894809153038330D9F054F4813091F0F8
:100F10008230A1F6809170008D7F80937000CECFDB
:100F20008430A1F0853051F6809173008D7F8093DD
:100F30007300C4CF80916F008D7F80936F00BECF10
:100F4000809171008D7F80937100B8CF8091720085
:100F50008D7F80937200B2CF109254021092530290
:100F600088EE93E0A0E0B0E08093550290935602A3
:100F7000A0935702B09358028DE292E090935202F0
:100F80008093510285EC90E090935E0280935D0225
:100F900084EC90E09093600280935F0280EC90E09C
:100FA000909362028093610281EC90E090936402DE
:100FB0008093630282EC90E09093660280936502D6
:100FC00086EC90E0909368028093670210926A0228
:100FD00010926B0210926C0210926D0283E080936B
:100FE00053031092620310926303109264031092F1
:100FF00065031092670310926603109269031092C2
:1010000068031092520381E090E09093550380931F
:1010100054031092560310925703109258031092E3
:10102000590310925A0310925B0310925C031092C2
:101030005D038FEF9FEFDC0180935E0390935F036E
:10104000A0936003B093610310924E0310924F037C
:1010500010925003109251031092490310924A03C8
:1010600010924B0310924C0310924D03E8E2F3E010
:101070008BE0808311821282138214821582168281
:10108000379693E0E434F907A1F7109245031092E4
:1010900044031092460310924803109247031092A3
:1010A0002203109221031092240310922303109222
:1010B00025031092FF021092FE0281E190E09093CE
:1010C0000103809300031092020310920403109214
:1010D000030381E090E0909306038093050380E191
:1010E00090E09093080380930703109209031092F5
:1010F0000B0310920A0382E090E090930D0380931B
:101100000C0383E190E090930F0380930E03109201
:101110001003109212031092110383E090E0909359
:1011200014038093130382E190E09093160380935D
:10113000150310921703109219031092180384E0FC
:1011400090E090931B0380931A0386E090E09093C5
:101150001D0380931C0310921E0310922003109213
:101160001F031092F7021092F8021092F9021092E7
:10117000FA021092FC021092FB021092FD021092F1
:10118000EE021092EF021092F0021092F102109211
:10119000F2020895CF93DF931F921F92CDB7DEB76F
:1011A000789484B5826084BD84B5816084BD85B542
:1011B000826085BD85B5816085BD80916E0081604E
:1011C00080936E00109281008091810082608093F4
:1011D00081008091810081608093810080918000F6
:1011E0008160809380008091B10084608093B10021
:1011F0008091B00081608093B00080919100826006
:101200008093910080919100816080939100809102
:1012100090008160809390008091A1008260809313
:10122000A1008091A10081608093A1008091A00025
:1012300081608093A00080912101826080932101D0
:101240008091210181608093210180912001816042
:101250008093200180917A00846080937A0080914D
:101260007A00826080937A0080917A008160809316
:101270007A0080917A00806880937A001092C10091
:10128000E0916102F091620282E08083E0915D0270
:10129000F0915E021082E0915F02F09160028FECAB
:1012A000808310926902E0916502F091660286E007
:1012B0008083E0916302F091640280818061808389
:1012C000E0916302F0916402808188608083E09104
:1012D0006302F0916402808180688083E091630200
:1012E000F091640280818F7D808361E08BE00E94B9
:1012F000270361E088E00E94270361E089E00E9403
:10130000270361E08AE00E94270361E087E00E94F2
:10131000270361E08FE10E94270361E080E20E94E1
:10132000270361E081E20E94270361E082E20E94DC
:10133000270361E083E20E94270361E084E20E94C8
:10134000270361E085E20E94270361E086E20E94B4
:10135000270361E087E20E94270361E088E20E94A0
:10136000270361E082E00E94270361E083E00E949E
:10137000270361E084E00E94270361E085E00E948A
:10138000270360E087E30E94270360E086E30E9472
:10139000270360E089E30E94270360E08AE30E945C
:1013A0002703EAE1EE2EE3E0FE2E0EEF12E060E00E
:1013B000F80182810E942703095F1F4FE016F106A2
:1013C000B1F760E086E00E94270380915303F89410
:1013D000833009F486C20CF051C2813009F463C233
:1013E000823009F46FC28093530378948091530341
:1013F00018160CF04EC08FEF9FEFDC0180935E0358
:1014000090935F03A0936003B09361038FE79BEB1E
:10141000A0E0B0E08093560390935703A093580345
:10142000B093590380935A0390935B03A0935C039A
:10143000B0935D0381E090E0909355038093540353
:10144000F8948BEA9AEAA6EAB3E480936203909355
:101450006303A0936403B09365038FEF94E09093CC
:1014600067038093660310926903109268031092D9
:10147000520380915303823009F051C28091B10030
:10148000887F90915403892B8093B1000E949D0125
:10149000789422242394312C74E6472E512C612C0D
:1014A000712C86E00E94D00286E30E94580390933C
:1014B00024038093230387E30E945803209123038E
:1014C000309124033250309324032093230392500D
:1014D0009093220380932103B90137FF04C066274C
:1014E0007727621B730BAC0197FF04C04427552775
:1014F000481B590B6B3471050CF03EC24B3451053F
:101500000CF447C231E020E0181619060CF030E068
:10151000832F922F20912603309127032817390714
:1015200039F09093270380932603F1E0F09325038D
:101530000EEF12E0F80182810E94D0029C0191E03E
:101540002115310509F090E0F80194838581981701
:1015500009F422C2232B09F01FC221E02683F801DF
:101560009583095F1F4FF3E001321F0719F70E94AF
:101570009403C090F702D090F802E090F902F09046
:10158000FA026C197D098E099F09683E7340810536
:101590009105B8F00E9494036093F7027093F802EB
:1015A0008093F9029093FA020E94960D8F71082E93
:1015B000000C990B9093F6028093F50231E0309382
:1015C000FD028091460381112AC048E2E42E43E0E7
:1015D000F42E5BE0D52E0E949403F701258122238F
:1015E00009F4DDC181809280A380B48068197909F3
:1015F0008A099B09693EF3E07F078105910508F0A0
:10160000CEC1A30192010E94D70DF7012083F7E01C
:10161000EF0EF11C24E4E21623E0F206E1F60E944C
:101620009403C0904903D0904A03E0904B03F0909C
:101630004C036C197D098E099F096A3F710581056C
:10164000910528F480914D0361E0811101C060E0B3
:1016500087E00E94F90260914E038BE00E94F9023C
:1016600060914F0388E00E94F9026091500389E085
:101670000E94F902609151038AE00E94F90289E315
:101680000E945803BC01990F880B990B0E94840E8D
:101690004B015C018AE30E945803BC01990F880B3F
:1016A000990B0E94840E6B017C01A5019401C50178
:1016B000B4010E94340F4B015C01A7019601C701E0
:1016C000B6010E94340F9B01AC01C501B4010E9418
:1016D000110E0E94A70F6B017C010E949403809061
:1016E000EE029090EF02A090F002B090F102681923
:1016F00079098A099B09693C71058105910570F09A
:1017000020E030E047E054E4C701B6010E947D0EBE
:1017100087FF49C13092F4022092F30280912503A1
:10172000882399F010922503809126039091270336
:101730008530910508F03FC1805E9D4FFC0180819E
:10174000082E000C990B0E94A9042EEFE22E22E035
:10175000F22E37E0D32EF7018681882331F1808184
:101760009181D89EF001D99EF00D1124E85DFC4FC7
:1017700020812B300CF021C12581222331F03681CC
:1017800031111BC131E036831582019784309105F8
:1017900008F015C18B5D9D4FFC0180812111846093
:1017A000082E000C990B0E94A904F7E0EF0EF11C23
:1017B0000E151F0581F68091FD02882359F01092C5
:1017C000FD028091F5028F71806C082E000C990B40
:1017D0000E94A9048091F202882309F11092F2027A
:1017E0000E9494036093EE027093EF028093F002E4
:1017F0009093F1028091F3029091F402892B09F405
:10180000E0C080E8082E000C990B0E94A9044CE06F
:1018100050E06BE372E081E592E00E94C60381E54F
:1018200092E00E942404892B09F40EC181E592E024
:101830000E940204282F082E000C330B96E03595E9
:1018400027959A95E1F72370223009F4CCC0233014
:1018500009F4EFC0213009F4C3C08370823009F469
:10186000B5C0833009F4B7C0813009F4ACC01A8226
:101870001982CE0101960E94A003D1CF843009F4D1
:101880003FC0853009F0AFCD1092200110922101A8
:101890009091210198609093210190912101916094
:1018A00090932101A0CD1092800010928100909120
:1018B0008100986090938100909181009160909355
:1018C000810091CD1092B0001092B1009091B000C3
:1018D00092609093B0009091B10091609093B100AC
:1018E00082CD10929000109291009091910098609A
:1018F000909391009091910091609093910073CD9D
:101900001092A0001092A1009091A1009860909375
:10191000A1009091A10091609093A10064CD8130CD
:1019200049F480918100887F90915403892B8093A2
:101930008100ACCD833049F480919100887F9091F3
:101940005403892B80939100A1CD843049F4809178
:10195000A100887F90915403892B8093A10096CD9C
:10196000853009F093CD80912101887F90915403B7
:10197000892B809321018ACD461757070CF0C2CDE1
:1019800083E090E0121613060CF0C4CD82E090E0E4
:10199000C1CD84E090E0BECDF8011682E0CDF70124
:1019A000D082158234CE1092F4021092F30231E00C
:1019B0003093F202B3CE80E4C3CE20E0E6CE80E0E6
:1019C000EDCE81E81FCF3A82298253CF22E030E06A
:1019D0003A8329834ECF83E090E09A83898349CF6D
:1019E0000E94BB031CCF87708230C9F04CF488235F
:1019F00081F0813089F0CE0101960E9478010FCFED
:101A0000833091F08430B9F784E090E09A83898341
:101A1000F2CF1A821982EFCF3A822982ECCFE2E02C
:101A2000F0E0FA83E983E7CF23E030E03A832983CB
:101A3000E2CF8F70082E000C990B9A838983CE0118
:101A400001960E946A01EBCE0E946F034B015C017C
:101A50008AE0C82ED12CE12CF12C0E946F0368196A
:101A600079098A099B09683E734081059105A8F3AD
:101A700091E0C91AD108E108F108E8EE8E0EE3E022
:101A80009E1EA11CB11CC114D104E104F10429F76C
:101A90000E94CE0406CD8F929F92AF92BF92CF92BA
:101AA000DF92EF92FF92CF93DF93EC01688179810F
:101AB0008A819B81611571058105910521F464E29C
:101AC00079ED8BE597E02DE133EF41E050E00E94A6
:101AD000A50D49015A019B01AC01A7EAB1E40E949E
:101AE000C40D6B017C01ACEEB4EFA50194010E9422
:101AF000D20DDC01CB018C0D9D1DAE1DBF1DB7FFAE
:101B000003C00197A109B04888839983AA83BB8346
:101B10009F77DF91CF91FF90EF90DF90CF90BF90B4
:101B2000AF909F908F9008950C944B0D80E092E0C1
:101B30000C944B0DB0E0A0E0809300029093010262
:101B4000A0930202B09303020895052E97FB1EF4A2
:101B500000940E94BC0D57FD07D00E94D70D07FCD2
:101B600003D04EF40C94BC0D5095409530952195C2
:101B70003F4F4F4F5F4F08959095809570956195B9
:101B80007F4F8F4F9F4F08950E94F90DA59F900D95
:101B9000B49F900DA49F800D911D11240895B7FF4F
:101BA0000C94C40D0E94C40D821B930B0895A1E2F6
:101BB0001A2EAA1BBB1BFD010DC0AA1FBB1FEE1FC7
:101BC000FF1FA217B307E407F50720F0A21BB30B12
:101BD000E40BF50B661F771F881F991F1A9469F78E
:101BE00060957095809590959B01AC01BD01CF01EA
:101BF0000895A29FB001B39FC001A39F700D811DE6
:101C00001124911DB29F700D811D1124911D089505
:101C1000EE0FFF1F881F8BBF0790F691E02D1994E0
:101C20005058BB27AA270E94280E0C94FA0E0E9437
:101C3000EC0E38F00E94F30E20F039F49F3F19F4B7
:101C400026F40C94E90E0EF4E095E7FB0C94E30EF9
:101C5000E92F0E940B0F58F3BA1762077307840726
:101C6000950720F079F4A6F50C942D0F0EF4E0956D
:101C70000B2EBA2FA02D0B01B90190010C01CA0146
:101C8000A0011124FF27591B99F0593F50F4503EF1
:101C900068F11A16F040A22F232F342F4427585FE3
:101CA000F3CF469537952795A795F0405395C9F7FB
:101CB0007EF41F16BA0B620B730B840BBAF09150B3
:101CC000A1F0FF0FBB1F661F771F881FC2F70EC052
:101CD000BA0F621F731F841F48F487957795679525
:101CE000B795F7959E3F08F0B0CF9395880F08F011
:101CF0009927EE0F9795879508950E94BF0E08F4D7
:101D000081E00895E89409C097FB3EF49095809592
:101D1000709561957F4F8F4F9F4F9923A9F0F92FB1
:101D200096E9BB279395F695879577956795B7952F
:101D3000F111F8CFFAF4BB0F11F460FF1BC06F5F15
:101D40007F4F8F4F9F4F16C0882311F096E911C027
:101D5000772321F09EE8872F762F05C0662371F048
:101D600096E8862F70E060E02AF09A95660F771F5C
:101D7000881FDAF7880F9695879597F90895990F38
:101D80000008550FAA0BE0E8FEEF16161706E80745
:101D9000F907C0F012161306E407F50798F0621B66
:101DA000730B840B950B39F40A2661F0232B242B3B
:101DB000252B21F408950A2609F4A140A6958FEF5A
:101DC000811D811D089597F99F6780E870E060E0AC
:101DD00008959FEF80EC089500240A9416161706C4
:101DE00018060906089500240A941216130614060C
:101DF00005060895092E0394000C11F4882352F06F
:101E0000BB0F40F4BF2B11F460FF04C06F5F7F4F26
:101E10008F4F9F4F089557FD9058440F551F59F00D
:101E20005F3F71F04795880F97FB991F61F09F3FC7
:101E300079F087950895121613061406551FF2CFF0
:101E40004695F1DF08C0161617061806991FF1CF40
:101E500086957105610508940895E894BB27662767
:101E60007727CB0197F908950E94470F0C94FA0E3B
:101E70000E94EC0E38F00E94F30E20F0952311F032
:101E80000C94E30E0C94E90E11240C942E0F0E9476
:101E90000B0F70F3959FC1F3950F50E0551F629F94
:101EA000F001729FBB27F00DB11D639FAA27F00DB3
:101EB000B11DAA1F649F6627B00DA11D661F829FDA
:101EC0002227B00DA11D621F739FB00DA11D621FBF
:101ED000839FA00D611D221F749F3327A00D611DDC
:101EE000231F849F600D211D822F762F6A2F1124BE
:101EF0009F5750409AF0F1F088234AF0EE0FFF1FF1
:101F0000BB1F661F771F881F91505040A9F79E3F47
:101F1000510580F00C94E30E0C942E0F5F3FE4F318
:101F2000983ED4F3869577956795B795F795E7959D
:101F30009F5FC1F7FE2B880F911D9695879597F9A6
:101F4000089519F416F40C94E90E0C94E70F0E940E
:101F5000130FB8F39923C9F3B6F39F57550B87FFB7
:101F60000E94F50F0024A0E640EA900180585695A3
:101F7000979528F4805C660F771F881F20F026173E
:101F80003707480730F4621B730B840B2029312973
:101F90004A2BA69517940794202531254A2758F7F0
:101FA000660F771F881F20F026173707480730F481
:101FB000620B730B840B200D311D411DA09581F721
:101FC000B901842F9158880F9695879508959F3F62
:101FD00031F0915020F4879577956795B795880FE4
:101FE000911D9695879597F9089591505040660FE9
:0C1FF000771F881FD2F70895F894FFCFE8
:101FFC00010000001F00200021002200230024000B
:10200C00250026002700280002000300040005001C
:10201C00414243444001020308000000005C04C636
:10202C0003F303AE04240402041604436F757020FA
:08203C006465746563746500BE
:00000001FF
