:100000000C9437010C9468010C9468010C946801FD
:100010000C9468010C9468010C9468010C946801BC
:100020000C9468010C9468010C9468010C946801AC
:100030000C9468010C9468010C9468010C9468019C
:100040000C9468010C9468010C9468010C9468018C
:100050000C9468010C9468010C9468010C94D4050C
:100060000C9468010C9448060C941E060C946801CC
:100070000C9468010C9468010C9468010C9468015C
:100080000C947E060C9468010C9468010C94680131
:100090000C9468010C9468010C9468010C9468013C
:1000A0000C9468010C9468010C9468010C9468012C
:1000B0000C9468010C9468010C9468010C9468011C
:1000C0000C9468010C9468010C9468010C9468010C
:1000D0000C9468010C9468010C9468010C946801FC
:1000E0000C9468010C94C8030C94D6020C945E0422
:1000F0000C94A9070C94BB020C94FB020C94E00234
:100100000C9426040C94F5030C94CD020C94F2028A
:100110000C94FC040C94D0020C94E8020C94180487
:100120000C94EE020C94E4020C94C1020C940404AE
:100130000C94FC020C94AB040C9400030C94F60297
:100140000C94DA020C94C5020C94C9020000210040
:10015000240027002A002D00300033000101000098
:10016000040107010A0100002200250028002B00DD
:100170002E003100340002010000050108010B01CE
:10018000000020002300260029002C002F00320050
:100190000001000003010601090105050505070529
:1001A00008080808020202020A0A080804040404F3
:1001B000010101010101010103030303030303031F
:1001C000040707070C0C0C0C0C0C0C0C02020202AE
:1001D00006060606060606060B0B0B0B0B0B0B0B97
:1001E0000102102020080810204010204080020149
:1001F000020108040201010204081020408080402E
:10020000201008040201800402018040201008042C
:1002100002010804020101020408102040800102CA
:1002200004081020408000000A0B02090C0D0E0883
:1002300007030401000000000000000000000000AF
:1002400000000000000000000000000000000000AE
:10025000000012111000000000000000000000006B
:10026000000000000000000000000000A9071124A9
:100270001FBECFEFD1E2DEBFCDBF00E00CBF12E06A
:10028000A0E0B2E0EAE2F9E100E00BBF02C00790B3
:100290000D92A633B107D9F723E0A6E3B2E001C07F
:1002A0001D92A134B207E1F711E0C7E3D1E000E00D
:1002B00006C021970109802FFE010E948B0CC633D6
:1002C000D10780E00807A9F70E949D080C94930CC1
:1002D0000C94000010921D03FC01208131814FB766
:1002E000F89480913B0290913C02A0913D02B09124
:1002F0003E024FBF47E0429FF001439FF00D1124A3
:10030000E150FD4F81839283A383B48381E0858391
:1003100016820895EFEFF2E021E0268FDC018D9147
:100320009C9190A3878F15821486138A128E08954C
:10033000109225031092260310922703109228038F
:10034000FC01808191818130910559F030F082303B
:10035000910559F0039769F0089581E08093250392
:10036000089581E080932803089581E08093260317
:10037000089581E08093270308952FB7F894809122
:100380003B0290913C02A0913D02B0913E022FBFF2
:10039000E0E2F3E080839183A283B38381E08483EE
:1003A00008958091310390913203A0913303B0916D
:1003B000340320912A03233009F47DC0ACF42130AA
:1003C000C9F1223009F457C0809131039091320372
:1003D000A0913303B0913403892B8A2B8B2B19F412
:1003E00081E0809329030895243009F485C02530E5
:1003F00059F7AC01BD01009721E0A207B10520F03B
:100400004FEF5FEF60E070E05093290140932801C7
:10041000841B950BA60BB70B80933103909332038B
:10042000A0933303B0933403809173008260809370
:100430007300CACFAC01BD01009721E0A207B1054E
:1004400020F04FEF5FEF60E070E050938900409341
:100450008800841B950BA60BB70B809331039093F8
:100460003203A0933303B093340380916F00826012
:1004700080936F00A9CFAC01BD018F3F9105A1050D
:10048000B10529F020F04FEF50E060E070E04093BC
:10049000B300841B950BA60BB70B8093310390938D
:1004A0003203A0933303B0933403809170008260D1
:1004B0008093700089CFAC01BD01009721E0A207B5
:1004C000B10520F04FEF5FEF60E070E050939900CE
:1004D00040939800841B950BA60BB70B80933103B8
:1004E00090933203A0933303B0933403809171004F
:1004F00082608093710068CFAC01BD01009721E05C
:10050000A207B10520F04FEF5FEF60E070E050937D
:10051000A9004093A800841B950BA60BB70B8093F2
:10052000310390933203A0933303B093340380914B
:10053000720082608093720047CF8150823108F050
:100540005AC0E82FF0E08827E755FD4F8F4F0C94F5
:100550008B0CC902CD02BB02C102C502FB02D00254
:10056000D602DA02E002E402E802EE02F202FB0244
:10057000F602FC020003809180008F778093800058
:100580000895809180008F7DF9CF80918000877FD2
:10059000F5CF84B58F7784BD089584B58F7DFBCF6B
:1005A0008091B0008F778093B00008958091B00063
:1005B0008F7DF9CF809190008F7780939000089580
:1005C000809190008F7DF9CF80919000877FF5CF4B
:1005D0008091A0008F778093A00008958091A00063
:1005E0008F7DF9CF8091A000877FF5CF809120018A
:1005F0008F77809320010895809120018F7DF9CF1E
:1006000080912001877FF5CFCF93DF93282F30E0B3
:10061000F901EA5DFD4F8491F901E052FE4FD4915A
:10062000F901E656FE4FC491CC23A1F081110E943E
:100630009D02EC2FF0E0EE0FFF1FE058FE4FA5915A
:10064000B491EC91ED2381E090E009F480E0DF913A
:10065000CF91089580E090E0FACF1F93CF93DF937E
:10066000282F30E0F901EA5DFD4F8491F901E05255
:10067000FE4FD491F901E656FE4FC491CC23A9F068
:10068000162F81110E949D02EC2FF0E0EE0FFF1F4C
:10069000EA59FE4FA591B4918FB7F894EC911111DE
:1006A00008C0D095DE23DC938FBFDF91CF911F91DF
:1006B0000895DE2BF8CFCF93DF9390E0FC01E0525A
:1006C000FE4F249186569E4FFC0184918823D1F0E1
:1006D00090E0880F991FFC01E45BFE4FA591B49157
:1006E000FC01EA59FE4FC591D49161110EC09FB72C
:1006F000F8948C91E22FE0958E238C932881E2234D
:10070000E8839FBFDF91CF9108958FB7F894EC9164
:10071000E22BEC938FBFF6CF90917B00977F909365
:100720007B008653806480937C0080917A00806493
:1007300080937A0080917A0086FDFCCF80917800CA
:100740009091790008953FB7F89480913702909185
:100750003802A0913902B0913A0226B5A89B05C093
:100760002F3F19F00196A11DB11D3FBFBA2FA92F30
:10077000982F8827BC01CD01620F711D811D911D2D
:1007800042E0660F771F881F991F4A95D1F7089599
:10079000AF92BF92CF92DF92EF92FF920F931F938F
:1007A000CF93DF936C017B018B01040F151FEB01CD
:1007B0005E01AE18BF08C017D10759F06991D60184
:1007C000ED91FC910190F081E02DC6011995892BE6
:1007D00079F7C501DF91CF911F910F91FF90EF90B5
:1007E000DF90CF90BF90AF900895FC01538D448D62
:1007F000252F30E0842F90E0821B930B541710F0CC
:10080000CF96089501970895FC01918D828D9817D8
:1008100061F0A28DAE0FBF2FB11D5D968C91928DB0
:100820009F5F9F73928F90E008958FEF9FEF0895E1
:10083000FC01918D828D981731F0828DE80FF11DAA
:10084000858D90E008958FEF9FEF0895FC01918DC5
:10085000228D892F90E0805C9F4F821B91098F73BE
:10086000992708958FE392E00E94260421E0892BC6
:1008700009F420E0822F0895FC01A48DA80FB92F60
:10088000B11DA35ABF4F2C91848D90E001968F73B8
:100890009927848FA689B7892C93A089B1898C91D7
:1008A000837080648C93938D848D981306C0028826
:1008B000F389E02D80818F7D80830895EF92FF92F0
:1008C0000F931F93CF93DF93EC0181E0888F9B8D73
:1008D0008C8D98131AC0E889F989808185FF15C02D
:1008E0009FB7F894EE89FF896083E889F989808150
:1008F0008370806480839FBF81E090E0DF91CF911F
:100900001F910F91FF90EF900895F62E0B8D10E040
:100910000F5F1F4F0F731127E02E8C8D8E110CC0AF
:100920000FB607FCFACFE889F989808185FFF5CFFA
:10093000CE010E943C04F1CFEB8DEC0FFD2FF11D99
:10094000E35AFF4FF0829FB7F8940B8FEA89FB8937
:1009500080818062CFCFCF93DF93EC01888D882395
:10096000B9F0AA89BB89E889F9898C9185FD03C012
:10097000808186FD0DC00FB607FCF7CF8C9185FFF7
:10098000F2CF808185FFEDCFCE010E943C04E9CFFC
:10099000DF91CF91089580E090E0892B29F00E94AB
:1009A000320481110E94000080E090E0892B49F020
:1009B00080E090E0892B29F00E94000081110E94C4
:1009C000000080E090E0892B49F080E090E0892BE6
:1009D00029F00E94000081110E94000080E090E058
:1009E000892B49F080E090E0892B29F00E940000DB
:1009F00081110C9400000895EF92FF920F931F93C2
:100A0000CF93DF9380911B0390911C03009709F013
:100A100097C060E085E00E942D0380911D0388232C
:100A200009F496C061E080911E0390911F030A971C
:100A30000CF460E08FE10E942D0361E080911E03C1
:100A400090911F0309970CF460E080E20E942D034F
:100A500061E080911E0390911F0308970CF460E001
:100A600081E20E942D0361E080911E0390911F039B
:100A700007970CF460E082E20E942D0361E0809110
:100A80001E0390911F0306970CF460E083E20E941E
:100A90002D0361E080911E0390911F0305970CF4D4
:100AA00060E084E20E942D0361E080911E0390913A
:100AB0001F0304970CF460E085E20E942D0361E0BF
:100AC00080911E0390911F0303970CF460E086E26F
:100AD0000E942D0361E080911E0390911F030297F5
:100AE0000CF460E087E20E942D0361E080911E0318
:100AF00090911F03181619060CF060E088E20E941E
:100B00002D03E0911B03F0911C03EE0FFF1FEC5E21
:100B1000FD4F61E080810E942D0380911B03909125
:100B20001C03019684309105D4F590931C038093A7
:100B30001B03DF91CF911F910F91FF90EF900895CC
:100B4000880F991FFC01EE5EFD4F60E0808163CF4E
:100B500020911B0330911C0300E012E0D0E0C0E0C4
:100B600047E0429FC001439F900D11249C012150FA
:100B70003D4F7901F80180810E5F1F4FF701208101
:100B8000022E000C330B61E02C173D0709F060E0EA
:100B90000E942D032196CA30D10561F7B2CF109281
:100BA0001C0310921B03C5CF1F920F920FB60F921A
:100BB00011242F933F938F939F93AF93BF93809173
:100BC0003B0290913C02A0913D02B0913E023091D7
:100BD000360223E0230F2D3758F50196A11DB11DD4
:100BE0002093360280933B0290933C02A0933D02F7
:100BF000B0933E028091370290913802A091390261
:100C0000B0913A020196A11DB11D809337029093D5
:100C10003802A0933902B0933A02BF91AF919F91ED
:100C20008F913F912F910F900FBE0F901F901895AD
:100C300026E8230F0296A11DB11DD2CF1F920F925D
:100C40000FB60F9211240BB60F922F933F934F9331
:100C50005F936F937F938F939F93AF93BF93EF9324
:100C6000FF938FE392E00E943C04FF91EF91BF91CC
:100C7000AF919F918F917F916F915F914F913F9134
:100C80002F910F900BBE0F900FBE0F901F901895D5
:100C90001F920F920FB60F9211240BB60F922F9343
:100CA0008F939F93EF93FF93E0914F02F091500247
:100CB0008081E0915502F091560282FD1DC0908125
:100CC000809158028F5F8F7320915902821741F0F3
:100CD000E0915802F0E0E15CFD4F958F809358025F
:100CE000FF91EF919F918F912F910F900BBE0F90DD
:100CF0000FBE0F901F9018958081F2CF1F920F9218
:100D00000FB60F9211240BB60F92CF92DF92EF9293
:100D1000FF922F933F934F935F936F937F938F93A4
:100D20009F93AF93BF93EF93FF93C0903503D09001
:100D30003603E0903703F090380380912A03833024
:100D400009F04DC0C114D104E104F10409F4D5C087
:100D500080912903882309F45BC0E0913D03F09161
:100D60003E03309741F080913F03909140030097FC
:100D700009F44CC0199580912D0390912E03A091F8
:100D80002F03B09130030097A140B105B4F0F8945F
:100D900080912D0390912E03A0912F03B0913003E9
:100DA0008093310390933203A0933303B0933403C1
:100DB0000E94D1011092290378941C141D041E0472
:100DC0001F046CF481E0C81AD108E108F108C09250
:100DD0003503D0923603E0923703F0923803FF9147
:100DE000EF91BF91AF919F918F917F916F915F91A3
:100DF0004F913F912F91FF90EF90DF90CF900F9008
:100E00000BBE0F900FBE0F901F9018951995B3CF82
:100E1000F89420912A038091310390913203A0919C
:100E20003303B0913403223009F447C08F3F9F4F02
:100E3000A105B10510F40E94D10180913103909178
:100E40003203A0913303B0913403AC01BD0100978C
:100E500021E0A207B10520F04FEF5FEF60E070E006
:100E6000841B950BA60BB70B809331039093320331
:100E7000A0933303B09334038091310390913203F4
:100E8000A0913303B0913403892B8A2B8B2B91F5DE
:100E900080912D0390912E03A0912F03B0913003E8
:100EA0008093310390933203A0933303B0933403C0
:100EB00081E080932903789492CF8F3F9105A1051B
:100EC000B10510F40E94D101809131039091320359
:100ED000A0913303B0913403AC01BD018F3F910564
:100EE000A105B10509F008F4BBCF4FEF50E060E079
:100EF00070E0B6CF10922903DECFF89480912A03D8
:100F00008330D9F054F4813091F08230A1F6809191
:100F100070008D7F80937000CECF8430A1F085303B
:100F200051F6809173008D7F80937300C4CF8091C0
:100F30006F008D7F80936F00BECF809171008D7F99
:100F400080937100B8CF809172008D7F8093720082
:100F5000B2CF109242021092410288EE93E0A0E0DC
:100F6000B0E08093430290934402A0934502B09373
:100F7000460288E292E09093400280933F0285EC23
:100F800090E090934C0280934B0284EC90E090931D
:100F90004E0280934D0280EC90E09093500280933B
:100FA0004F0281EC90E0909352028093510282ECC8
:100FB00090E0909354028093530286EC90E09093DB
:100FC00056028093550210925802109259021092C4
:100FD0005A0210925B0283E080932A031092390335
:100FE00010923A0310923B0310923C0310923E037E
:100FF00010923D031092400310923F031092290378
:1010000081E090E090932C0380932B0310922D03AA
:1010100010922E0310922F0310923003109231037E
:101020001092320310923303109234038FEF9FEF2C
:10103000DC018093350390933603A0933703B0937C
:101040003803109225031092260310922703109262
:101050002803109220031092210310922203109271
:10106000230310922403EFEFF2E08BE080831182E0
:1010700012821382148215821682379693E0EB3126
:10108000F907A1F710921C0310921B0310921D0385
:1010900010921F0310921E031092F9021092F80290
:1010A0001092FB021092FA021092FC021092DD02E2
:1010B0001092DC0281E190E09093DF028093DE02E7
:1010C0001092E0021092E2021092E10281E090E0C0
:1010D0009093E4028093E30280E190E09093E60233
:1010E0008093E5021092E7021092E9021092E80262
:1010F00082E090E09093EB028093EA0283E190E03B
:101100009093ED028093EC021092EE021092F002A6
:101110001092EF0283E090E09093F2028093F1024C
:1011200082E190E09093F4028093F3021092F50232
:101130001092F7021092F6020895CF93DF931F9258
:101140001F92CDB7DEB7789484B5826084BD84B534
:10115000816084BD85B5826085BD85B5816085BDB2
:1011600080916E00816080936E001092810080916A
:1011700081008260809381008091810081608093F2
:101180008100809180008160809380008091B10017
:1011900084608093B1008091B00081608093B00042
:1011A0008091910082608093910080919100816094
:1011B0008093910080919000816080939000809155
:1011C000A10082608093A1008091A1008160809342
:1011D000A1008091A00081608093A00080912101F6
:1011E000826080932101809121018160809321019F
:1011F0008091200181608093200180917A00846039
:1012000080937A0080917A00826080937A00809146
:101210007A00816080937A0080917A008068809360
:101220007A001092C100E0914F02F091500282E0EA
:101230008083E0914B02F0914C021082E0914D02CC
:10124000F0914E028FEC808310925702E09153028E
:10125000F091540286E08083E0915102F0915202B5
:10126000808180618083E0915102F09152028081FF
:1012700088608083E0915102F09152028081806801
:101280008083E0915102F091520280818F7D8083B2
:1012900061E08BE00E945B0361E08AE00E945B03F7
:1012A00061E089E00E945B0361E088E00E945B03EB
:1012B00061E087E00E945B0361E08FE10E945B03D5
:1012C00061E080E20E945B0361E081E20E945B03D7
:1012D00061E082E20E945B0361E083E20E945B03C3
:1012E00061E084E20E945B0361E085E20E945B03AF
:1012F00061E086E20E945B0361E087E20E945B039B
:1013000061E088E20E945B0361E082E00E945B038F
:1013100061E083E00E945B0361E084E00E945B0384
:1013200061E085E00E945B0360E087E30E945B036D
:1013300060E086E30E945B0308EF12E0ECEDCE2E46
:10134000E2E0DE2E60E0F60182810E945B03F7E0BE
:10135000CF0ED11C0C151D05A9F760E086E00E9498
:101360005B0380912A03F894833009F4E6C10CF002
:10137000B1C1813009F4C3C1823009F4CFC1809377
:101380002A03789480912A0318160CF04EC08FEF30
:101390009FEFDC018093350390933603A0933703CE
:1013A000B09338038FE79BEBA0E0B0E080932D0370
:1013B00090932E03A0932F03B093300380933103B7
:1013C00090933203A0933303B093340381E090E011
:1013D00090932C0380932B03F8948BEA9AEAA6EA65
:1013E000B3E48093390390933A03A0933B03B09303
:1013F0003C038CEF94E090933E0380933D03109266
:10140000400310923F031092290380912A038230F7
:1014100009F0B1C18091B100887F90912B03892B95
:101420008093B1000E94D101789473E0272E312C73
:1014300086E00E94040386E30E948C039093FB02E3
:101440008093FA0287E30E948C032091FA02309184
:10145000FB0232503093FB022093FA029250909399
:10146000F9028093F802B90137FF04C06627772795
:10147000621B730BAC0197FF04C044275527481B20
:10148000590B6B3471050CF0A3C14B3451050CF4AE
:10149000ACC131E020E0181619060CF030E0832FC3
:1014A000922F2091FD023091FE022817390739F062
:1014B0009093FE028093FD0221E02093FC020CED4C
:1014C00012E0F80182810E9404039C0191E0211541
:1014D000310509F090E0F80194838581981709F4AB
:1014E00087C1232B09F084C121E02683F80195836D
:1014F000095F1F4F0C151D0521F780911D038111F8
:1015000037C04FEFE42E42E0F42E5BE1852E53E02E
:10151000952E6BE0A62E2FB7F89460913B02709148
:101520003C0280913D0290913E022FBFF701258140
:10153000222309F460C14180528063807480641961
:10154000750986099709693EF3E07F0781059105D2
:1015500008F051C124E630E040E050E00E94690C00
:10156000F7012083F7E0EF0EF11C8E149F0499F62B
:101570002FB7F89480913B0290913C02A0913D02DC
:10158000B0913E022FBF4091200350912103609102
:10159000220370912303841B950BA60BB70B8E3E81
:1015A0009240A105B10528F48091240361E08111E6
:1015B00001C060E087E00E942D03609125038BE06D
:1015C0000E942D03609126038AE00E942D03609102
:1015D000270389E00E942D036091280388E00E9480
:1015E0002D038091FC02882391F01092FC028091DF
:1015F000FD029091FE0260E48530910520F4845E46
:101600009D4FFC0160818FE392E00E945E042CED0F
:10161000E22E22E0F22E37E0A32EF7018681882306
:1016200021F180819181A89EF001A99EF00D1124E5
:10163000E150FD4F20812B300CF0E1C025812223A9
:1016400029F036813111DBC031E03683019760E04B
:101650008330910520F48F5D9D4FFC016081211145
:1016600064608FE392E00E945E04F7E0EF0EF11CED
:101670000E151F0591F68FE392E00E942604892B38
:1016800009F400C18FE392E00E940404282F082E81
:10169000000C330B96E0359527959A95E1F723706A
:1016A000223009F4BEC0233009F4E1C0213009F42E
:1016B000B5C08370823009F4A9C0833009F4ABC08F
:1016C000813009F49EC01A821982CE0101960E94CF
:1016D0006A01D1CF843009F43FC0853009F04FCE84
:1016E0001092200110922101909121019860909315
:1016F00021019091210191609093210140CE10929F
:1017000080001092810090918100986090938100F8
:101710009091810091609093810031CE1092B00041
:101720001092B1009091B00092609093B0009091AF
:10173000B10091609093B10022CE1092900010926F
:1017400091009091910098609093910090919100F8
:1017500091609093910013CE1092A0001092A1007E
:101760009091A10098609093A1009091A100916048
:101770009093A10004CE813049F480918100887F4C
:1017800090912B03892B809381004CCE833049F4B8
:1017900080919100887F90912B03892B80939100F9
:1017A00041CE843049F48091A100887F90912B0331
:1017B000892B8093A10036CE853009F033CE8091FD
:1017C0002101887F90912B03892B809321012ACEC0
:1017D000461757070CF05DCE83E090E01216130613
:1017E0000CF05FCE82E090E05CCE84E090E059CED9
:1017F000F80116827BCEF701A0821582B3CE20E0DD
:1018000025CF21E030E03A8329835FCF82E090E06A
:101810009A8389835ACF3A82298257CF0E94BD0189
:101820002ACF87708230D9F04CF4882381F0813040
:1018300089F0CE0101960E9498011DCF8330A1F05E
:101840008430B9F784E090E09A838983F2CF1A82DA
:101850001982EFCFE1E0F0E0FA83E983EACF22E0FA
:1018600030E03A832983E5CF3A822982E2CF8F7034
:10187000082E000C990B9A838983CE0101960E9451
:101880008A01F9CE0E94A3032B013C018AE0882E35
:10189000912CA12CB12C0E94A3036419750986090F
:1018A0009709683E734081059105A8F391E0891A74
:1018B0009108A108B108E8EE4E0EE3E05E1E611C3F
:1018C000711C81149104A104B10429F70E94CB0476
:1018D000AFCDA1E21A2EAA1BBB1BFD010DC0AA1F92
:1018E000BB1FEE1FFF1FA217B307E407F50720F089
:1018F000A21BB30BE40BF50B661F771F881F991F04
:101900001A9469F760957095809590959B01AC014C
:10191000BD01CF010895EE0FFF1F881F8BBF0790F9
:0A192000F691E02D1994F894FFCF22
:10192A001F00200021002200230024002500260099
:10193A002700280002000300040005004142434436
:10194A0040010203000000005E04C803F503AB0473
:06195A0026040404180439
:00000001FF
