:100000000C9437010C9468010C9468010C946801FD
:100010000C9468010C9468010C9468010C946801BC
:100020000C9468010C9468010C9468010C946801AC
:100030000C9468010C9468010C9468010C9468019C
:100040000C9468010C9468010C9468010C9468018C
:100050000C9468010C9468010C9468010C94990547
:100060000C9468010C940D060C94E3050C94680143
:100070000C9468010C9468010C9468010C9468015C
:100080000C9443060C9468010C9468010C9468016C
:100090000C9468010C9468010C9468010C9468013C
:1000A0000C9468010C9468010C9468010C9468012C
:1000B0000C9468010C9468010C9468010C9468011C
:1000C0000C9468010C9468010C9468010C9468010C
:1000D0000C9468010C9468010C9468010C946801FC
:1000E0000C9468010C94D4040C94D7020C94EB0289
:1000F0000C946E070C94B4020C94B0020C94B802E9
:100100000C94BF020C944A040C9419040C94E5025C
:100110000C94EC030C94BC020C94D3020C94C50216
:100120000C943C040C94CF020C94C9020C94AA02C7
:100130000C9428040C94DD020C94EF020C94EA0257
:100140000C94E1020C9482040C942505000021001B
:10015000240027002A002D00300033000101000098
:10016000040107010A0100002200250028002B00DD
:100170002E003100340002010000050108010B01CE
:10018000000020002300260029002C002F00320050
:100190000001000003010601090105050505070529
:1001A00008080808020202020A0A080804040404F3
:1001B000010101010101010103030303030303031F
:1001C000040707070C0C0C0C0C0C0C0C02020202AE
:1001D00006060606060606060B0B0B0B0B0B0B0B97
:1001E0000102102020080810204010204080020149
:1001F000020108040201010204081020408080402E
:10020000201008040201800402018040201008042C
:1002100002010804020101020408102040800102CA
:1002200004081020408000000A0B02090C0D0E0883
:1002300007030401000000000000000000000000AF
:1002400000000000000000000000000000000000AE
:10025000000012111000000000000000000000006B
:100260000000000000000000000000006E071124E4
:100270001FBECFEFD1E2DEBFCDBF00E00CBF12E06A
:10028000A0E0B2E0ECE7F7E100E00BBF02C00790AE
:100290000D92A633B107D9F723E0A6E3B2E001C07F
:1002A0001D92A432B207E1F711E0C7E3D1E000E00C
:1002B00006C021970109802FFE010E94B40BC633AE
:1002C000D10780E00807A9F70E94EC070C94BC0B4B
:1002D0000C940000FC01208131814FB7F89480918B
:1002E000410290914202A0914302B09144024FBF5B
:1002F00046E0429FF001439FF00D1124E751FD4F6E
:1003000081839283A383B48381E0858308951092CF
:1003100008031092090310920A0310920B03FC01C8
:10032000808191818130910559F030F082309105C2
:1003300059F0039769F0089581E0809308030895C8
:1003400081E080930B03089581E080930903089571
:1003500081E080930A0308952FB7F89480914102B9
:1003600090914202A0914302B09144022FBFE3E07A
:10037000F3E080839183A283B38381E08483089533
:100380008091140390911503A0911603B091170367
:1003900020910D03233009F47DC0ACF42130C9F164
:1003A000223009F457C08091140390911503A09155
:1003B0001603B0911703892B8A2B8B2B19F481E03C
:1003C00080930C030895243009F485C0253059F733
:1003D000AC01BD01009721E0A207B10520F04FEF6D
:1003E0005FEF60E070E05093290140932801841B87
:1003F000950BA60BB70B8093140390931503A09352
:100400001603B0931703809173008260809373008A
:10041000CACFAC01BD01009721E0A207B10520F0D1
:100420004FEF5FEF60E070E05093890040938800E9
:10043000841B950BA60BB70B8093140390931503A5
:10044000A0931603B093170380916F00826080938E
:100450006F00A9CFAC01BD018F3F9105A105B1058A
:1004600029F020F04FEF50E060E070E04093B300DF
:10047000841B950BA60BB70B809314039093150365
:10048000A0931603B093170380917000826080934D
:10049000700089CFAC01BD01009721E0A207B10532
:1004A00020F04FEF5FEF60E070E0509399004093D1
:1004B0009800841B950BA60BB70B809314039093A5
:1004C0001503A0931603B093170380917100826007
:1004D0008093710068CFAC01BD01009721E0A207B5
:1004E000B10520F04FEF5FEF60E070E05093A9009E
:1004F0004093A800841B950BA60BB70B80931403A5
:1005000090931503A0931603B09317038091720084
:1005100082608093720047CF8150823108F05AC0C8
:10052000E82FF0E08827E856FD4F8F4F0C94B40B6E
:10053000B802BC02AA02B002B402EA02BF02C502BB
:10054000C902CF02D302D702DD02E102EA02E502CC
:10055000EB02EF02809180008F77809380000895F6
:10056000809180008F7DF9CF80918000877FF5CFCB
:1005700084B58F7784BD089584B58F7DFBCF80913E
:10058000B0008F778093B00008958091B0008F7D88
:10059000F9CF809190008F7780939000089580919B
:1005A00090008F7DF9CF80919000877FF5CF80916B
:1005B000A0008F778093A00008958091A0008F7D88
:1005C000F9CF8091A000877FF5CF809120018F77B0
:1005D000809320010895809120018F7DF9CF809133
:1005E0002001877FF5CFCF93DF93282F30E0F901EB
:1005F000EA5DFD4F8491F901E052FE4FD491F9017B
:10060000E656FE4FC491CC23A1F081110E948C02CA
:10061000EC2FF0E0EE0FFF1FE058FE4FA591B491D4
:10062000EC91ED2381E090E009F480E0DF91CF913F
:10063000089580E090E0FACF1F93CF93DF93282FA7
:1006400030E0F901EA5DFD4F8491F901E052FE4F7F
:10065000D491F901E656FE4FC491CC23A9F0162F90
:1006600081110E948C02EC2FF0E0EE0FFF1FEA597F
:10067000FE4FA591B4918FB7F894EC91111108C079
:10068000D095DE23DC938FBFDF91CF911F9108952A
:10069000DE2BF8CFCF93DF9390E0FC01E052FE4FCA
:1006A000249186569E4FFC0184918823D1F090E0DE
:1006B000880F991FFC01E45BFE4FA591B491FC01EA
:1006C000EA59FE4FC591D49161110EC09FB7F894BD
:1006D0008C91E22FE0958E238C932881E223E8838E
:1006E0009FBFDF91CF9108958FB7F894EC91E22BE3
:1006F000EC938FBFF6CF90917B00977F90937B0018
:100700008653806480937C0080917A00806480931B
:100710007A0080917A0086FDFCCF809178009091DC
:10072000790008953FB7F89480913D0290913E0280
:10073000A0913F02B091400226B5A89B05C02F3F73
:1007400019F00196A11DB11D3FBFBA2FA92F982FF7
:100750008827BC01CD01620F711D811D911D42E0F2
:10076000660F771F881F991F4A95D1F708958F92BA
:100770009F92AF92BF92CF92DF92EF92FF920E9430
:1007800092034B015C018AE0C82ED12CE12CF12CA4
:100790000E949203681979098A099B09683E73408F
:1007A00081059105A8F321E0C21AD108E108F108FA
:1007B00088EE880E83E0981EA11CB11CC114D104E0
:1007C000E104F10429F7FF90EF90DF90CF90BF9004
:1007D000AF909F908F900895AF92BF92CF92DF928B
:1007E000EF92FF920F931F93CF93DF936C017B01E6
:1007F0008B01040F151FEB015E01AE18BF08C01777
:10080000D10759F06991D601ED91FC910190F081E9
:10081000E02DC6011995892B79F7C501DF91CF919C
:100820001F910F91FF90EF90DF90CF90BF90AF900E
:100830000895FC01538D448D252F30E0842F90E0E6
:10084000821B930B541710F0CF96089501970895CB
:10085000FC01918D828D981761F0A28DAE0FBF2F94
:10086000B11D5D968C91928D9F5F9F73928F90E0EA
:1008700008958FEF9FEF0895FC01918D828D981759
:1008800031F0828DE80FF11D858D90E008958FEF96
:100890009FEF0895FC01918D228D892F90E0805C5F
:1008A0009F4F821B91098F739927089585E492E0E9
:1008B0000E944A0421E0892B09F420E0822F089548
:1008C000FC01A48DA80FB92FB11DA35ABF4F2C91C5
:1008D000848D90E001968F739927848FA689B789BC
:1008E0002C93A089B1898C91837080648C93938DB3
:1008F000848D981306C00288F389E02D80818F7D56
:1009000080830895EF92FF920F931F93CF93DF930D
:10091000EC0181E0888F9B8D8C8D98131AC0E8893B
:10092000F989808185FF15C09FB7F894EE89FF890A
:100930006083E889F98980818370806480839FBFA8
:1009400081E090E0DF91CF911F910F91FF90EF90A8
:100950000895F62E0B8D10E00F5F1F4F0F731127B8
:10096000E02E8C8D8E110CC00FB607FCFACFE889F3
:10097000F989808185FFF5CFCE010E946004F1CF17
:10098000EB8DEC0FFD2FF11DE35AFF4FF0829FB767
:10099000F8940B8FEA89FB8980818062CFCF682F22
:1009A00085E492E00C948204CF93DF93EC01888D70
:1009B0008823B9F0AA89BB89E889F9898C9185FDDA
:1009C00003C0808186FD0DC00FB607FCF7CF8C9168
:1009D00085FFF2CF808185FFEDCFCE010E946004BC
:1009E000E9CFDF91CF91089580E090E0892B29F045
:1009F0000E94560481110E94000080E090E0892B43
:100A000049F080E090E0892B29F00E9400008111DC
:100A10000E94000080E090E0892B49F080E090E0A7
:100A2000892B29F00E94000081110E94000080E0C3
:100A300090E0892B49F080E090E0892B29F00E941A
:100A4000000081110C9400000895EF92FF920F9323
:100A50001F93CF93DF93809101039091020300973E
:100A600009F049C060E085E00E941C032091010369
:100A70003091020303E012E0D0E0C0E046E0429F84
:100A8000C001439F900D11249C0127513D4F7901D6
:100A9000F80180810E5F1F4FF7012081022E000CAC
:100AA000330B61E02C173D0709F060E00E941C0346
:100AB0002196CA30D10561F7E0910103F09102035C
:100AC000EE0FFF1FE95EFD4F61E080810E941C0375
:100AD00080910103909102030196843091059CF46A
:100AE0009093020380930103DF91CF911F910F91A7
:100AF000FF90EF900895880F991FFC01EB5EFD4F6A
:100B000060E08081B1CF1092020310920103ECCF1C
:100B1000FC01208131812150310980E023303105F1
:100B200020F420503E4FD9018C9192819111846024
:100B300008951F920F920FB60F9211242F933F9397
:100B40008F939F93AF93BF93809141029091420204
:100B5000A0914302B091440230913C0223E0230F64
:100B60002D3758F50196A11DB11D20933C028093AD
:100B7000410290934202A0934302B09344028091B9
:100B80003D0290913E02A0913F02B0914002019639
:100B9000A11DB11D80933D0290933E02A0933F02A0
:100BA000B0934002BF91AF919F918F913F912F9150
:100BB0000F900FBE0F901F90189526E8230F0296F6
:100BC000A11DB11DD2CF1F920F920FB60F9211240B
:100BD0000BB60F922F933F934F935F936F937F9337
:100BE0008F939F93AF93BF93EF93FF9385E492E02E
:100BF0000E946004FF91EF91BF91AF919F918F91FF
:100C00007F916F915F914F913F912F910F900BBE0C
:100C10000F900FBE0F901F9018951F920F920FB656
:100C20000F9211240BB60F922F938F939F93EF93F4
:100C3000FF93E0915502F09156028081E0915B02B2
:100C4000F0915C0282FD1DC0908180915E028F5FF9
:100C50008F7320915F02821741F0E0915E02F0E015
:100C6000EB5BFD4F958F80935E02FF91EF919F911B
:100C70008F912F910F900BBE0F900FBE0F901F9072
:100C800018958081F2CF1F920F920FB60F92112408
:100C90000BB60F92CF92DF92EF92FF922F933F937A
:100CA0004F935F936F937F938F939F93AF93BF9374
:100CB000EF93FF93C0901803D0901903E0901A03AC
:100CC000F0901B0380910D03833009F04DC0C114D7
:100CD000D104E104F10409F4D5C080910C03882308
:100CE00009F45BC0E0912003F0912103309741F0BB
:100CF0008091220390912303009709F44CC0199529
:100D00008091100390911103A0911203B0911303ED
:100D10000097A140B105B4F0F89480911003909130
:100D20001103A0911203B0911303809314039093C5
:100D30001503A0931603B09317030E94C0011092ED
:100D40000C0378941C141D041E041F046CF481E031
:100D5000C81AD108E108F108C0921803D09219030B
:100D6000E0921A03F0921B03FF91EF91BF91AF91B4
:100D70009F918F917F916F915F914F913F912F91B3
:100D8000FF90EF90DF90CF900F900BBE0F900FBEB3
:100D90000F901F9018951995B3CFF89420910D03DB
:100DA0008091140390911503A0911603B09117033D
:100DB000223009F447C08F3F9F4FA105B10510F4C1
:100DC0000E94C0018091140390911503A091160315
:100DD000B0911703AC01BD01009721E0A207B10556
:100DE00020F04FEF5FEF60E070E0841B950BA60BE7
:100DF000B70B8093140390931503A0931603B0933D
:100E000017038091140390911503A0911603B091DC
:100E10001703892B8A2B8B2B91F5809110039091CE
:100E20001103A0911203B0911303809314039093C4
:100E30001503A0931603B093170381E080930C036E
:100E4000789492CF8F3F9105A105B10510F40E94CF
:100E5000C0018091140390911503A0911603B091E5
:100E60001703AC01BD018F3F9105A105B10509F044
:100E700008F4BBCF4FEF50E060E070E0B6CF1092C7
:100E80000C03DECFF89480910D038330D9F054F435
:100E9000813091F08230A1F6809170008D7F809337
:100EA0007000CECF8430A1F0853051F68091730070
:100EB0008D7F80937300C4CF80916F008D7F80936E
:100EC0006F00BECF809171008D7F80937100B8CF8D
:100ED000809172008D7F80937200B2CFE5E4F2E0E2
:100EE0001382128288EE93E0A0E0B0E084839583C1
:100EF000A683B78388E292E09183808385EC90E0BB
:100F00009587848784EC90E09787868780EC90E0D3
:100F1000918B808B81EC90E0938B828B82EC90E0C4
:100F2000958B848B86EC90E0978B868B118E128E3E
:100F3000138E148EECE0F3E083E08183108A118A33
:100F4000128A138A158A148A178A168A108281E0F7
:100F500090E0938382831482158216821782108612
:100F60001186128613868FEF9FEFDC0184879587A9
:100F7000A687B787E8E0F3E010821182128213821D
:100F8000E3E0F3E010821182128213821482E9EE10
:100F9000F2E08BE080831182128213821482158228
:100FA000868317821086118612861386848715869B
:100FB00016861786108A118A828B138A148A158ADC
:100FC000168A178A118E108EE2EEF2E011821082DC
:100FD0001382128214820895CF93DF9300D0CDB78D
:100FE000DEB7789484B5826084BD84B5816084BDA9
:100FF00085B5826085BD85B5816085BD80916E00B7
:10100000816080936E0010928100809181008260E7
:101010008093810080918100816080938100809124
:1010200080008160809380008091B1008460809313
:10103000B1008091B00081608093B00080919100F8
:1010400082608093910080919100816080939100F3
:10105000809190008160809390008091A1008260D7
:101060008093A1008091A10081608093A100809174
:10107000A00081608093A000809121018260809314
:1010800021018091210181608093210180912001C3
:1010900081608093200180917A00846080937A003F
:1010A00080917A00826080937A0080917A008160DA
:1010B00080937A0080917A00806880937A00109201
:1010C000C100E0915502F091560282E08083E091E8
:1010D0005102F09152021082E0915302F0915402B9
:1010E0008FEC808310925D02E0915902F0915A02D8
:1010F00086E08083E0915702F09158028081806100
:101100008083E0915702F09158028081886080834B
:10111000E0915702F0915802808180688083E091CD
:101120005702F091580280818F7D808360E085E1D5
:101130000E944A0360E084E10E944A0360E083E188
:101140000E944A0360E082E10E944A0361E08BE072
:101150000E944A0361E08AE00E944A0361E089E05C
:101160000E944A0361E088E00E944A0361E087E050
:101170000E944A0361E08FE10E944A0361E080E23D
:101180000E944A0361E081E20E944A0361E082E238
:101190000E944A0361E083E20E944A0361E084E224
:1011A0000E944A0361E085E20E944A0361E086E210
:1011B0000E944A0361E087E20E944A0361E088E2FC
:1011C0000E944A0361E082E00E944A0361E083E0FA
:1011D0000E944A0361E084E00E944A0361E085E0E6
:1011E0000E944A0360E087E30E944A0360E086E3CE
:1011F0000E944A0360E086E00E944A0380910D034A
:10120000F894833009F400C20CF0CBC1813009F4AA
:10121000DDC1823009F4E9C180930D037894809197
:101220000D0318160CF04EC08FEF9FEFDC0180937A
:10123000180390931903A0931A03B0931B038FE72D
:101240009BEBA0E0B0E08093100390931103A09378
:101250001203B09313038093140390931503A09388
:101260001603B093170381E090E090930F038093EF
:101270000E03F8948BEA9AEAA6EAB3E480931C037F
:1012800090931D03A0931E03B0931F0385E295E086
:101290009093210380932003109223031092220342
:1012A00010920C0380910D03823009F0CBC1809124
:1012B000B100887F90910E03892B8093B1000E942A
:1012C000C001789433243394EE24E394F12C33E07A
:1012D000C32ED12C42E0A42EB12C54EF452E552420
:1012E0005394612C712C64E0862E912C85E10E9430
:1012F000F30221E0892B09F020E020933B0284E1F6
:101300000E94F30221E0892B09F020E020933A02A9
:1013100083E10E94F30221E0892B09F020E0209371
:10132000390282E10E94F30221E0892B09F020E0DA
:101330002093380286E00E94F30286E30E947B033A
:101340009093E5028093E40287E30E947B0320915F
:10135000E4023091E50232503093E5022093E4023A
:1013600092509093E3028093E202B90137FF04C0E8
:1013700066277727621B730BAC0197FF04C04427D5
:101380005527481B590B6B3471050CF088C14B3441
:1013900051050CF491C131E020E0181619060CF447
:1013A00030E0832F922F2091E7023091E802281736
:1013B000390731F09093E8028093E7023092E60219
:1013C00009EE12E02FB7F894609141027091420249
:1013D00080914302909144022FBFF801258122237E
:1013E000A1F02181328143815481621B730B840BF4
:1013F000950B6938F3E17F078105910530F4A3016E
:1014000092010E94920BF80120830A5F1F4FF3E0C4
:1014100001301F07B9F62FB7F894809141029091DF
:101420004202A0914302B09144022FBF40910303B6
:10143000509104036091050370910603841B950B82
:10144000A60BB70B883E9340A105B10528F4809107
:10145000070361E0811101C060E087E00E941C0386
:10146000609108038BE00E941C03609109038AE0ED
:101470000E941C0360910A0389E00E941C03609192
:101480000B0388E00E941C0380913B02882371F0CB
:101490001A8219821B82CE0101960E948805082EAD
:1014A000000C990B0E94CF040E94B70380913A026E
:1014B000882371F0FA82E9821B82CE0101960E9494
:1014C0008805082E000C990B0E94CF040E94B703D8
:1014D00080913902882371F0BA82A9821B82CE01E1
:1014E00001960E948805082E000C990B0E94CF04DB
:1014F0000E94B70380913802882371F0DA82C98292
:101500001B82CE0101960E948805082E000C990BC3
:101510000E94CF040E94B7038091E602882399F0CD
:101520001092E6028091E7029091E80285309105E1
:1015300008F0C5C0815E9D4FFC018081082E000C23
:10154000990B0E94CF0485E492E00E944A04892B03
:1015500009F4E3C085E492E00E942804282F082EB5
:10156000000C330B96E0359527959A95E1F723709B
:10157000213009F4AFC0223009F4AFC02111E3CF0C
:101580008370823009F4A0C0833009F4A0C0813098
:1015900009F497C01A821982CE0101960E946A014D
:1015A000D2CF843009F43FC0853009F035CE109297
:1015B00020011092210190912101986090932101C6
:1015C0009091210191609093210126CE109280008C
:1015D0001092810090918100986090938100909189
:1015E000810091609093810017CE1092B00010920C
:1015F000B1009091B00092609093B0009091B100D2
:1016000091609093B10008CE1092900010929100DA
:1016100090919100986090939100909191009160C9
:1016200090939100F9CD1092A0001092A10090919A
:10163000A10098609093A1009091A1009160909377
:10164000A100EACD813049F480918100887F90919A
:101650000E03892B8093810032CE833049F4809130
:101660009100887F90910E03892B8093910027CE63
:10167000843049F48091A100887F90910E03892BDA
:101680008093A1001CCE853009F019CE80912101F4
:10169000887F90910E03892B8093210110CE4617ED
:1016A00057070CF078CE82E090E0121613060CF08B
:1016B0007ACE83E090E077CE84E090E074CE80E450
:1016C0003DCFFA82E98268CFBA82A98265CFDA82F9
:1016D000C98262CF0E94AC0136CF87708230B9F0E8
:1016E0004CF4882371F0813079F0CE0101960E948C
:1016F000870129CF833071F08430B9F79A828982CB
:10170000F4CF1A821982F1CFFA82E982EECFBA823F
:10171000A982EBCFDA82C982E8CF0E94B7030E9488
:10172000F404E4CDA1E21A2EAA1BBB1BFD010DC0DF
:10173000AA1FBB1FEE1FFF1FA217B307E407F50781
:1017400020F0A21BB30BE40BF50B661F771F881F5D
:10175000991F1A9469F760957095809590959B01F3
:10176000AC01BD01CF010895EE0FFF1F881F8BBF95
:0C1770000790F691E02D1994F894FFCF3B
:10177C000102031F00200021002200230024002569
:10178C000026002700280002000300040005004189
:10179C0042434440000000008204EC031904D404CA
:0617AC004A0428043C047D
:00000001FF
