:100000000C9437010C9468010C9468010C946801FD
:100010000C9468010C9468010C9468010C946801BC
:100020000C9468010C9468010C9468010C946801AC
:100030000C9468010C9468010C9468010C9468019C
:100040000C9468010C9468010C9468010C9468018C
:100050000C9468010C9468010C9468010C94990547
:100060000C9468010C940D060C94E3050C94680143
:100070000C9468010C9468010C9468010C9468015C
:100080000C9443060C9468010C9468010C9468016C
:100090000C9468010C9468010C9468010C9468013C
:1000A0000C9468010C9468010C9468010C9468012C
:1000B0000C9468010C9468010C9468010C9468011C
:1000C0000C9468010C9468010C9468010C9468010C
:1000D0000C9468010C9468010C9468010C946801FC
:1000E0000C9468010C9482040C94B0020C946E077A
:1000F0000C94C5020C944A040C94E5020C94DD02A5
:100100000C94AA020C9428040C94BF020C94E102F3
:100110000C94CF020C94BC020C94D4040C941904DB
:100120000C94D7020C94D3020C94EB020C94EC03C5
:100130000C94B4020C94B8020C94C9020C942505DA
:100140000C94EF020C943C040C94EA020000210091
:10015000240027002A002D00300033000101000098
:10016000040107010A0100002200250028002B00DD
:100170002E003100340002010000050108010B01CE
:10018000000020002300260029002C002F00320050
:100190000001000003010601090105050505070529
:1001A00008080808020202020A0A080804040404F3
:1001B000010101010101010103030303030303031F
:1001C000040707070C0C0C0C0C0C0C0C02020202AE
:1001D00006060606060606060B0B0B0B0B0B0B0B97
:1001E0000102102020080810204010204080020149
:1001F000020108040201010204081020408080402E
:10020000201008040201800402018040201008042C
:1002100002010804020101020408102040800102CA
:1002200004081020408000000A0B02090C0D0E0883
:1002300007030401000000000000000000000000AF
:1002400000000000000000000000000000000000AE
:10025000000012111000000000000000000000006B
:100260000000000000000000000000006E071124E4
:100270001FBECFEFD1E2DEBFCDBF00E00CBF12E06A
:10028000A0E0B2E0E6E8F6E100E00BBF02C00790B4
:100290000D92A233B107D9F723E0A2E3B2E001C087
:1002A0001D92A931B207E1F711E0C7E3D1E000E008
:1002B00006C021970109802FFE010E94390BC63329
:1002C000D10780E00807A9F70E94E5070C94410BCD
:1002D0000C940000FC01208131814FB7F89480918B
:1002E0003D0290913E02A0913F02B09140024FBF6B
:1002F00046E0429FF001439FF00D1124E252FD4F72
:1003000081839283A383B48381E0858308951092CF
:10031000FD021092FE021092FF0210920003FC01F7
:10032000808191818130910559F030F082309105C2
:1003300059F0039769F0089581E08093FD020895D4
:1003400081E080930003089581E08093FE02089588
:1003500081E08093FF0208952FB7F89480913D02C9
:1003600090913E02A0913F02B09140022FBFE8EF72
:10037000F2E080839183A283B38381E08483089534
:100380008091090390910A03A0910B03B0910C0393
:1003900020910203233009F47DC0ACF42130C9F16F
:1003A000223009F457C08091090390910A03A0916B
:1003B0000B03B0910C03892B8A2B8B2B19F481E052
:1003C000809301030895243009F485C0253059F73E
:1003D000AC01BD01009721E0A207B10520F04FEF6D
:1003E0005FEF60E070E05093290140932801841B87
:1003F000950BA60BB70B8093090390930A03A09368
:100400000B03B0930C0380917300826080937300A0
:10041000CACFAC01BD01009721E0A207B10520F0D1
:100420004FEF5FEF60E070E05093890040938800E9
:10043000841B950BA60BB70B8093090390930A03BB
:10044000A0930B03B0930C0380916F0082608093A4
:100450006F00A9CFAC01BD018F3F9105A105B1058A
:1004600029F020F04FEF50E060E070E04093B300DF
:10047000841B950BA60BB70B8093090390930A037B
:10048000A0930B03B0930C03809170008260809363
:10049000700089CFAC01BD01009721E0A207B10532
:1004A00020F04FEF5FEF60E070E0509399004093D1
:1004B0009800841B950BA60BB70B809309039093B0
:1004C0000A03A0930B03B0930C0380917100826028
:1004D0008093710068CFAC01BD01009721E0A207B5
:1004E000B10520F04FEF5FEF60E070E05093A9009E
:1004F0004093A800841B950BA60BB70B80930903B0
:1005000090930A03A0930B03B0930C0380917200A5
:1005100082608093720047CF8150823108F05AC0C8
:10052000E82FF0E08827E856FD4F8F4F0C94390BE9
:10053000B802BC02AA02B002B402EA02BF02C502BB
:10054000C902CF02D302D702DD02E102EA02E502CC
:10055000EB02EF02809180008F77809380000895F6
:10056000809180008F7DF9CF80918000877FF5CFCB
:1005700084B58F7784BD089584B58F7DFBCF80913E
:10058000B0008F778093B00008958091B0008F7D88
:10059000F9CF809190008F7780939000089580919B
:1005A00090008F7DF9CF80919000877FF5CF80916B
:1005B000A0008F778093A00008958091A0008F7D88
:1005C000F9CF8091A000877FF5CF809120018F77B0
:1005D000809320010895809120018F7DF9CF809133
:1005E0002001877FF5CFCF93DF93282F30E0F901EB
:1005F000EA5DFD4F8491F901E052FE4FD491F9017B
:10060000E656FE4FC491CC23A1F081110E948C02CA
:10061000EC2FF0E0EE0FFF1FE058FE4FA591B491D4
:10062000EC91ED2381E090E009F480E0DF91CF913F
:10063000089580E090E0FACF1F93CF93DF93282FA7
:1006400030E0F901EA5DFD4F8491F901E052FE4F7F
:10065000D491F901E656FE4FC491CC23A9F0162F90
:1006600081110E948C02EC2FF0E0EE0FFF1FEA597F
:10067000FE4FA591B4918FB7F894EC91111108C079
:10068000D095DE23DC938FBFDF91CF911F9108952A
:10069000DE2BF8CFCF93DF9390E0FC01E052FE4FCA
:1006A000249186569E4FFC0184918823D1F090E0DE
:1006B000880F991FFC01E45BFE4FA591B491FC01EA
:1006C000EA59FE4FC591D49161110EC09FB7F894BD
:1006D0008C91E22FE0958E238C932881E223E8838E
:1006E0009FBFDF91CF9108958FB7F894EC91E22BE3
:1006F000EC938FBFF6CF90917B00977F90937B0018
:100700008653806480937C0080917A00806480931B
:100710007A0080917A0086FDFCCF809178009091DC
:10072000790008953FB7F8948091390290913A0288
:10073000A0913B02B0913C0226B5A89B05C02F3F7B
:1007400019F00196A11DB11D3FBFBA2FA92F982FF7
:100750008827BC01CD01620F711D811D911D42E0F2
:10076000660F771F881F991F4A95D1F708958F92BA
:100770009F92AF92BF92CF92DF92EF92FF920E9430
:1007800092034B015C018AE0C82ED12CE12CF12CA4
:100790000E949203681979098A099B09683E73408F
:1007A00081059105A8F321E0C21AD108E108F108FA
:1007B00088EE880E83E0981EA11CB11CC114D104E0
:1007C000E104F10429F7FF90EF90DF90CF90BF9004
:1007D000AF909F908F900895AF92BF92CF92DF928B
:1007E000EF92FF920F931F93CF93DF936C017B01E6
:1007F0008B01040F151FEB015E01AE18BF08C01777
:10080000D10759F06991D601ED91FC910190F081E9
:10081000E02DC6011995892B79F7C501DF91CF919C
:100820001F910F91FF90EF90DF90CF90BF90AF900E
:100830000895FC01538D448D252F30E0842F90E0E6
:10084000821B930B541710F0CF96089501970895CB
:10085000FC01918D828D981761F0A28DAE0FBF2F94
:10086000B11D5D968C91928D9F5F9F73928F90E0EA
:1008700008958FEF9FEF0895FC01918D828D981759
:1008800031F0828DE80FF11D858D90E008958FEF96
:100890009FEF0895FC01918D228D892F90E0805C5F
:1008A0009F4F821B91098F739927089581E492E0ED
:1008B0000E944A0421E0892B09F420E0822F089548
:1008C000FC01A48DA80FB92FB11DA35ABF4F2C91C5
:1008D000848D90E001968F739927848FA689B789BC
:1008E0002C93A089B1898C91837080648C93938DB3
:1008F000848D981306C00288F389E02D80818F7D56
:1009000080830895EF92FF920F931F93CF93DF930D
:10091000EC0181E0888F9B8D8C8D98131AC0E8893B
:10092000F989808185FF15C09FB7F894EE89FF890A
:100930006083E889F98980818370806480839FBFA8
:1009400081E090E0DF91CF911F910F91FF90EF90A8
:100950000895F62E0B8D10E00F5F1F4F0F731127B8
:10096000E02E8C8D8E110CC00FB607FCFACFE889F3
:10097000F989808185FFF5CFCE010E946004F1CF17
:10098000EB8DEC0FFD2FF11DE35AFF4FF0829FB767
:10099000F8940B8FEA89FB8980818062CFCF682F22
:1009A00081E492E00C948204CF93DF93EC01888D74
:1009B0008823B9F0AA89BB89E889F9898C9185FDDA
:1009C00003C0808186FD0DC00FB607FCF7CF8C9168
:1009D00085FFF2CF808185FFEDCFCE010E946004BC
:1009E000E9CFDF91CF91089580E090E0892B29F045
:1009F0000E94560481110E94000080E090E0892B43
:100A000049F080E090E0892B29F00E9400008111DC
:100A10000E94000080E090E0892B49F080E090E0A7
:100A2000892B29F00E94000081110E94000080E0C3
:100A300090E0892B49F080E090E0892B29F00E941A
:100A4000000081110C9400000895EF92FF920F9323
:100A50001F93CF93DF938091F6029091F702009756
:100A600009F049C060E085E00E941C032091F60275
:100A70003091F70203E012E0D0E0C0E046E0429F90
:100A8000C001439F900D11249C0122523D4F7901DA
:100A9000F80180810E5F1F4FF7012081022E000CAC
:100AA000330B61E02C173D0709F060E00E941C0346
:100AB0002196CA30D10561F7E091F602F091F70274
:100AC000EE0FFF1FE95EFD4F61E080810E941C0375
:100AD0008091F6029091F7020196843091059CF482
:100AE0009093F7028093F602DF91CF911F910F91BF
:100AF000FF90EF900895880F991FFC01EB5EFD4F6A
:100B000060E08081B1CF1092F7021092F602ECCF34
:100B1000FC01208131812150310980E023303105F1
:100B200020F420503E4FD9018C9192819111846024
:100B300008951F920F920FB60F9211242F933F9397
:100B40008F939F93AF93BF9380913D0290913E020C
:100B5000A0913F02B09140023091380223E0230F70
:100B60002D3758F50196A11DB11D209338028093B1
:100B70003D0290933E02A0933F02B09340028091C9
:100B8000390290913A02A0913B02B0913C02019649
:100B9000A11DB11D8093390290933A02A0933B02AC
:100BA000B0933C02BF91AF919F918F913F912F9154
:100BB0000F900FBE0F901F90189526E8230F0296F6
:100BC000A11DB11DD2CF1F920F920FB60F9211240B
:100BD0000BB60F922F933F934F935F936F937F9337
:100BE0008F939F93AF93BF93EF93FF9381E492E032
:100BF0000E946004FF91EF91BF91AF919F918F91FF
:100C00007F916F915F914F913F912F910F900BBE0C
:100C10000F900FBE0F901F9018951F920F920FB656
:100C20000F9211240BB60F922F938F939F93EF93F4
:100C3000FF93E0915102F09152028081E0915702BE
:100C4000F091580282FD1DC0908180915A028F5F01
:100C50008F7320915B02821741F0E0915A02F0E01D
:100C6000EF5BFD4F958F80935A02FF91EF919F911B
:100C70008F912F910F900BBE0F900FBE0F901F9072
:100C800018958081F2CF1F920F920FB60F92112408
:100C90000BB60F92CF92DF92EF92FF922F933F937A
:100CA0004F935F936F937F938F939F93AF93BF9374
:100CB000EF93FF93C0900D03D0900E03E0900F03CD
:100CC000F090100380910203833009F04DC0C114ED
:100CD000D104E104F10409F4D5C080910103882313
:100CE00009F45BC0E0911503F0911603309741F0D1
:100CF0008091170390911803009709F44CC019953F
:100D00008091050390910603A0910703B091080319
:100D10000097A140B105B4F0F8948091050390913B
:100D20000603A0910703B0910803809309039093F1
:100D30000A03A0930B03B0930C030E94C00110920E
:100D4000010378941C141D041E041F046CF481E03C
:100D5000C81AD108E108F108C0920D03D0920E0321
:100D6000E0920F03F0921003FF91EF91BF91AF91CA
:100D70009F918F917F916F915F914F913F912F91B3
:100D8000FF90EF90DF90CF900F900BBE0F900FBEB3
:100D90000F901F9018951995B3CFF89420910203E6
:100DA0008091090390910A03A0910B03B0910C0369
:100DB000223009F447C08F3F9F4FA105B10510F4C1
:100DC0000E94C0018091090390910A03A0910B0336
:100DD000B0910C03AC01BD01009721E0A207B10561
:100DE00020F04FEF5FEF60E070E0841B950BA60BE7
:100DF000B70B8093090390930A03A0930B03B0935E
:100E00000C038091090390910A03A0910B03B09108
:100E10000C03892B8A2B8B2B91F5809105039091E4
:100E20000603A0910703B0910803809309039093F0
:100E30000A03A0930B03B0930C0381E0809301039A
:100E4000789492CF8F3F9105A105B10510F40E94CF
:100E5000C0018091090390910A03A0910B03B09106
:100E60000C03AC01BD018F3F9105A105B10509F04F
:100E700008F4BBCF4FEF50E060E070E0B6CF1092C7
:100E80000103DECFF894809102038330D9F054F44B
:100E9000813091F08230A1F6809170008D7F809337
:100EA0007000CECF8430A1F0853051F68091730070
:100EB0008D7F80937300C4CF80916F008D7F80936E
:100EC0006F00BECF809171008D7F80937100B8CF8D
:100ED000809172008D7F80937200B2CFE1E4F2E0E6
:100EE0001382128288EE93E0A0E0B0E084839583C1
:100EF000A683B78383E292E09183808385EC90E0C0
:100F00009587848784EC90E09787868780EC90E0D3
:100F1000918B808B81EC90E0938B828B82EC90E0C4
:100F2000958B848B86EC90E0978B868B118E128E3E
:100F3000138E148EE1E0F3E083E08183108A118A3E
:100F4000128A138A158A148A178A168A108281E0F7
:100F500090E0938382831482158216821782108612
:100F60001186128613868FEF9FEFDC0184879587A9
:100F7000A687B787EDEFF2E010821182128213820A
:100F8000E8EFF2E010821182128213821482EEEDF9
:100F9000F2E08BE080831182128213821482158228
:100FA000868317821086118612861386848715869B
:100FB00016861786108A118A828B138A148A158ADC
:100FC000168A178A118E108E0895CF93DF9300D062
:100FD000CDB7DEB7789484B5826084BD84B5816076
:100FE00084BD85B5826085BD85B5816085BD8091F4
:100FF0006E00816080936E0010928100809181006C
:101000008260809381008091810081608093810063
:10101000809180008160809380008091B100846025
:101020008093B1008091B00081608093B000809186
:101030009100826080939100809191008160809303
:101040009100809190008160809390008091A10038
:1010500082608093A1008091A10081608093A100B3
:101060008091A00081608093A00080912101826026
:1010700080932101809121018160809321018091E1
:10108000200181608093200180917A0084608093A8
:101090007A0080917A00826080937A0080917A0051
:1010A000816080937A0080917A00806880937A00D2
:1010B0001092C100E0915102F091520282E08083CF
:1010C000E0914D02F0914E021082E0914F02F091BA
:1010D00050028FEC808310925902E0915502F091FA
:1010E000560286E08083E0915302F09154028081A1
:1010F00080618083E0915302F09154028081886086
:101100008083E0915302F091540280818068808353
:10111000E0915302F091540280818F7D808360E0E2
:1011200085E10E944A0360E084E10E944A0360E096
:1011300083E10E944A0360E082E10E944A0361E089
:101140008BE00E944A0361E08AE00E944A0361E06A
:1011500089E00E944A0361E088E00E944A0361E05E
:1011600087E00E944A0361E08FE10E944A0361E048
:1011700080E20E944A0361E081E20E944A0361E04A
:1011800082E20E944A0361E083E20E944A0361E036
:1011900084E20E944A0361E085E20E944A0361E022
:1011A00086E20E944A0361E087E20E944A0361E00E
:1011B00088E20E944A0361E082E00E944A0361E003
:1011C00083E00E944A0361E084E00E944A0361E0F8
:1011D00085E00E944A0360E086E00E944A0360E0E6
:1011E00087E30E944A0360E086E30E944A038091FD
:1011F0000203F894833009F49EC10CF069C1813078
:1012000009F47BC1823009F487C18093020378948A
:101210008091020318160CF04EC08FEF9FEFDC0197
:1012200080930D0390930E03A0930F03B0931003CC
:101230008FE79BEBA0E0B0E080930503909306035B
:10124000A0930703B09308038093090390930A03C4
:10125000A0930B03B0930C0381E090E09093040300
:1012600080930303F8948BEA9AEAA6EAB3E48093A6
:10127000110390931203A0931303B093140385E218
:1012800095E0909316038093150310921803109223
:1012900017031092010380910203823009F069C1A3
:1012A0008091B100887F90910303892B8093B100D6
:1012B0000E94C001789424EF422E55245394612C4F
:1012C000712CEE24E394F12C42E0C42ED12C53E097
:1012D000A52EB12C64E0862E912C85E10E94F302AC
:1012E00021E0892B09F020E02093370284E10E945D
:1012F000F30221E0892B09F020E02093360283E1FC
:101300000E94F30221E0892B09F020E020933502AE
:1013100082E10E94F30221E0892B09F020E0209372
:10132000340286E00E94F30287E30E947B0386E397
:101330000E947B030EED12E02FB7F89460913D02FE
:1013400070913E0280913F02909140022FBFF801C0
:1013500025812223A1F02181328143815481621BA6
:10136000730B840B950B6938F3E17F0781059105B9
:1013700030F4A30192010E94170BF80120830A5F49
:101380001F4FF2E0063F1F07B9F62FB7F894809180
:101390003D0290913E02A0913F02B09140022FBFCA
:1013A0004091F8025091F9026091FA027091FB02AB
:1013B000841B950BA60BB70B883E9340A105B10586
:1013C00028F48091FC0261E0811101C060E087E0B7
:1013D0000E941C036091FD028BE00E941C0360913F
:1013E000FE028AE00E941C036091FF0289E00E94D5
:1013F0001C036091000388E00E941C038091370267
:10140000882359F01A8219821B82CE0101960E940C
:1014100088050E94CF040E94B7038091360288237A
:1014200059F0FA82E9821B82CE0101960E9488055A
:101430000E94CF040E94B70380913502882359F09F
:10144000DA82C9821B82CE0101960E9488050E9421
:10145000CF040E94B70380913402882359F0BA82E6
:10146000A9821B82CE0101960E9488050E94CF04AA
:101470000E94B70381E492E00E944A04892B09F498
:10148000D1C081E492E00E942804282F082E000C8D
:10149000330B96E0359527959A95E1F72370213027
:1014A00009F49DC0223009F49DC02111E3CF83705F
:1014B000823009F48EC0833009F48EC0813009F483
:1014C00085C01A821982CE0101960E946A01D2CF8C
:1014D000843009F43FC0853009F097CE1092200186
:1014E0001092210190912101986090932101909197
:1014F000210191609093210188CE1092800010927A
:10150000810090918100986090938100909181007A
:1015100091609093810079CE1092B0001092B1004A
:101520009091B00092609093B0009091B100916062
:101530009093B1006ACE1092900010929100909119
:101540009100986090939100909191009160909398
:1015500091005BCE1092A0001092A1009091A1008A
:1015600098609093A1009091A10091609093A10048
:101570004CCE813049F480918100887F90910303A3
:10158000892B8093810094CE833049F4809191001F
:10159000887F90910303892B8093910089CE8430BA
:1015A00049F48091A100887F90910303892B809357
:1015B000A1007ECE853009F07BCE80912101887F0D
:1015C00090910303892B8093210172CEFA82E982E4
:1015D0007ACFDA82C98277CFBA82A98274CF0E9489
:1015E000AC0148CF87708230B9F04CF4882371F099
:1015F000813079F0CE0101960E9487013BCF833084
:1016000071F08430B9F79A828982F4CF1A821982F4
:10161000F1CFFA82E982EECFDA82C982EBCFBA82C9
:10162000A982E8CF0E94B7030E94F40456CEA1E23B
:101630001A2EAA1BBB1BFD010DC0AA1FBB1FEE1F4C
:10164000FF1FA217B307E407F50720F0A21BB30B97
:10165000E40BF50B661F771F881F991F1A9469F713
:1016600060957095809590959B01AC01BD01CF016F
:101670000895EE0FFF1F881F8BBF0790F691E02D96
:061680001994F894FFCF5D
:101686000102031F00200021002200230024002560
:1016960000260027002800020003000400050000C1
:1016A6000000008204EC031904D4044A0428043C14
:0216B60004002E
:00000001FF
