:100000000C9459010C948A010C948A010C948A0175
:100010000C948A010C948A010C948A010C948A0134
:100020000C948A010C948A010C948A010C948A0124
:100030000C948A010C948A010C948A010C948A0114
:100040000C948A010C948A010C948A010C948A0104
:100050000C948A010C948A010C948A010C94890DE9
:100060000C948A010C94FD0D0C94D30D0C948A0110
:100070000C948A010C948A010C948A010C948A01D4
:100080000C948A010C948A010C948A010C948A01C4
:100090000C948A010C948A010C948A010C948A01B4
:1000A0000C948A010C948A010C948A010C948A01A4
:1000B0000C948A010C948A010C948A010C948A0194
:1000C0000C948A010C948A010C948A010C948A0184
:1000D0000C948A010C948A010C948A010C948A0174
:1000E0000C948A010C94CB020C94DD010C94A802B0
:1000F0000C94EA010C94B7020C94B0010C94EF013B
:100100000C9411030C94BF010C94D7010C94C501FD
:100110000C94C9010C94B8010C94E1010C94CA1020
:100120000C94D3010C94AA010C947B020C94D90278
:100130000C94B4010C945E030C94BC010C94E50186
:100140000C94EB010C94CF010000803FCDCCCC3D52
:100150006F12833A95BFD6337D1D9026B3CE010C26
:1001600000002100240027002A002D003000330069
:1001700001010000040107010A010000220025001E
:1001800028002B002E003100340002010000050180
:1001900008010B01000020002300260029002C008C
:1001A0002F003200000100000301060109010505CE
:1001B0000505070508080808020202020A0A0808DD
:1001C000040404040101010101010101030303030B
:1001D00003030303040707070C0C0C0C0C0C0C0C9A
:1001E0000202020206060606060606060B0B0B0BAB
:1001F0000B0B0B0B010210202008081020401020D0
:1002000040800201020108040201010204081020DA
:1002100040808040201008040201800402018040D8
:100220002010080402010804020101020408102041
:100230004080010204081020408000000A0B0209DF
:100240000C0D0E0807030401000000000000000070
:10025000000000000000000000000000000000009E
:10026000000000000000121110000000000000005B
:10027000000000000000000000000000000000007E
:10028000000020410000C84200401C4620BCBE4C7B
:10029000CA1B0E5AAEC59D74CDCCCC3D0AD7233CAB
:1002A00017B7D13877CC2B329595E6241FB14F0A7A
:1002B000CA1011241FBECFEFD1E2DEBFCDBF00E0D8
:1002C0000CBF23E0AAEBB2E001C01D92A139B20736
:1002D000E1F712E0A0E0B2E0E6E6F6E200E00BBFF4
:1002E00002C007900D92AA3BB107D9F711E0C9E50A
:1002F000D1E000E006C021970109802FFE010E9495
:100300007F12C835D10780E00807A9F70E94330E95
:100310000C9431130C9400008150823108F05AC0C3
:10032000E82FF0E08827E856FE4F8F4F0C947F129D
:10033000B801BC01AA01B001B401EA01BF01C501C5
:10034000C901CF01D301D701DD01E101EA01E501D6
:10035000EB01EF01809180008F77809380000895FA
:10036000809180008F7DF9CF80918000877FF5CFCD
:1003700084B58F7784BD089584B58F7DFBCF809140
:10038000B0008F778093B00008958091B0008F7D8A
:10039000F9CF809190008F7780939000089580919D
:1003A00090008F7DF9CF80919000877FF5CF80916D
:1003B000A0008F778093A00008958091A0008F7D8A
:1003C000F9CF8091A000877FF5CF809120018F77B2
:1003D000809320010895809120018F7DF9CF809135
:1003E0002001877FF5CFCF93DF93282F30E0F901ED
:1003F000E65CFD4F8491F901EC50FE4FD491F90178
:10040000E255FE4FC491CC23A1F081110E948C01D2
:10041000EC2FF0E0EE0FFF1FEC56FE4FA591B491CC
:10042000EC91ED2381E090E009F480E0DF91CF9141
:10043000089580E090E0FACF1F93CF93DF93282FA9
:1004400030E0F901E65CFD4F8491F901EC50FE4F7C
:10045000D491F901E255FE4FC491CC23A9F0162F97
:1004600081110E948C01EC2FF0E0EE0FFF1FE65887
:10047000FE4FA591B4918FB7F894EC91111108C07B
:10048000D095DE23DC938FBFDF91CF911F9108952C
:10049000DE2BF8CFCF93DF9390E0FC01EC50FE4FC2
:1004A000249182559E4FFC0184918823D1F090E0E5
:1004B000880F991FFC01E05AFE4FA591B491FC01F1
:1004C000E658FE4FC591D49161110EC09FB7F894C4
:1004D0008C91E22FE0958E238C932881E223E88390
:1004E0009FBFDF91CF9108958FB7F894EC91E22BE5
:1004F000EC938FBFF6CFAF92BF92CF92DF92EF9285
:10050000FF920F931F93CF93DF936C017B018B01BD
:10051000040F151FEB015E01AE18BF08C017D1070D
:1005200059F06991D601ED91FC910190F081E02D97
:10053000C6011995892B79F7C501DF91CF911F91DC
:100540000F91FF90EF90DF90CF90BF90AF90089504
:10055000FC01538D448D252F30E0842F90E0821BC9
:10056000930B541710F0CF96089501970895FC014E
:10057000918D828D981761F0A28DAE0FBF2FB11DA6
:100580005D968C91928D9F5F9F73928F90E00895FE
:100590008FEF9FEF0895FC01918D828D981731F0B8
:1005A000828DE80FF11D858D90E008958FEF9FEF0C
:1005B0000895FC01918D228D892F90E0805C9F4FE2
:1005C000821B91098F739927089584EF92E00E940E
:1005D000D90221E0892B09F420E0822F0895FC0143
:1005E000A48DA80FB92FB11DA35ABF4F2C91848D94
:1005F00090E001968F739927848FA689B7892C93F1
:10060000A089B1898C91837080648C93938D848D43
:10061000981306C00288F389E02D80818F7D808346
:100620000895EF92FF920F931F93CF93DF93EC0106
:1006300081E0888F9B8D8C8D98131AC0E889F98989
:10064000808185FF15C09FB7F894EE89FF8960838C
:10065000E889F98980818370806480839FBF81E00D
:1006600090E0DF91CF911F910F91FF90EF9008954F
:10067000F62E0B8D10E00F5F1F4F0F731127E02E2A
:100680008C8D8E110CC00FB607FCFACFE889F98962
:10069000808185FFF5CFCE010E94EF02F1CFEB8D77
:1006A000EC0FFD2FF11DE35AFF4FF0829FB7F89436
:1006B0000B8FEA89FB8980818062CFCFCF93DF9354
:1006C000EC01888D8823B9F0AA89BB89E889F9896A
:1006D0008C9185FD03C0808186FD0DC00FB607FC9F
:1006E000F7CF8C9185FFF2CF808185FFEDCFCE01D2
:1006F0000E94EF02E9CFDF91CF91089581E08093CE
:10070000EA0208950E94E502882319F081E08093AF
:10071000EA0280E090E0892B49F080E090E0892BAC
:1007200029F00E94000081110E94000080E090E00A
:10073000892B49F080E090E0892B29F00E9400008D
:1007400081110E94000080E090E0892B49F080E058
:1007500090E0892B29F00E94000081110C94000088
:100760000895CF93DF93EC0188819981DC01ED91AD
:10077000FC910190F081E02D19952A813B81820F37
:10078000931F9B838A83DF91CF910895CF93DF934B
:10079000EC0188819981DC01ED91FC910280F3816B
:1007A000E02D19952A813B81820F931F9B838A83B9
:1007B000DF91CF9108958F929F92AF92BF92CF9287
:1007C000DF92EF92FF920F931F93CF93DF93CDB7FA
:1007D000DEB766970FB6F894DEBF0FBECDBF6C01D3
:1007E0008E01095E1F4F78018AE0882E912CA12C82
:1007F000B12CCB01BA01A50194010E945D12942F86
:10080000852F605DF80162938F01A901692F782F10
:10081000411551056105710561F7A7014E1B5F0B7D
:10082000BF01C6010E94C60366960FB6F894DEBFEC
:100830000FBECDBFDF91CF911F910F91FF90EF9031
:10084000DF90CF90BF90AF909F908F9008958033AE
:100850009CF08A3324F08F3524F08B3724F481E028
:10086000089581344CF08B35D4F393ED980F81E0EB
:100870009230B0F380E008958B32B9F7F0CF0F9348
:100880001F93CF93DF93EC018C85811140C00985C4
:100890001A852FB7F8948091F0029091F102A091FF
:1008A000F202B091F3022FBFF80180879187A287EF
:1008B000B387D801ED91FC910284F385E02DC80146
:1008C000199597FF2AC02FB7F8948091F002909164
:1008D000F102A091F202B091F3022FBFF80140851E
:1008E000518562857385841B950BA60BB70B4481DC
:1008F00055816681778184179507A607B707C8F2E7
:100900008FEF9FEF97FD80E08B8781E08C878B8551
:10091000DF91CF911F910F9108959927F3CF1F93E6
:10092000CF93DF93EC01162F0E943F04811306C082
:100930001C8681E0DF91CF911F91089580E0FACF6E
:10094000CF93DF93EC01CE010E943F048B303CF447
:1009500089304CF4882349F081E0888710C08D30BD
:1009600011F08032C9F71C86EECF888581110AC04C
:1009700081E090E0C15BDF4F9983888380E0DF9165
:10098000CF91089582E090E0F5CF08950895FC019D
:1009900024813581A9014F5F5F4F86819781481778
:1009A000590748F48281938155834483FC01E20F07
:1009B000F31F608308950190F081E02D81E080872E
:1009C00008959F92AF92BF92CF92DF92EF92FF92E3
:1009D0000F931F93CF93DF9300D01F921F92CDB739
:1009E000DEB78C010E943F04D82ED8011C961C92C1
:1009F000F12CE12C60EFC62EC8010E943F04F801E3
:100A00001486D81609F4BDC0811119C0F801E15B44
:100A1000FF4F82E090E09183808380E00F900F9001
:100A20000F900F900F90DF91CF911F910F91FF903A
:100A3000EF90DF90CF90BF90AF909F9008958C354E
:100A400009F09DC0C8010E943F048823F9F2E2E347
:100A5000F2E0853709F087C0D8011C961C9254E05B
:100A6000952EB12CA12CC8010E943F04882371F25D
:100A700081344CF48053803148F0F801E15BFF4F42
:100A800083E090E0C8CF8F7D8753F5CF44E0AA0C78
:100A9000BB1C4A95E1F7A82AF80114869A94911094
:100AA000E2CFC501985D8115944020F4750123E0E3
:100AB000F222A2CFC5019C5D81159440A8F4B3E059
:100AC000BB22B701762F6627770F770F6A297B291C
:100AD00090E080E00196603871058105910540F451
:100AE000C8010E94C70488CFB50190E080E0F3CF31
:100AF0001982262F2F7320682A8326E096958795E2
:100B0000779567952A95D1F76032710580F4606C0E
:100B10006B835E01E4E0AE0EB11CD5016E915D0108
:100B2000662309F469CFC8010E94C704F6CF262FB7
:100B30002F7320682B8386E0769567958A95E1F779
:100B40006031710538F4606E6C835E01F5E0AF0EC4
:100B5000B11CE3CF60686C83CD825E0126E0A20EFB
:100B6000B11CDBCF32969081992309F486CF89138B
:100B7000F9CF8181882309F480CFF8011486682F8A
:100B8000AFCF0190F081E02D8085882331F0F8010E
:100B9000E15BFF4F84E090E03ECF81E03FCFCF9319
:100BA000DF93DC01EB01EC81FD818A819B8108965A
:100BB000E817F90740F481E08887F0E0E0E0CF0132
:100BC000DF91CF9108953897FD83EC833097B9F387
:100BD0001296CD91DC911397209791F0CF018C1B49
:100BE0009D0B23E0959587952A95E1F78D831396C4
:100BF000FC93EE9312971582148217821682DFCF30
:100C00001196FC93EE93F3CFEF92FF920F931F9305
:100C1000CF93DF937C01DC0112962D913C911397C9
:100C2000ED91FC91AB01420F531FEF01C60FD71F8F
:100C3000C217D307A0F4888181110BC0E901CF014D
:100C40004C175D0751F00991DC011D91CD01011791
:100C5000B9F381918111FDCFE8CF309751F4620F44
:100C6000731FCB010196F70193838283DB011C92F2
:100C7000F901CF01DF91CF911F910F91FF90EF907C
:100C80000895FC012581222339F0F8E02F0290011C
:100C90001124820F931F089590E080E00895FC01D5
:100CA00001900020E9F73197AF01481B590BBC01B7
:100CB00084EF92E00C947B02FB0101900020E9F7A5
:100CC0003197AF01461B570B0C94C6031F93CF936C
:100CD000DF93E2E3F2E01281112379F03296218171
:100CE0006213F9CFEC016CE50E94B103612FCE01D4
:100CF000DF91CF911F910C94B1036111F9CF63E49F
:100D000072E0DF91CF911F910C945C062F923F927D
:100D10004F925F926F927F928F929F92AF92BF920B
:100D2000CF92DF92EF92FF920F931F93CF93DF93B7
:100D3000CDB7DEB76C970FB6F894DEBF0FBECDBF50
:100D40008C011B01DC0114968C9114978F778630EF
:100D500009F492C268F58230A0F11296ED90FC90F1
:100D60001397CC901196DC90843008F056C2A701FE
:100D7000B601C1010E94C603F101828193816C9684
:100D80000FB6F894DEBF0FBECDBFDF91CF911F919C
:100D90000F91FF90EF90DF90CF90BF90AF909F901A
:100DA0008F907F906F905F904F903F902F9008951D
:100DB0008C3069F160F4883009F459C28A3009F442
:100DC0003FC26AE472E0C1010E945C06E5C1803264
:100DD00009F4ECC18034A9F76BE5C1010E94B103AD
:100DE000F801008111810115110509F4DAC1B10181
:100DF000C8010E948606C8010E9441068C01892B09
:100E000009F4CFC16CE2C1010E94B103ECCFF8013B
:100E1000C080D180E280F380A7019601C701B601AE
:100E20000E94F7108111CDCF20E030E0A901C70169
:100E3000B6010E94F710882379F0A7019601C70137
:100E4000B6010E9488129B01AC01C701B6010E9445
:100E5000F710882309F4B5CF20E030E0A901C701DD
:100E6000B6010E94F71087FF08C06DE2C1010E9421
:100E7000B103F7FAF094F7F8F09420E836E948E186
:100E80005BE4C701B6010E94231387FD81C074E1B2
:100E9000A72EB12C00E210E0188E1F8AF501E05851
:100EA000FD4F2591359145915491C701B6010E949E
:100EB000231387FD13C0F501E856FD4F25913591A9
:100EC00045915491C701B6010E945D116B017C01EF
:100ED0002F89388D200F311F388F2F8B159507954F
:100EE00034E0A31AB1088CEFA8168FEFB806B1F65C
:100EF00055245A9420E030E0A901C701B6010E94B0
:100F0000231318160CF04BC02CEA35EC47E257E3DC
:100F1000C701B6010E94F71018160CF440C0A52DA9
:100F2000B4E0AB02C0011124B12CA12CFC01E85BA0
:100F3000FE4F3F019C0120583D4F49013FEF5316A2
:100F400071F1F301EA0DFB1D259135914591549105
:100F5000C701B6010E94F71087FF13C0F401EA0D24
:100F6000FB1D2591359145915491C701B6010E9411
:100F70005D116B017C018F89988D801B910B988F7F
:100F80008F8B159507955A9494E0A91AB108D6CF7E
:100F900000E210E055E0552E188E1F8AABCFC70136
:100FA000B6010E94F4124B015C012B013C0106E0EA
:100FB00080E492E4AFE0B0E0898F9A8FAB8FBC8F72
:100FC000102F01509AE04916510461047104C8F0D1
:100FD000698D7A8D8B8D9C8D2AE030E040E050E069
:100FE0000E945D12298F3A8F4B8F5C8FC301B20133
:100FF0002AE030E040E050E00E945D1229013A0111
:10100000DFCFC501B4010E94FC109B01AC01C701F8
:10101000B6010E9487126B017C01698D7A8D8B8DE0
:101020009C8D0E94FC109B01AC01C701B6010E947F
:101030005D112B013C010E94F4126B017C010E94A6
:10104000FC109B01AC01C301B2010E9487129B01FD
:10105000AC010E9488120E94F412C60ED71EE81E30
:10106000F91E898D9A8DAB8DBC8DC816D906EA06FE
:10107000FB06D8F09FEF891A990AA90AB90AAF8925
:10108000B88DAB2B39F1BAE08B169104A104B104F1
:1010900008F1EF89F88D3196F88FEF8BC12CD12CA8
:1010A0007601812C912C540183942AE0422E512CFC
:1010B000612C712CC701B601A30192010E945D123F
:1010C000672B682B692B51F4111644F469017A01DE
:1010D0001150F0CFC12CD12C7601E7CFB501A4017E
:1010E000C1010E94DB03112371F14E01F1E18F0E6A
:1010F000911C012F54019AE0492E512C612C712C26
:10110000015068F0C701B601A30192010E945D126F
:10111000605DD4016E934D0169017A01F1CF812F99
:1011200090E0BC0160957095F501E81BF90B3197D3
:101130008EE2808344275527461B570B6A0D7B1D83
:10114000C1010E94C603EF89F88DEF2B29F165E6F6
:10115000C1010E94B1030F89188D17FF07C06DE20E
:10116000C1010E94B103119501951109FE01779605
:101170009F018AE0E82EF12CC801B7010E943512C8
:10118000805D82938B01672BB9F7A9014E1B5F0B22
:10119000BF01C1010E94C603D10112968D919C919D
:1011A000EECD6DE5C1010E94B103F6CF6BE7C10141
:1011B0000E94B103F801008111810115110559F157
:1011C000D8011696CC9016971796DC9062E2C10172
:1011D0000E94B1037601F70161917F01662321F03E
:1011E000C1010E946606F7CF62E2C1010E94B1030D
:1011F0006AE3C1010E94B103B101C8010E948606E1
:10120000C8010E9441068C01892B29F06CE2C101C2
:101210000E94B103D2CF6DE7C5CF62E2C1010E9447
:10122000B1038601E00EF11EE016F10639F0F80177
:1012300061918F01C1010E946606F6CF62E2B2CFD2
:10124000CD90DD90ED90FC90B701A601F7FE0BC0AC
:101250006DE2C1010E94B10344275527BA014C1920
:101260005D096E097F09C1010E94DB0385CD4D91A7
:101270005D916D917C91F7CF8C916FE472E081115B
:1012800002C064E572E0C1010E945C0675CD0F9357
:101290001F93CF93DF93D0E0C0E06115710591F00B
:1012A0008B01FC01C081D181209761F06E817F812B
:1012B000C8010E942813892B29F0CE010E94410603
:1012C000EC01F2CFCE01DF91CF911F910F910895E4
:1012D0004F925F926F927F92BF92CF92DF92EF9286
:1012E000FF920F931F93CF93DF93EC018B01E42EBA
:1012F0000E94A004F82E811110C0F12C8F2DDF91D7
:10130000CF911F910F91FF90EF90DF90CF90BF9002
:101310007F906F905F904F900895CE010E943F04A0
:10132000873209F42BC10CF5823209F427C1CE01B2
:101330000E943F04B82E6E01FFE0CF0ED11CE12CBD
:1013400036018B2D0E942704882309F443C12FE323
:10135000E21609F43FC11C86E394F601B1926F01D5
:10136000CE010E943F04B82EECCF8B3509F44AC061
:101370008B37E9F6F801848180788062848311825A
:10138000108213821282EE2009F447C01C86CE011F
:101390000E94A004882309F4B0CF6DE7CE010E941B
:1013A0008F04D82E8111AACFCC24C394EA94E8816B
:1013B000F981828193819B838A83848195812281B3
:1013C0003381821B930B9F838E831D821C82892B0A
:1013D00009F4C086CE010E943F04873209F45DC043
:1013E000823209F45AC0CE010E943F04F82E0E94B6
:1013F0002704811159C0C15BDF4F83E090E09983DE
:10140000888350C0F801848180788064848311824D
:10141000108213821282E11007C0C15BDF4F85E0AA
:1014200090E09983888369CF1C86CE010E94A00436
:10143000882309F462CF6DE5CE010E948F048111EB
:101440005DCFEA946D857E85C8010E94CF05009727
:1014500029F4C15BDF4F84E090E0E3CF4E2DBC0167
:10146000CE010E946809882309F447CFCE010E946B
:10147000A004882309F441CF6DE5CE010E948F04BA
:1014800081113CCF6CE2CE010E948F048111DACF32
:10149000C15BDF4F83E090E0C4CFCE010E94E10446
:1014A000811119C0FD2C2ACF1C866F2DCE010E9400
:1014B000C704CE010E943F04F82E0E942704811128
:1014C000F3CFE881F9818085882329F0C15BDF4F64
:1014D00084E090E094CFCE010E94A004882311F311
:1014E0006AE3CE010E948F04882309F484CFEA8145
:1014F000FB818C819D81E80FF91F10826C807D80BB
:101500006A817B81C8010E944709BC01892BA1F433
:10151000B301888199810E9404063C016D857E8516
:10152000C8010E94CF05FC01892B81F2848180686B
:10153000848377826682BF014E2DCE010E946809A6
:10154000882309F4AFCFCE010E94A004882309F4B8
:10155000A9CF6DE7CE010E948F0481110DC06CE20E
:10156000CE010E948F04882309F445CFCE010E944A
:10157000A00481111CCF96CFD82E94CFE881F98199
:10158000828193819B838A838481958122813381A7
:10159000821B930B9F838E831D821C82892B11F4E7
:1015A00081E08087CE010E94E104F82E882309F4AF
:1015B000A4CECC80DD80B601888199810E9404068A
:1015C000F801248120782560248391838083D3824D
:1015D000C28294CEFE01EE0DF11D17868F858437F1
:1015E00081F4F801848180788660848381E080833F
:1015F000F4E0EF1609F482CEC15BDF4F82E090E0A9
:1016000010CF863641F4F801848180788660848327
:101610001082F5E0EECF8E3621F424E0E212ECCF1A
:101620006DCE8B32D9F1F3018D32D1F5FE0170967A
:10163000BF2C808190ED980F9A3018F08E3209F00F
:1016400027CF6F0160E070E0CB01F6012191A0EDA2
:101650004A2E420E39E0341528F16A3949E97407F7
:10166000840749E1940740F5AAE0B0E09B01AC0192
:101670000E941B12512C712C612CA3019201209508
:101680003095409550952617370748075907A0F021
:10169000640D751D861D971D6F01D7CFFE017096D5
:1016A000B12CC7CF211108C0BB2071F16130710589
:1016B000810550E89507A0F0E12CEAE04E2E512C70
:1016C000612C712C61157105F0E88F07910530F1DF
:1016D000A30192010E945D12CA01B901E394F2CF05
:1016E000F801248120782A6024839B01AC0188279B
:1016F0009927DC01821B930BA40BB50B808391838C
:10170000A283B383FB2CFACDF801248120782860D2
:1017100024836083718382839383F0CDD601F601A5
:1017200021916F0130ED320F3A3010F4E394F6CF8F
:101730002E32F1F4FD013196DF0131962C9150EDFE
:10174000D52ED20E29E02D1598F06C3C3CEC730799
:101750003CE08307910580F7AAE0B0E09B01AC0173
:101760000E941B126D0D711D811D911DEA94E4CF25
:101770002C912F7D253409F08CC011962C91119756
:101780002D32D9F512967F2CFD0130E020E0CE2CD1
:101790000E2C000CDD084AE0542EDF01619040ED74
:1017A000460D4A3008F043C0529EA001539E500D92
:1017B0001124262D660C330B20533109240F351FBD
:1017C000A601420F531F473251053CF3F8018481B3
:1017D0007720D1F040E050E060E070E8B11003C045
:1017E00040E050E0BA0180788C60F8018483408347
:1017F000518362837383F72C81CD2B3219F01196BC
:10180000712CC2CF1296FCCF40E050E060E87FEF31
:10181000B11004C040E050E060E87FE780788C6061
:10182000F8018483408351836283738367CD77207B
:1018300019F03195219531094C91411129CEE901D9
:10184000CE0DD11DE7FCDA950E94FC101C161D067A
:101850001CF5E12CC0FF0CC024E0E29EF001112435
:10186000E058FD4F25913591459154910E945D11AD
:10187000D595C795E394209769F7B1109058F80172
:10188000248120782C6024836083718382839383F6
:1018900035CD30E020E0D0CFD195C195D109E12CF4
:1018A000209759F3C0FF0CC044E0E49EF0011124DE
:1018B000E856FD4F25913591459154910E945D1157
:1018C000D595C795E394ECCF0F931F93CF93DF93F8
:1018D000CDB7DEB7C356D2400FB6F894DEBF0FBE09
:1018E000CDBFCE010F969A8389839C838B8383E03F
:1018F00092E08C0F9D1F9E838D8398878F8319861E
:101900001E8682509240C45ADD4F99838883CC55FD
:10191000D24028E0FE01E45AFD4FDE01AC5ABD4F33
:1019200001900D922A95E1F728E0FE01EC5AFD4F57
:10193000DE01AD5FBD4F01900D922A95E1F7C55FC5
:10194000DD4F1882CB50D24024EF32E0C45FDD4F30
:1019500039832883CC50D240C15FDD4F1882CF50ED
:10196000D240C05FDD4F99838883C051D240CE5AA8
:10197000DD4F19821882C255D2404AE0BE01665F2F
:101980007F4F8E5F9D4F0E946809CE5ADD4F0881C0
:101990001981C255D2400115110501F5C25FDD4F15
:1019A0008881CE50D2408823C9F08E8583FF16C02F
:1019B0001092EA0203E010E08AE592E00E944F06EE
:1019C000000F111FF801E050FE4F808191810097B8
:1019D00001F585E792E00E944F0608C01092EA02E6
:1019E0000115110549F78E8585FD0CC0CD59DD4FD8
:1019F0000FB6F894DEBF0FBECDBFDF91CF911F9120
:101A00000F91089561E772E0CE010A960E9447099E
:101A1000EDCF0E944F06DDCFCF92DF92EF92FF9283
:101A20000F931F93CF93DF93CDB7DEB7C650D2404D
:101A30000FB6F894DEBF0FBECDBFCE010F969A83CE
:101A400089839C838B838E010D5F1D4F1E830D83C5
:101A500018870F8319861E868FB7F894C090F002FE
:101A6000D090F102E090F202F090F3028FBF8E85E9
:101A7000982F9F7739F4807880628E871B861A862C
:101A80001D861C868E8585FF22C068E772E0CE0128
:101A90000A960E944709FC01892B89F4BE016F5FF9
:101AA0007F4FCE010A960E94CF05FC01892B79F069
:101AB00084818F77848388E792E09783868384810B
:101AC000807888608483C082D182E282F38284EF4E
:101AD00092E0F8019183808313821282B801CE01D3
:101AE0000A960E94860685E792E00E944F061092B1
:101AF000BA02CA5FDD4F0FB6F894DEBF0FBECDBF8E
:101B0000DF91CF911F910F91FF90EF90DF90CF90D9
:101B100008951F920F920FB60F9211242F933F93A7
:101B20008F939F93AF93BF938091F0029091F102B6
:101B3000A091F202B091F3023091EF0223E0230F63
:101B40002D3758F50196A11DB11D2093EF0280930A
:101B5000F0029093F102A093F202B093F30280910D
:101B6000EB029091EC02A091ED02B091EE02019691
:101B7000A11DB11D8093EB029093EC02A093ED02A6
:101B8000B093EE02BF91AF919F918F913F912F91B2
:101B90000F900FBE0F901F90189526E8230F029606
:101BA000A11DB11DD2CF1F920F920FB60F9211241B
:101BB0000BB60F922F933F934F935F936F937F9347
:101BC0008F939F93AF93BF93EF93FF9384EF92E034
:101BD0000E94EF02FF91EF91BF91AF919F918F9182
:101BE0007F916F915F914F913F912F910F900BBE1D
:101BF0000F900FBE0F901F9018951F920F920FB667
:101C00000F9211240BB60F922F938F939F93EF9304
:101C1000FF93E0910403F09105038081E0910A03B2
:101C2000F0910B0382FD1DC0908180910D038F5FA9
:101C30008F7320910E03821741F0E0910D03F0E0C5
:101C4000EC50FD4F958F80930D03FF91EF919F9185
:101C50008F912F910F900BBE0F900FBE0F901F9082
:101C600018958081F2CFCF93DF93CDB7DEB7A197E0
:101C70000FB6F894DEBF0FBECDBF789484B58260F6
:101C800084BD84B5816084BD85B5826085BD85B520
:101C9000816085BD80916E00816080936E0010929E
:101CA0008100809181008260809381008091810019
:101CB00081608093810080918000816080938000AA
:101CC0008091B10084608093B1008091B000816008
:101CD0008093B00080919100826080939100809108
:101CE0009100816080939100809190008160809349
:101CF00090008091A10082608093A1008091A1005A
:101D000081608093A1008091A00081608093A000F9
:101D10008091210182608093210180912101816065
:101D20008093210180912001816080932001809126
:101D30007A00846080937A0080917A008260809338
:101D40007A0080917A00816080937A0080917A0095
:101D5000806880937A001092C100E0910403F091B2
:101D6000050382E08083E0910003F091010310827B
:101D7000E0910203F09103038FEC808310920C0337
:101D8000E0910803F091090386E08083E091060367
:101D9000F0910703808180618083E0910603F091D8
:101DA0000703808188608083E0910603F091070338
:101DB000808180688083E0910603F0910703808131
:101DC0008F7D808323EE32E04BEBC42E42E0D42E95
:101DD00090E080E0F601E80FF91F108201968A304A
:101DE0009105C1F74AE0C40ED11C2C153D0581F7C1
:101DF00060E085E10E944A0260E084E10E944A02BC
:101E000060E083E10E944A0260E082E10E944A02AF
:101E100061E082E00E944A0261E083E00E944A029F
:101E200061E084E00E944A0261E085E00E944A028B
:101E300061E08FE10E944A0261E080E20E944A0272
:101E400061E081E20E944A0261E082E20E944A026D
:101E500061E083E20E944A0261E084E20E944A0259
:101E600061E085E20E944A0261E086E20E944A0245
:101E700061E087E20E944A0261E088E20E944A0231
:101E800061E08BE00E944A0261E08AE00E944A021F
:101E900061E089E00E944A0261E088E00E944A0213
:101EA00061E087E00E944A0260E086E00E944A0208
:101EB00060E087E30E944A0260E086E30E944A02F3
:101EC00011E093E0292E312C2AE0422E512C612C76
:101ED000712C8091EA02882321F00E94640C0E94F8
:101EE0000C0D2FB7F8946091F0027091F10280917F
:101EF000F2029091F3022FBF24EF31E040E050E076
:101F00000E945D12CA01B90122E130E040E050E0D8
:101F10000E945D129B011092E9021092E802109259
:101F2000E7021092E6024BEB52E0F0E0E0E0DA016B
:101F3000AE0FBF1F1C923196EA30F105C1F7465F24
:101F40005F4FC416D50689F71092E502223031059D
:101F500009F4FCC0E4F42115310599F12130310573
:101F600009F4F1C09B0125503109C901B1010E945A
:101F70004912CB01E7E0E89FB001E99F700D112401
:101F800065547D4F620F731FFB0110831CC024300A
:101F9000310509F4E1C00CF4DCC02530310511F73E
:101FA0001093BB021093BD021093C6021093CF0290
:101FB0001093D1021093D9021093DA021093DB022E
:101FC00002C01093E90285E10E94F30184E10E94BE
:101FD000F30183E10E94F30182E10E94F30186E0B4
:101FE0000E94F3016091E9028BE00E941C02609163
:101FF000E8028AE00E941C026091E70289E00E94E8
:102000001C026091E60288E00E941C0260E082E00F
:102010000E941C0260E083E00E941C0260E084E0F9
:102020000E941C0260E085E00E941C026091E502B3
:1020300087E00E941C028EE1882E82E0982EB12C4F
:10204000A12C0AE0E090E302F090E402F401808128
:10205000F2E08F0E911C0E9DF0010F9DF00D1124EA
:10206000E554FD4FEA0DFB1D60810E941C024FEFFD
:10207000A41AB40A8AE0A816B10421F761E0E114B9
:10208000F10409F060E082E00E941C0261E091E04E
:10209000E916F10409F060E083E00E941C0261E0AF
:1020A000E2E0EE16F10409F060E084E00E941C0218
:1020B00061E0F3E0EF16F10409F060E085E00E94D2
:1020C0001C024FEFE41AF40A84E0E816F1040CF065
:1020D00046C0F092E402E092E3028090E302909026
:1020E000E402092C000CAA08BB08B7FE3DC06DE253
:1020F00084EF92E00E94110322273327A9012819B7
:1021000039094A095B0919A2FE01B1967F01CA018A
:10211000B901A30192010E945D12605DF701629313
:102120007F01211531054105510589F7E114F104BD
:1021300019F0C7010E944F0685E792E00E944F0602
:102140000E948203C6CE1093E6023DCF1093E802B0
:102150003ACF1093E70237CF1093E50234CF1092B5
:10216000E4021092E302B9CFA501940119A2CE01B5
:1021700081967C01CA01B901A30192010E945D12FE
:10218000605DF70162937F0121153105410551051D
:1021900089F7CCCFE4EFF2E01382128288EE93E06D
:1021A000A0E0B0E084839583A683B78380E192E0CA
:1021B0009183808385EC90E09587848784EC90E020
:1021C0009787868780EC90E0918B808B81EC90E004
:1021D000938B828B82EC90E0958B848B86EC90E0E5
:1021E000978B868B118E128E138E148E08950E94FB
:1021F000391108F481E00895E89409C097FB3EF492
:1022000090958095709561957F4F8F4F9F4F992343
:10221000A9F0F92F96E9BB279395F69587957795C1
:102220006795B795F111F8CFFAF4BB0F11F460FF81
:102230001BC06F5F7F4F8F4F9F4F16C0882311F0D9
:1022400096E911C0772321F09EE8872F762F05C0ED
:10225000662371F096E8862F70E060E02AF09A9588
:10226000660F771F881FDAF7880F9695879597F97D
:102270000895990F0008550FAA0BE0E8FEEF161617
:102280001706E807F907C0F012161306E407F5076A
:1022900098F0621B730B840B950B39F40A2661F0DE
:1022A000232B242B252B21F408950A2609F4A14081
:1022B000A6958FEF811D811D08950E9470110C94C9
:1022C000E1110E94D31138F00E94DA1120F0952319
:1022D00011F00C94CA110C94D01111240C94151205
:1022E0000E94F21170F3959FC1F3950F50E0551FB6
:1022F000629FF001729FBB27F00DB11D639FAA275B
:10230000F00DB11DAA1F649F6627B00DA11D661FA9
:10231000829F2227B00DA11D621F739FB00DA11DCA
:10232000621F839FA00D611D221F749F3327A00D84
:10233000611D231F849F600D211D822F762F6A2F20
:1023400011249F5750409AF0F1F088234AF0EE0F85
:10235000FF1FBB1F661F771F881F91505040A9F7B2
:102360009E3F510580F00C94CA110C9415125F3FEA
:10237000E4F3983ED4F3869577956795B795F795EE
:10238000E7959F5FC1F7FE2B880F911D9695879566
:1023900097F9089597F99F6780E870E060E00895E5
:1023A0009FEF80EC089500240A941616170618066D
:1023B0000906089500240A94121613061406050649
:1023C0000895092E0394000C11F4882352F0BB0FDA
:1023D00040F4BF2B11F460FF04C06F5F7F4F8F4F3D
:1023E0009F4F089557FD9058440F551F59F05F3F78
:1023F00071F04795880F97FB991F61F09F3F79F027
:1024000087950895121613061406551FF2CF4695A8
:10241000F1DF08C0161617061806991FF1CF86952A
:102420007105610508940895E894BB27662777270E
:10243000CB0197F908950E942612A59F900DB49F95
:10244000900DA49F800D911D11240895A29FB001AD
:10245000B39FC001A39F700D811D1124911DB29FD8
:10246000700D811D1124911D0895AA1BBB1B51E104
:1024700007C0AA1FBB1FA617B70710F0A61BB70BF4
:10248000881F991F5A95A9F780959095BC01CD0199
:10249000089597FB072E16F4009407D077FD09D016
:1024A0000E94351207FC05D03EF4909581959F4F10
:1024B0000895709561957F4F0895A1E21A2EAA1B89
:1024C000BB1BFD010DC0AA1FBB1FEE1FFF1FA217E4
:1024D000B307E407F50720F0A21BB30BE40BF50BE1
:1024E000661F771F881F991F1A9469F7609570956A
:1024F000809590959B01AC01BD01CF010895EE0F31
:10250000FF1F881F8BBF0790F691E02D199450583C
:10251000BB27AA270E949F120C94E1110E94D3119D
:1025200038F00E94DA1120F039F49F3F19F426F4B4
:102530000C94D0110EF4E095E7FB0C94CA11E92F2E
:102540000E94F21158F3BA176207730784079507C0
:1025500020F079F4A6F50C9414120EF4E0950B2EED
:10256000BA2FA02D0B01B90190010C01CA01A001E5
:102570001124FF27591B99F0593F50F4503E68F140
:102580001A16F040A22F232F342F4427585FF3CF81
:10259000469537952795A795F0405395C9F77EF452
:1025A0001F16BA0B620B730B840BBAF09150A1F09B
:1025B000FF0FBB1F661F771F881FC2F70EC0BA0F21
:1025C000621F731F841F48F4879577956795B795A9
:1025D000F7959E3F08F0B0CF9395880F08F09927A4
:1025E000EE0F9795879508950E94FA1188F09F57EE
:1025F00098F0B92F9927B751B0F0E1F0660F771F27
:10260000881F991F1AF0BA95C9F714C0B13091F01C
:102610000E941412B1E008950C941412672F782FC1
:102620008827B85F39F0B93FCCF3869577956795E1
:10263000B395D9F73EF490958095709561957F4F4D
:102640008F4F9F4F08950E94391108F48FEF08951E
:10265000FB01DC018D91019080190110D9F3990BD8
:062660000895F894FFCF7D
:102666007D0280028B029B02A802B10200000000DC
:1026760011037B02A8025E03D902B702CB021F0038
:102686002000210022002300240025002600270028
:1026960028002F2F22225C5C6208660C6E0A720DDF
:1026A6007409005C7530303030006E756C6C0074E7
:1026B6007275650066616C73650064657365726941
:1026C600616C697A652829206661696C65643A20BF
:1026D600006C6564000D0A0074696D65004F6B003F
:1026E600456D707479496E70757400496E636F6DCF
:1026F600706C657465496E70757400496E76616CB0
:102706006964496E707574004E6F4D656D6F7279B0
:0A27160000546F6F44656570000009
:00000001FF
