:100000000C9469010C949A010C949A010C949A0135
:100010000C949A010C949A010C949A010C949A01F4
:100020000C949A010C949A010C949A010C949A01E4
:100030000C949A010C949A010C949A010C949A01D4
:100040000C949A010C949A010C949A010C949A01C4
:100050000C949A010C949A010C949A010C94D90F67
:100060000C949A010C944D100C9423100C949A014A
:100070000C949A010C949A010C949A010C949A0194
:100080000C9483100C949A010C949A010C949A018C
:100090000C949A010C949A010C949A010C949A0174
:1000A0000C949A010C949A010C949A010C949A0164
:1000B0000C949A010C949A010C949A010C949A0154
:1000C0000C949A010C949A010C949A010C949A0144
:1000D0000C949A010C949A010C949A010C949A0134
:1000E0000C949A010C9462040C9408040C94AE14C1
:1000F0000C94CC030C94C1020C94A8140C94980298
:100100000C9494020C94A1020C94A5140C94A214C7
:100110000C94B9020C94A5020C948C020C94CB02A2
:100120000C94B8140C94AE110C9449140C94C7029E
:100130000C9486020C94AB140C94BD020C941C0419
:100140000C94AF040C942A040C94AB020C94F903A5
:100150000C94B3020C94AF020C9490020C949B028A
:100160000C94C6020C946E030000803FCDCCCC3DB5
:100170006F12833A95BFD6337D1D9026B3CE010C06
:1001800000002100240027002A002D003000330049
:1001900001010000040107010A01000022002500FE
:1001A00028002B002E003100340002010000050160
:1001B00008010B01000020002300260029002C006C
:1001C0002F003200000100000301060109010505AE
:1001D0000505070508080808020202020A0A0808BD
:1001E00004040404010101010101010103030303EB
:1001F00003030303040707070C0C0C0C0C0C0C0C7A
:100200000202020206060606060606060B0B0B0B8A
:100210000B0B0B0B010210202008081020401020AF
:1002200040800201020108040201010204081020BA
:1002300040808040201008040201800402018040B8
:100240002010080402010804020101020408102021
:100250004080010204081020408000000A0B0209BF
:100260000C0D0E0807030401000000000000000050
:10027000000000000000000000000000000000007E
:10028000000000000000121110000000000000003B
:10029000000000000000000000000000000000005E
:1002A000000020410000C84200401C4620BCBE4C5B
:1002B000CA1B0E5AAEC59D74CDCCCC3D0AD7233C8B
:1002C00017B7D13877CC2B329595E6241FB14F0A5A
:1002D000AE1111241FBECFEFD1E2DEBFCDBF00E0D3
:1002E0000CBF24E0ACE0B3E001C01D92A430B20723
:1002F000E1F713E0A0E0B2E0ECE1FEE200E00BBFCA
:1003000002C007900D92AC30B107D9F711E0C9E6F1
:10031000D1E000E006C021970109802FFE010E9474
:100320005A16C836D10780E00807A9F70E94FB11CA
:100330000C940C170C9400008091F4039091F50339
:10034000A091F603B091F7032091ED03233009F457
:100350007DC0ACF42130C9F1223009F457C080913E
:10036000F4039091F503A091F603B091F703892B64
:100370008A2B8B2B19F481E08093EC0308952430B1
:1003800009F485C0253059F7AC01BD01009721E083
:10039000A207B10520F04FEF5FEF60E070E05093EF
:1003A000290140932801841B950BA60BB70B809362
:1003B000F4039093F503A093F603B093F7038091B1
:1003C0007300826080937300CACFAC01BD010097B7
:1003D00021E0A207B10520F04FEF5FEF60E070E091
:1003E0005093890040938800841B950BA60BB70B94
:1003F0008093F4039093F503A093F603B093F7036F
:1004000080916F00826080936F00A9CFAC01BD0125
:100410008F3F9105A105B10529F020F04FEF50E085
:1004200060E070E04093B300841B950BA60BB70B04
:100430008093F4039093F503A093F603B093F7032E
:100440008091700082608093700089CFAC01BD0103
:10045000009721E0A207B10520F04FEF5FEF60E0C9
:1004600070E05093990040939800841B950BA60B65
:10047000B70B8093F4039093F503A093F603B09326
:10048000F7038091710082608093710068CFAC01A6
:10049000BD01009721E0A207B10520F04FEF5FEF0B
:1004A00060E070E05093A9004093A800841B950B76
:1004B000A60BB70B8093F4039093F503A093F60378
:1004C000B093F7038091720082608093720047CFEF
:1004D0008150823108F05AC0E82FF0E08827EC58AC
:1004E000FD4F8F4F0C945A169402980286028C028C
:1004F0009002C6029B02A102A502AB02AF02B302A8
:10050000B902BD02C602C102C702CB0280918000BF
:100510008F77809380000895809180008F7DF9CF40
:1005200080918000877FF5CF84B58F7784BD089553
:1005300084B58F7DFBCF8091B0008F778093B00022
:1005400008958091B0008F7DF9CF809190008F77D2
:10055000809390000895809190008F7DF9CF8091D5
:100560009000877FF5CF8091A0008F778093A000C7
:1005700008958091A0008F7DF9CF8091A000877FA2
:10058000F5CF809120018F7780932001089580918D
:1005900020018F7DF9CF80912001877FF5CFCF9308
:1005A000DF93282F30E0F901E65AFD4F8491F901DD
:1005B000EC5EFD4FD491F901E253FE4FC491CC2380
:1005C000A1F081110E946802EC2FF0E0EE0FFF1FF6
:1005D000EC54FE4FA591B491EC91ED2381E090E0B5
:1005E00009F480E0DF91CF91089580E090E0FACFA8
:1005F0001F93CF93DF93282F30E0F901E65AFD4F88
:100600008491F901EC5EFD4FD491F901E253FE4F64
:10061000C491CC23A9F0162F81110E946802EC2FFF
:10062000F0E0EE0FFF1FE656FE4FA591B4918FB795
:10063000F894EC91111108C0D095DE23DC938FBFA4
:10064000DF91CF911F910895DE2BF8CFCF93DF93E9
:1006500090E0FC01EC5EFD4F249182539E4FFC0123
:1006600084918823D1F090E0880F991FFC01E05815
:10067000FE4FA591B491FC01E656FE4FC591D49171
:1006800061110EC09FB7F8948C91E22FE0958E23F4
:100690008C932881E223E8839FBFDF91CF91089557
:1006A0008FB7F894EC91E22BEC938FBFF6CF90913B
:1006B0007B00977F90937B008653806480937C00BF
:1006C00080917A00806480937A0080917A0086FD20
:1006D000FCCF80917800909179000895FF920F935C
:1006E0001F93CF93DF9380910E0390910F03892B7B
:1006F00009F047C060E085E00E94F8020CE012E0DB
:10070000D0E0C0E09AE0F92E20910E0330910F0363
:10071000F80180810E5F1F4FF29EF001F39EF00DF5
:100720001124E05FFC4FEC0FFD1F60810E94F80276
:100730002196CA30D10541F7E0910E03F0910F03E5
:10074000EE0FFF1FE05EFD4F61E080810E94F80226
:1007500080910E0390910F03019690930F03809365
:100760000E0380910E0390910F03049724F01092D2
:100770000F0310920E03DF91CF911F910F91FF9005
:100780000895E0910E03F0910F03EE0FFF1FE25E5C
:10079000FD4F60E08081B0CFAF92BF92CF92DF92E9
:1007A000EF92FF920F931F93CF93DF936C017B0126
:1007B0008B01040F151FEB015E01AE18BF08C017B7
:1007C000D10759F06991D601ED91FC910190F0812A
:1007D000E02DC6011995892B79F7C501DF91CF91DD
:1007E0001F910F91FF90EF90DF90CF90BF90AF904F
:1007F0000895FC01538D448D252F30E0842F90E027
:10080000821B930B541710F0CF960895019708950B
:10081000FC01918D828D981761F0A28DAE0FBF2FD4
:10082000B11D5D968C91928D9F5F9F73928F90E02A
:1008300008958FEF9FEF0895FC01918D828D981799
:1008400031F0828DE80FF11D858D90E008958FEFD6
:100850009FEF0895FC01918D228D892F90E0805C9F
:100860009F4F821B91098F73992708958FE493E01E
:100870000E942A0421E0892B09F420E0822F0895A8
:10088000FC01A48DA80FB92FB11DA35ABF4F2C9105
:10089000848D90E001968F739927848FA689B789FC
:1008A0002C93A089B1898C91837080648C93938DF3
:1008B000848D981306C00288F389E02D80818F7D96
:1008C00080830895EF92FF920F931F93CF93DF934E
:1008D000EC0181E0888F9B8D8C8D98131AC0E8897C
:1008E000F989808185FF15C09FB7F894EE89FF894B
:1008F0006083E889F98980818370806480839FBFE9
:1009000081E090E0DF91CF911F910F91FF90EF90E8
:100910000895F62E0B8D10E00F5F1F4F0F731127F8
:10092000E02E8C8D8E110CC00FB607FCFACFE88933
:10093000F989808185FFF5CFCE010E944004F1CF77
:10094000EB8DEC0FFD2FF11DE35AFF4FF0829FB7A7
:10095000F8940B8FEA89FB8980818062CFCFCF9397
:10096000DF93EC01888D8823B9F0AA89BB89E889D7
:10097000F9898C9185FD03C0808186FD0DC00FB67D
:1009800007FCF7CF8C9185FFF2CF808185FFEDCFFB
:10099000CE010E944004E9CFDF91CF91089580E01D
:1009A00090E0892B29F00E94360481110E940000FA
:1009B00080E090E0892B49F080E090E0892B29F0DD
:1009C0000E94000081110E94000080E090E0892BCD
:1009D00049F080E090E0892B29F00E94000081110D
:1009E0000E94000080E090E0892B49F080E090E0D8
:1009F000892B29F00E94000081110C9400000895B9
:100A00000895FB01309729F0948190789660948343
:100A100080830895CF93DF93EC0188819981DC0175
:100A2000ED91FC910190F081E02D19952A813B8197
:100A3000820F931F9B838A83DF91CF910895CF9379
:100A4000DF93EC0188819981DC01ED91FC910280BA
:100A5000F381E02D19952A813B81820F931F9B839F
:100A60008A83DF91CF9108958F929F92AF92BF9228
:100A7000CF92DF92EF92FF920F931F93CF93DF936A
:100A8000CDB7DEB766970FB6F894DEBF0FBECDBF09
:100A90006C018E01095E1F4F78018AE0882E912C2F
:100AA000A12CB12CCB01BA01A50194010E943816EA
:100AB000942F852F605DF80162938F01A901692F42
:100AC000782F411551056105710561F7A7014E1B8E
:100AD0005F0BBF01C6010E941F0566960FB6F89412
:100AE000DEBF0FBECDBFDF91CF911F910F91FF9061
:100AF000EF90DF90CF90BF90AF909F908F90089530
:100B000080339CF08A3324F08F3524F08B3724F423
:100B100081E0089581344CF08B35D4F393ED980F38
:100B200081E09230B0F380E008958B32B9F7F0CFD6
:100B30000F931F93CF93DF93EC018C85811140C0FD
:100B400009851A852FB7F89480914B0390914C0337
:100B5000A0914D03B0914E032FBFF801808791877C
:100B6000A287B387D801ED91FC910284F385E02D33
:100B7000C801199597FF2AC02FB7F89480914B03AD
:100B800090914C03A0914D03B0914E032FBFF801FB
:100B90004085518562857385841B950BA60BB70B29
:100BA000448155816681778184179507A607B70729
:100BB000C8F28FEF9FEF97FD80E08B8781E08C87F5
:100BC0008B85DF91CF911F910F9108959927F3CFD6
:100BD0001F93CF93DF93EC01162F0E94980581138A
:100BE00006C01C8681E0DF91CF911F91089580E0BF
:100BF000FACFCF93DF93EC01CE010E9498058B30A2
:100C00003CF489304CF4882349F081E0888710C097
:100C10008D3011F08032C9F71C86EECF88858111A6
:100C20000AC081E090E0C15BDF4F9983888380E058
:100C3000DF91CF91089582E090E0F5CF0895FC0117
:100C400024813581A9014F5F5F4F868197814817C5
:100C5000590748F48281938155834483FC01E20F54
:100C6000F31F608308950190F081E02D81E080877B
:100C700008959F92AF92BF92CF92DF92EF92FF9230
:100C80000F931F93CF93DF9300D01F921F92CDB786
:100C9000DEB78C010E949805D82ED8011C961C92B4
:100CA000F12CE12C60EFC62EC8010E949805F801D6
:100CB0001486D81609F4BDC0811119C0F801E15B92
:100CC000FF4F82E090E09183808380E00F900F904F
:100CD0000F900F900F90DF91CF911F910F91FF9088
:100CE000EF90DF90CF90BF90AF909F9008958C359C
:100CF00009F09DC0C8010E9498058823F9F2EAE333
:100D0000F2E0853709F087C0D8011C961C9254E0A8
:100D1000952EB12CA12CC8010E949805882371F250
:100D200081344CF48053803148F0F801E15BFF4F8F
:100D300083E090E0C8CF8F7D8753F5CF44E0AA0CC5
:100D4000BB1C4A95E1F7A82AF80114869A949110E1
:100D5000E2CFC501985D8115944020F4750123E030
:100D6000F222A2CFC5019C5D81159440A8F4B3E0A6
:100D7000BB22B701762F6627770F770F6A297B2969
:100D800090E080E00196603871058105910540F49E
:100D9000C8010E941F0688CFB50190E080E0F3CF24
:100DA0001982262F2F7320682A8326E0969587952F
:100DB000779567952A95D1F76032710580F4606C5C
:100DC0006B835E01E4E0AE0EB11CD5016E915D0156
:100DD000662309F469CFC8010E941F06F6CF262FAB
:100DE0002F7320682B8386E0769567958A95E1F7C7
:100DF0006031710538F4606E6C835E01F5E0AF0E12
:100E0000B11CE3CF60686C83CD825E0126E0A20E48
:100E1000B11CDBCF32969081992309F486CF8913D8
:100E2000F9CF8181882309F480CFF8011486682FD7
:100E3000AFCF0190F081E02D8085882331F0F8015B
:100E4000E15BFF4F84E090E03ECF81E03FCFCF9366
:100E5000FC01892B49F194819F779830E1F040F4AF
:100E6000992311F19630A9F0C1E08C2FCF9108950C
:100E70009A3089F09C30C1F7C1E020E030E0A90150
:100E800060817181828193810E94D2148111EDCFA2
:100E90000BC0C081EACFC1E080819181A281B38182
:100EA000892B8A2B8B2B09F7C0E0DFCFCF93DF9301
:100EB000DC01EB01EC81FD818A819B810896E817BA
:100EC000F90740F481E08887F0E0E0E0CF01DF91AE
:100ED000CF9108953897FD83EC833097B9F312963C
:100EE000CD91DC911397209791F0CF018C1B9D0B36
:100EF00023E0959587952A95E1F78D831396FC93CA
:100F0000EE9312971582148217821682DFCF119604
:100F1000FC93EE93F3CFEF92FF920F931F93CF9337
:100F2000DF937C01DC0112962D913C911397ED919A
:100F3000FC91AB01420F531FEF01C60FD71FC21721
:100F4000D307A0F4888181110BC0E901CF014C17B0
:100F50005D0751F00991DC011D91CD010117B9F335
:100F600081918111FDCFE8CF309751F4620F731F4B
:100F7000CB010196F70193838283DB011C92F90177
:100F8000CF01DF91CF911F910F91FF90EF900895C6
:100F9000FC012581222339F0F8E02F029001112471
:100FA000820F931F089590E080E00895FC01019066
:100FB0000020E9F73197AF01481B590BBC018FE4C2
:100FC00093E00C94CC03FB0101900020E9F73197EA
:100FD000AF01461B570B0C941F051F93CF93DF9354
:100FE000EAE3F2E01281112379F032962181621353
:100FF000F9CFEC016CE50E940A05612FCE01DF916B
:10100000CF911F910C940A056111F9CF6BE472E046
:10101000DF91CF911F910C94E3072F923F924F9253
:101020005F926F927F928F929F92AF92BF92CF9278
:10103000DF92EF92FF920F931F93CF93DF93CDB781
:10104000DEB76C970FB6F894DEBF0FBECDBF8C0134
:101050001B01DC0114968C9114978F77863009F46C
:1010600092C268F58230A0F11296ED90FC90139731
:10107000CC901196DC90843008F056C2A701B601DE
:10108000C1010E941F05F101828193816C960FB608
:10109000F894DEBF0FBECDBFDF91CF911F910F91AE
:1010A000FF90EF90DF90CF90BF90AF909F908F9088
:1010B0007F906F905F904F903F902F9008958C306D
:1010C00069F160F4883009F459C28A3009F43FC2EA
:1010D00062E572E0C1010E94E307E5C1803209F4D4
:1010E000ECC18034A9F76BE5C1010E940A05F80143
:1010F000008111810115110509F4DAC1B101C8019E
:101100000E940D08C8010E94C8078C01892B09F4B0
:10111000CFC16CE2C1010E940A05ECCFF801C0808A
:10112000D180E280F380A7019601C701B6010E9439
:10113000D2148111CDCF20E030E0A901C701B60162
:101140000E94D214882379F0A7019601C701B60145
:101150000E9463169B01AC01C701B6010E94D21424
:10116000882309F4B5CF20E030E0A901C701B6011A
:101170000E94D21487FF08C06DE2C1010E940A05D7
:10118000F7FAF094F7F8F09420E836E948E15BE4E8
:10119000C701B6010E94FE1687FD81C074E1A72E2B
:1011A000B12C00E210E0188E1F8AF501E056FD4FC9
:1011B0002591359145915491C701B6010E94FE16C3
:1011C00087FD13C0F501E854FD4F259135914591F8
:1011D0005491C701B6010E9438156B017C012F891B
:1011E000388D200F311F388F2F8B1595079534E0E0
:1011F000A31AB1088CEFA8168FEFB806B1F65524E4
:101200005A9420E030E0A901C701B6010E94FE1601
:1012100018160CF04BC02CEA35EC47E257E3C70137
:10122000B6010E94D21418160CF440C0A52DB4E0EB
:10123000AB02C0011124B12CA12CFC01E859FE4FD6
:101240003F019C0120563D4F49013FEF531671F17C
:10125000F301EA0DFB1D2591359145915491C7018C
:10126000B6010E94D21487FF13C0F401EA0DFB1DE2
:101270002591359145915491C701B6010E943815C9
:101280006B017C018F89988D801B910B988F8F8BC0
:10129000159507955A9494E0A91AB108D6CF00E2A3
:1012A00010E055E0552E188E1F8AABCFC701B6014E
:1012B0000E94CF164B015C012B013C0106E080E44B
:1012C00092E4AFE0B0E0898F9A8FAB8FBC8F102F84
:1012D00001509AE04916510461047104C8F0698D07
:1012E0007A8D8B8D9C8D2AE030E040E050E00E94AA
:1012F0003816298F3A8F4B8F5C8FC301B2012AE0D9
:1013000030E040E050E00E94381629013A01DFCF7A
:10131000C501B4010E94D7149B01AC01C701B601FD
:101320000E9462166B017C01698D7A8D8B8D9C8D7C
:101330000E94D7149B01AC01C701B6010E94381569
:101340002B013C010E94CF166B017C010E94D71437
:101350009B01AC01C301B2010E9462169B01AC016A
:101360000E9463160E94CF16C60ED71EE81EF91EF5
:10137000898D9A8DAB8DBC8DC816D906EA06FB0601
:10138000D8F09FEF891A990AA90AB90AAF89B88DCE
:10139000AB2B39F1BAE08B169104A104B10408F12A
:1013A000EF89F88D3196F88FEF8BC12CD12C760117
:1013B000812C912C540183942AE0422E512C612CD3
:1013C000712CC701B601A30192010E943816672B48
:1013D000682B692B51F4111644F469017A011150FC
:1013E000F0CFC12CD12C7601E7CFB501A401C1010A
:1013F0000E943405112371F14E01F1E18F0E911C11
:10140000012F54019AE0492E512C612C712C01506E
:1014100068F0C701B601A30192010E943816605D11
:10142000D4016E934D0169017A01F1CF812F90E0D3
:10143000BC0160957095F501E81BF90B31978EE2C0
:10144000808344275527461B570B6A0D7B1DC1011E
:101450000E941F05EF89F88DEF2B29F165E6C10188
:101460000E940A050F89188D17FF07C06DE2C101A0
:101470000E940A05119501951109FE0177969F01B9
:101480008AE0E82EF12CC801B7010E941016805D99
:1014900082938B01672BB9F7A9014E1B5F0BBF012C
:1014A000C1010E941F05D10112968D919C91EECD34
:1014B0006DE5C1010E940A05F6CF6BE7C1010E94EC
:1014C0000A05F801008111810115110559F1D801B2
:1014D0001696CC9016971796DC9062E2C1010E9496
:1014E0000A057601F70161917F01662321F0C101B0
:1014F0000E94ED07F7CF62E2C1010E940A056AE38C
:10150000C1010E940A05B101C8010E940D08C8016D
:101510000E94C8078C01892B29F06CE2C1010E944E
:101520000A05D2CF6DE7C5CF62E2C1010E940A056C
:101530008601E00EF11EE016F10639F0F801619126
:101540008F01C1010E94ED07F6CF62E2B2CFCD90CC
:10155000DD90ED90FC90B701A601F7FE0BC06DE2A7
:10156000C1010E940A0544275527BA014C195D099B
:101570006E097F09C1010E94340585CD4D915D91B1
:101580006D917C91F7CF8C9167E572E0811102C07B
:101590006CE572E0C1010E94E30775CD0F931F93C4
:1015A000CF93DF93D0E0C0E06115710591F08B011E
:1015B000FC01C081D181209761F06E817F81C801DB
:1015C0000E940317892B29F0CE010E94C807EC0165
:1015D000F2CFCE01DF91CF911F910F9108954F92DD
:1015E0005F926F927F92BF92CF92DF92EF92FF92C3
:1015F0000F931F93CF93DF93EC018B01E42E0E9496
:10160000F905F82E811110C0F12C8F2DDF91CF91AB
:101610001F910F91FF90EF90DF90CF90BF907F9040
:101620006F905F904F900895CE010E949805873289
:1016300009F42BC10CF5823209F427C1CE010E94B6
:101640009805B82E6E01FFE0CF0ED11CE12C3601BB
:101650008B2D0E948005882309F443C12FE3E216F5
:1016600009F43FC11C86E394F601B1926F01CE01EB
:101670000E949805B82EECCF8B3509F44AC08B3701
:10168000E9F6F80184818078806284831182108277
:1016900013821282EE2009F447C01C86CE010E94FC
:1016A000F905882309F4B0CF6DE7CE010E94E80563
:1016B000D82E8111AACFCC24C394EA94E881F98171
:1016C000828193819B838A83848195812281338166
:1016D000821B930B9F838E831D821C82892B09F4AE
:1016E000C086CE010E949805873209F45DC082321F
:1016F00009F45AC0CE010E949805F82E0E94800578
:10170000811159C0C15BDF4F83E090E099838883EA
:1017100050C0F801848180788064848311821082B3
:1017200013821282E11007C0C15BDF4F85E090E0B9
:101730009983888369CF1C86CE010E94F90588238E
:1017400009F462CF6DE5CE010E94E80581115DCFFD
:10175000EA946D857E85C8010E945607009729F49A
:10176000C15BDF4F84E090E0E3CF4E2DBC01CE01A2
:101770000E94EF0A882309F447CFCE010E94F905A1
:10178000882309F441CF6DE5CE010E94E80581115F
:101790003CCF6CE2CE010E94E8058111DACFC15B3B
:1017A000DF4F83E090E0C4CFCE010E943906811163
:1017B00019C0FD2C2ACF1C866F2DCE010E941F065A
:1017C000CE010E949805F82E0E9480058111F3CF6A
:1017D000E881F9818085882329F0C15BDF4F84E0AF
:1017E00090E094CFCE010E94F905882311F36AE3BB
:1017F000CE010E94E805882309F484CFEA81FB81A9
:101800008C819D81E80FF91F10826C807D806A8138
:101810007B81C8010E94CE0ABC01892BA1F4B301CF
:10182000888199810E948B073C016D857E85C80166
:101830000E945607FC01892B81F284818068848391
:1018400077826682BF014E2DCE010E94EF0A882367
:1018500009F4AFCFCE010E94F905882309F4A9CF7E
:101860006DE7CE010E94E80581110DC06CE2CE014A
:101870000E94E805882309F445CFCE010E94F905AE
:1018800081111CCF96CFD82E94CFE881F981828127
:1018900093819B838A838481958122813381821BFA
:1018A000930B9F838E831D821C82892B11F481E010
:1018B0008087CE010E943906F82E882309F4A4CE31
:1018C000CC80DD80B601888199810E948B07F80168
:1018D000248120782560248391838083D382C282EF
:1018E00094CEFE01EE0DF11D17868F85843781F4AD
:1018F000F801848180788660848381E08083F4E0CD
:10190000EF1609F482CEC15BDF4F82E090E010CF8A
:10191000863641F4F8018481807886608483108261
:10192000F5E0EECF8E3621F424E0E212ECCF6DCE5E
:101930008B32D9F1F3018D32D1F5FE017096BF2CB7
:10194000808190ED980F9A3018F08E3209F027CFF1
:101950006F0160E070E0CB01F6012191A0ED4A2E0D
:10196000420E39E0341528F16A3949E974078407D1
:1019700049E1940740F5AAE0B0E09B01AC010E9468
:10198000F615512C712C612CA301920120953095F4
:10199000409550952617370748075907A0F0640D62
:1019A000751D861D971D6F01D7CFFE017096B12C56
:1019B000C7CF211108C0BB2071F1613071058105CD
:1019C00050E89507A0F0E12CEAE04E2E512C612C56
:1019D000712C61157105F0E88F07910530F1A301B5
:1019E00092010E943816CA01B901E394F2CFF801BE
:1019F000248120782A6024839B01AC0188279927C1
:101A0000DC01821B930BA40BB50B80839183A28313
:101A1000B383FB2CFACDF80124812078286024833D
:101A20006083718382839383F0CDD601F601219187
:101A30006F0130ED320F3A3010F4E394F6CF2E32CE
:101A4000F1F4FD013196DF0131962C9150EDD52E48
:101A5000D20E29E02D1598F06C3C3CEC73073CE06D
:101A60008307910580F7AAE0B0E09B01AC010E94DA
:101A7000F6156D0D711D811D911DEA94E4CF2C9119
:101A80002F7D253409F08CC011962C9111972D32A1
:101A9000D9F512967F2CFD0130E020E0CE2C0E2CE3
:101AA000000CDD084AE0542EDF01619040ED460D48
:101AB0004A3008F043C0529EA001539E500D11249D
:101AC000262D660C330B20533109240F351FA60138
:101AD000420F531F473251053CF3F80184817720B0
:101AE000D1F040E050E060E070E8B11003C040E0A9
:101AF00050E0BA0180788C60F80184834083518380
:101B000062837383F72C81CD2B3219F01196712CDF
:101B1000C2CF1296FCCF40E050E060E87FEFB110FA
:101B200004C040E050E060E87FE780788C60F80116
:101B30008483408351836283738367CD772019F058
:101B40003195219531094C91411129CEE901CE0DF4
:101B5000D11DE7FCDA950E94D7141C161D061CF552
:101B6000E12CC0FF0CC024E0E29EF0011124E056FD
:101B7000FD4F25913591459154910E943815D59589
:101B8000C795E394209769F7B1109058F801248124
:101B900020782C602483608371838283938335CD86
:101BA00030E020E0D0CFD195C195D109E12C20972C
:101BB00059F3C0FF0CC044E0E49EF0011124E85446
:101BC000FD4F25913591459154910E943815D59539
:101BD000C795E394ECCFEF92FF920F931F93CF93AF
:101BE000DF93EC018C81982F9F7739F480788062A5
:101BF0008C83198218821B821A828C8185FF1DC0FA
:101C000061157105D1F07A018B01CE010E94CE0AD7
:101C1000009761F4B701CE010E945607009731F09A
:101C2000FC0124812F77248317830683DF91CF91D2
:101C30001F910F91FF90EF90089590E080E0F6CF14
:101C4000CF92DF92EF92FF920F931F93CF93DF9388
:101C5000CDB7DEB7C650D2400FB6F894DEBF0FBE88
:101C6000CDBFCE010F969A8389839C838B838E018F
:101C70000D5F1D4F1E830D8318870F8319861E86E7
:101C80008FB7F894C0904B03D0904C03E0904D0375
:101C9000F0904E038FBFAE014F5F5F4F62E672E080
:101CA000CE010A960E94EB0DFC01892B41F0948134
:101CB000907898609483C082D182E282F382AE01F0
:101CC0004F5F5F4F67E672E0CE010A960E94EB0D10
:101CD000BC01809140030E940105AE014F5F5F4F40
:101CE0006DE672E0CE010A960E94EB0DBC01809178
:101CF0003F030E940105AE014F5F5F4F63E772E053
:101D0000CE010A960E94EB0DBC0180913E030E9419
:101D10000105AE014F5F5F4F69E772E0CE010A96A1
:101D20000E94EB0DBC0180913D030E940105AE01B4
:101D30004F5F5F4F6FE772E0CE010A960E94EB0D96
:101D4000BC0180913C030E940105AE014F5F5F4FD3
:101D500067E872E0CE010A960E94EB0DFC01892B28
:101D600081F020913A0330913B03948190789A60FE
:101D70009483C901330FAA0BBB0B80839183A28389
:101D8000B383AE014F5F5F4F6EE872E0CE010A96FB
:101D90000E94EB0DFC01892B81F0209138033091DA
:101DA0003903948190789A609483C901330FAA0B08
:101DB000BB0B80839183A283B3838FE493E0F8010C
:101DC0009183808313821282B801CE010A960E9409
:101DD0000D0885E992E00E94D60710920D03CA5FB4
:101DE000DD4F0FB6F894DEBF0FBECDBFDF91CF91B0
:101DF0001F910F91FF90EF90DF90CF900895FC011D
:101E0000248125FD0C94CE0A90E080E008950F9384
:101E10001F93CF93DF93CDB7DEB7C356D2400FB633
:101E2000F894DEBF0FBECDBFCE010F969A83898393
:101E30009C838B8383E092E08C0F9D1F9E838D8318
:101E400098878F8319861E8682509240C45ADD4F30
:101E500099838883CC55D24028E0FE01E45AFD4F97
:101E6000DE01AC5ABD4F01900D922A95E1F728E0B2
:101E7000FE01EC5AFD4FDE01AD5FBD4F01900D92AA
:101E80002A95E1F7C55FDD4F1882CB50D2402FE491
:101E900033E0C45FDD4F39832883CC50D240C15F2B
:101EA000DD4F1882CF50D240C05FDD4F99838883C9
:101EB000C051D240CE5ADD4F19821882C255D2404D
:101EC0004AE0BE01665F7F4F8E5F9D4F0E94EF0A22
:101ED000CE5ADD4F08811981C255D2400115110536
:101EE00061F4C25FDD4F8881CE50D240882331F14A
:101EF0008E8583FF23C003E010E088E992E00E9412
:101F0000D607000F111FF801E050FE4F808191812C
:101F1000009711F00E94D60785E992E00E94D6074B
:101F200090E080E0CD59DD4F0FB6F894DEBF0FBED4
:101F3000CDBFDF91CF911F910F9108956FEA72E0AD
:101F4000CE010A960E94FF0E63EB72E0CE010A9664
:101F50000E94FF0E0E9427078093450369EB72E001
:101F6000CE010A960E94FF0E0E9427078093440329
:101F70006FEB72E0CE010A960E94FF0E0E942707C7
:101F80008093430365EC72E0CE010A960E94FF0E37
:101F90000E942707809342036BEC72E0CE010A9601
:101FA0000E94FF0E0E9427078093410381E090E08A
:101FB000B9CF1F920F920FB60F9211242F933F9318
:101FC0008F939F93AF93BF9380914B0390914C035A
:101FD000A0914D03B0914E0330914A0323E0230FAB
:101FE0002D3758F50196A11DB11D20934A0380930A
:101FF0004B0390934C03A0934D03B0934E038091F9
:10200000460390914703A0914803B091490301967C
:10201000A11DB11D8093460390934703A0934803ED
:10202000B0934903BF91AF919F918F913F912F91B1
:102030000F900FBE0F901F90189526E8230F029661
:10204000A11DB11DD2CF1F920F920FB60F92112476
:102050000BB60F922F933F934F935F936F937F93A2
:102060008F939F93AF93BF93EF93FF938FE493E08E
:102070000E944004FF91EF91BF91AF919F918F918A
:102080007F916F915F914F913F912F910F900BBE78
:102090000F900FBE0F901F9018951F920F920FB6C2
:1020A0000F9211240BB60F922F938F939F93EF9360
:1020B000FF93E0915F03F09160038081E0916503FD
:1020C000F091660382FD1DC09081809168038F5F4F
:1020D0008F7320916903821741F0E0916803F0E06B
:1020E000E15BFC4F958F80936803FF91EF919F9187
:1020F0008F912F910F900BBE0F900FBE0F901F90DE
:1021000018958081F2CF1F920F920FB60F92112473
:102110000BB60F92CF92DF92EF92FF922F933F93E5
:102120004F935F936F937F938F939F93AF93BF93DF
:10213000EF93FF93C090F803D090F903E090FA0377
:10214000F090FB038091ED03833009F04DC0C11482
:10215000D104E104F10409F4D5C08091EC03882393
:1021600009F45BC0E0910004F0910104309741F064
:102170008091020490910304009709F44CC01995D2
:102180008091F0039091F103A091F203B091F303D9
:102190000097A140B105B4F0F8948091F0039091BC
:1021A000F103A091F203B091F3038093F4039093B1
:1021B000F503A093F603B093F7030E949C011092DD
:1021C000EC0378941C141D041E041F046CF481E0BD
:1021D000C81AD108E108F108C092F803D092F903B7
:1021E000E092FA03F092FB03FF91EF91BF91AF9160
:1021F0009F918F917F916F915F914F913F912F911F
:10220000FF90EF90DF90CF900F900BBE0F900FBE1E
:102210000F901F9018951995B3CFF8942091ED0366
:102220008091F4039091F503A091F603B091F70328
:10223000223009F447C08F3F9F4FA105B10510F42C
:102240000E949C018091F4039091F503A091F60304
:10225000B091F703AC01BD01009721E0A207B105E1
:1022600020F04FEF5FEF60E070E0841B950BA60B52
:10227000B70B8093F4039093F503A093F603B09308
:10228000F7038091F4039091F503A091F603B091C8
:10229000F703892B8A2B8B2B91F58091F00390917A
:1022A000F103A091F203B091F3038093F4039093B0
:1022B000F503A093F603B093F70381E08093EC035A
:1022C000789492CF8F3F9105A105B10510F40E943B
:1022D0009C018091F4039091F503A091F603B091D5
:1022E000F703AC01BD018F3F9105A105B10509F0D0
:1022F00008F4BBCF4FEF50E060E070E0B6CF109233
:10230000EC03DECFF8948091ED038330D9F054F4E0
:10231000813091F08230A1F6809170008D7F8093A2
:102320007000CECF8430A1F0853051F680917300DB
:102330008D7F80937300C4CF80916F008D7F8093D9
:102340006F00BECF809171008D7F80937100B8CFF8
:10235000809172008D7F80937200B2CFEFE4F3E042
:102360001382128288EE93E0A0E0B0E0848395832C
:10237000A683B7838CE292E09183808385EC90E022
:102380009587848784EC90E09787868780EC90E03F
:10239000918B808B81EC90E0938B828B82EC90E030
:1023A000958B848B86EC90E0978B868B118E128EAA
:1023B000138E148EECEEF3E083E08183108A118A91
:1023C000128A138A158A148A178A168A108281E063
:1023D00090E093838283148215821682178210867E
:1023E0001186128613868FEF9FEFDC018487958715
:1023F000A687B7870895789484B5826084BD84B534
:10240000816084BD85B5826085BD85B5816085BDEF
:1024100080916E00816080936E00109281008091A7
:10242000810082608093810080918100816080932F
:102430008100809180008160809380008091B10054
:1024400084608093B1008091B00081608093B0007F
:1024500080919100826080939100809191008160D1
:102460008093910080919000816080939000809192
:10247000A10082608093A1008091A100816080937F
:10248000A1008091A00081608093A0008091210133
:1024900082608093210180912101816080932101DC
:1024A0008091200181608093200180917A00846076
:1024B00080937A0080917A00826080937A00809184
:1024C0007A00816080937A0080917A00806880939E
:1024D0007A001092C100E0915F03F091600382E006
:1024E0008083E0915B03F0915C031082E0915D03D7
:1024F000F0915E0381E0808310926703E0916303B3
:10250000F091640386E08083E0916103F0916203BF
:10251000808180618083E0916103F091620380811A
:1025200088608083E0916103F0916203808180681C
:102530008083E0916103F091620380818F7D8083CD
:1025400000E113E090E080E0F801E80FF91F10824D
:1025500001968A309105C1F7065F1F4F83E008336B
:10256000180781F760E085E10E94260360E084E1BE
:102570000E94260360E083E10E94260360E082E17E
:102580000E94260361E082E00E94260361E083E06E
:102590000E94260361E084E00E94260361E085E05A
:1025A0000E94260361E08FE10E94260361E080E241
:1025B0000E94260361E081E20E94260361E082E23C
:1025C0000E94260361E083E20E94260361E084E228
:1025D0000E94260361E085E20E94260361E086E214
:1025E0000E94260361E087E20E94260361E088E200
:1025F0000E94260361E08BE00E94260361E08AE0EE
:102600000E94260361E089E00E94260361E088E0E1
:102610000E94260361E087E00E94260360E086E0D6
:102620000E94260360E087E30E94260360E086E3C1
:102630000E9426038091ED03F894833009F4DEC0F4
:102640000CF0A9C0813009F4BBC0823009F4C7C0C6
:102650008093ED0378948091ED0318160CF04EC032
:102660008FEF9FEFDC018093F8039093F903A09321
:10267000FA03B093FB038FE798E3A1E0B0E0809307
:10268000F0039093F103A093F203B093F3038093CC
:10269000F4039093F503A093F603B093F70381E05E
:1026A00090E09093EF038093EE03F89480E090E045
:1026B000A8E4B3E48093FC039093FD03A093FE038E
:1026C000B093FF038EE693E090930104809300049F
:1026D00010920304109202041092EC038091ED0317
:1026E000823009F0A9C08091B100887F9091EE03FB
:1026F000892B8093B1000E949C01789484EFC82EAE
:10270000DD24D394E12CF12C93E1892E912CA12C82
:10271000B12C23E0622E712CD7E0C1E08FE493E06E
:102720000E942A04892B31F00E94070F019711F4AF
:102730000E94200E2FB7F89460914B0370914C03C8
:1027400080914D0390914E032FBFA70196010E94E7
:102750003816CA01B901A50194010E9438161092D9
:1027600045031092440310924303109242031092C7
:102770004103FB016730710508F004C18827EC5361
:10278000FC4E8F4F0C945A164914A214A514A81489
:10279000AB14AE14B814843009F43FC0853009F08E
:1027A00057CF109220011092210190912101986041
:1027B000909321019091210191609093210148CF44
:1027C0001092800010928100909181009860909307
:1027D00081009091810091609093810039CF109297
:1027E000B0001092B1009091B00092609093B00050
:1027F0009091B10091609093B1002ACF1092900017
:102800001092910090919100986090939100909116
:1028100091009160909391001BCF1092A0001092B4
:10282000A1009091A10098609093A1009091A100C7
:1028300091609093A1000CCF813049F48091810088
:10284000887F9091EE03892B8093810054CF833051
:1028500049F480919100887F9091EE03892B8093B9
:10286000910049CF843049F48091A100887F9091F4
:10287000EE03892B8093A1003ECF853009F03BCF3A
:1028800080912101887F9091EE03892B8093210113
:1028900032CFC093450385E10E94CF0221E0892B0E
:1028A00009F020E02093400384E10E94CF0221E060
:1028B000892B09F020E020933F0383E10E94CF029F
:1028C00021E0892B09F020E020933E0382E10E9461
:1028D000CF0221E0892B09F020E020933D0386E020
:1028E0000E94CF0221E0892B09F020E020933C03D5
:1028F00087E30E94570390933B0380933A0386E358
:102900000E945703909339038093380360914503E5
:102910008BE00E94F802609144038AE00E94F80272
:102920006091430389E00E94F8026091420388E0CD
:102930000E94F8026091410387E00E94F8020E9421
:10294000CF04ECCEC0934203A6CFC0934403A3CFE1
:10295000C0934303A0CFC09341039DCFE0E1F3E0D8
:10296000C083C183C2833A960E171F07C9F793CF5E
:10297000E0E1F3E01082118212823A960E171F07EF
:10298000C9F789CF3697CF01B3010E942416D69F8D
:10299000C001D79F900D1124805F9C4FE80FF91F55
:1029A000C08379CF0E94141508F481E00895E8945B
:1029B00009C097FB3EF490958095709561957F4F87
:1029C0008F4F9F4F9923A9F0F92F96E9BB27939535
:1029D000F695879577956795B795F111F8CFFAF445
:1029E000BB0F11F460FF1BC06F5F7F4F8F4F9F4F76
:1029F00016C0882311F096E911C0772321F09EE8D4
:102A0000872F762F05C0662371F096E8862F70E039
:102A100060E02AF09A95660F771F881FDAF7880F13
:102A20009695879597F90895990F0008550FAA0B69
:102A3000E0E8FEEF16161706E807F907C0F01216D1
:102A40001306E407F50798F0621B730B840B950BD4
:102A500039F40A2661F0232B242B252B21F4089529
:102A60000A2609F4A140A6958FEF811D811D0895C6
:102A70000E944B150C94BC150E94AE1538F00E94B4
:102A8000B51520F0952311F00C94A5150C94AB15F9
:102A900011240C94F0150E94CD1570F3959FC1F38D
:102AA000950F50E0551F629FF001729FBB27F00DFC
:102AB000B11D639FAA27F00DB11DAA1F649F662751
:102AC000B00DA11D661F829F2227B00DA11D621FA0
:102AD000739FB00DA11D621F839FA00D611D221F5A
:102AE000749F3327A00D611D231F849F600D211D3E
:102AF000822F762F6A2F11249F5750409AF0F1F0C1
:102B000088234AF0EE0FFF1FBB1F661F771F881F29
:102B100091505040A9F79E3F510580F00C94A515A7
:102B20000C94F0155F3FE4F3983ED4F386957795C7
:102B30006795B795F795E7959F5FC1F7FE2B880FCF
:102B4000911D9695879597F9089597F99F6780E865
:102B500070E060E008959FEF80EC089500240A94EF
:102B60001616170618060906089500240A94121668
:102B70001306140605060895092E0394000C11F49B
:102B8000882352F0BB0F40F4BF2B11F460FF04C048
:102B90006F5F7F4F8F4F9F4F089557FD9058440FA1
:102BA000551F59F05F3F71F04795880F97FB991FAC
:102BB00061F09F3F79F08795089512161306140669
:102BC000551FF2CF4695F1DF08C0161617061806F6
:102BD000991FF1CF86957105610508940895E894D1
:102BE000BB2766277727CB0197F908950E94011626
:102BF000A59F900DB49F900DA49F800D911D112451
:102C00000895A29FB001B39FC001A39F700D811DC5
:102C10001124911DB29F700D811D1124911D0895E5
:102C2000AA1BBB1B51E107C0AA1FBB1FA617B707F2
:102C300010F0A61BB70B881F991F5A95A9F780950E
:102C40009095BC01CD01089597FB072E16F40094D2
:102C500007D077FD09D00E94101607FC05D03EF47E
:102C6000909581959F4F0895709561957F4F089538
:102C7000A1E21A2EAA1BBB1BFD010DC0AA1FBB1F80
:102C8000EE1FFF1FA217B307E407F50720F0A21BF2
:102C9000B30BE40BF50B661F771F881F991F1A945F
:102CA00069F760957095809590959B01AC01BD0189
:102CB000CF010895EE0FFF1F881F8BBF0790F6917D
:102CC000E02D19945058BB27AA270E947A160C941D
:102CD000BC150E94AE1538F00E94B51520F039F4ED
:102CE0009F3F19F426F40C94AB150EF4E095E7FB26
:102CF0000C94A515E92F0E94CD1558F3BA17620759
:102D000073078407950720F079F4A6F50C94EF1566
:102D10000EF4E0950B2EBA2FA02D0B01B9019001F6
:102D20000C01CA01A0011124FF27591B99F0593F3A
:102D300050F4503E68F11A16F040A22F232F342F82
:102D40004427585FF3CF469537952795A795F040D0
:102D50005395C9F77EF41F16BA0B620B730B840BE5
:102D6000BAF09150A1F0FF0FBB1F661F771F881F9D
:102D7000C2F70EC0BA0F621F731F841F48F48795F5
:102D800077956795B795F7959E3F08F0B0CF9395E7
:102D9000880F08F09927EE0F9795879508950E9460
:102DA000D51588F09F5798F0B92F9927B751B0F0F3
:102DB000E1F0660F771F881F991F1AF0BA95C9F7BF
:102DC00014C0B13091F00E94EF15B1E008950C9459
:102DD000EF15672F782F8827B85F39F0B93FCCF30C
:102DE000869577956795B395D9F73EF4909580953C
:102DF000709561957F4F8F4F9F4F08950E941415D6
:102E000008F48FEF0895FB01DC018D91019080198A
:0C2E10000110D9F3990B0895F894FFCF3E
:102E1C00CF02D202DD02ED02FA0203031F002000F2
:102E2C002100220023002400250026002700280072
:102E3C000200030004000500000000006204CC0343
:102E4C00F903AF042A0408041C042F2F22225C5C13
:102E5C006208660C6E0A720D7409005C75303030B5
:102E6C0030006E756C6C00747275650066616C7305
:102E7C00650074696D650062746E5F310062746E1A
:102E8C005F320062746E5F330062746E5F34006296
:102E9C00746E5F6A6F79006A6F795F6862006A6F3F
:102EAC00795F6764000D0A00646573657269616C13
:102EBC00697A652829206661696C65643A20006C22
:102ECC006564006C65645F6E006C65645F65006CC6
:102EDC0065645F77006C65645F73006D6F74004FA1
:102EEC006B00456D707479496E70757400496E6332
:102EFC006F6D706C657465496E70757400496E7693
:102F0C00616C6964496E707574004E6F4D656D6FC0
:0C2F1C00727900546F6F4465657000000E
:00000001FF
